:020000040800F2
:100000003811002045010008C1590008C3590008F3
:10001000C7590008CB590008CF590008000000005C
:10002000000000000000000000000000D35900089C
:10003000D559000800000000D7590008D959000818
:100040005F010008C95A00085F0100085F0100084D
:100050005F0100085F0100085F0100085F01000800
:100060005F0100085F0100085F0100085F010008F0
:100070005F0100085F0100085F0100085F010008E0
:100080005F0100085F0100085F0100085F010008D0
:100090005F0100085F0100085F0100085F010008C0
:1000A0005F0100085F0100085F0100085F010008B0
:1000B0006B5A00085F0100085F0100085F0100083B
:1000C0005F0100085F0100085F010008EB5A0008AB
:1000D0006D5B0008E95900085F0100085F01000836
:1000E0005F0100085F0100085F0100085F01000870
:1000F0005F0100085F0100085F0100085F01000860
:100100005F0100085F0100085F0100085F0100084F
:100110005F0100085F0100085F0100085F0100083F
:100120005F0100085F0100085F0100085F0100082F
:10013000DFF80CD007F0A0FE00480047152B0008A0
:10014000381100200648804706480047FEE7FEE7D2
:10015000FEE7FEE7FEE7FEE7FEE7FEE7FEE7FEE777
:1001600047020008310100080CB500200190009002
:100170006C48006840F480306A49086000BF6948F4
:10018000006800F4003000900198401C0190009835
:1001900018B90198B0F5A06FF1D16248006800F479
:1001A000003010B10120009001E000200090009884
:1001B000012843D15C48006840F010005A490860AB
:1001C0000846006820F0030008600846006840F018
:1001D0000200086053484068524948600846406839
:1001E00048600846406840F48060486008464068BF
:1001F00020F47C1048600846406840F4E8104860ED
:100200000846006840F08070086000BF45480068FC
:1002100000F000700028F9D04248406820F0030048
:10022000404948600846406840F00200486000BF0E
:100230003C48406800F00C000828F9D10CBD10B50E
:10024000FFF792FF10BD10B53648006840F001007E
:1002500034490860084640683449084031494860DC
:1002600008460068324908402E4908600846006880
:1002700020F4802008600846406820F4FE004860B2
:100280004FF41F008860FFF7DAFF4FF00060294944
:10029000086010BD10B5002100200022214B5B68D2
:1002A00003F00C0121B1042906D0082928D107E068
:1002B000214B224C236027E01F4B204C236023E07E
:1002C000184B5B6803F47010164B5B6803F48032C4
:1002D000022303EB904022B9194B4343174C236090
:1002E0000DE0104B5B6803F4003323B1144B434320
:1002F000124C236003E0104B4343104C236003E097
:100300000D4B0E4C236000BF00BF064B5B68C3F370
:1003100003130C4CE15C094B1B68CB40074C23607A
:1003200010BD000000100240002002400000FFF855
:10033000FFFFF6FE08ED00E000127A00000000204A
:1003400000093D000400002031490143314A116099
:10035000704770B5002100230F22C47804B32D4CE0
:10036000246804F4E064C4F5E064210AC1F10403E4
:10037000CA40447804FA03F1847814402143090107
:10038000254C0678A155047804F01F050124AC40E3
:1003900005786D11AD0005F1E025C5F8004109E0D3
:1003A000047804F01F050124AC401C4D067876113A
:1003B00045F8264070BD1A4A0A400243154B1B1FE0
:1003C0001A60704739B1134A121D12680243114B6B
:1003D0001B1D1A6006E00F4A121D126882430D4B66
:1003E0001B1D1A607047042808D14FF0E0210969ED
:1003F00041F004014FF0E022116107E04FF0E021ED
:10040000096921F004014FF0E022116170470000FA
:100410000000FA050CED00E000E400E080E100E0FF
:1004200080FFFF1F01684FF6FE721140016000213E
:10043000016041608160C1608D49884208D18C496A
:100440000839496841F00F01894A083A51608AE049
:1004500087491431884208D185490839496841F0F3
:10046000F001834A083A51607DE081492831884291
:1004700008D17F490839496841F470617C4A083ADB
:10048000516070E07A493C31884208D17849083996
:10049000496841F47041764A083A516063E0744912
:1004A0005031884208D172490839496841F47021B5
:1004B0006F4A083A516056E06D496431884208D16C
:1004C0006B490839496841F47001694A083A51603A
:1004D00049E067497831884208D165490839496857
:1004E00041F07061624A083A51603CE061498842DB
:1004F00006D1011F096841F00F01021F116032E0AF
:100500005C491431884208D15A49091F096841F0F1
:10051000F001584A121F116025E0564928318842DF
:1005200008D15449091F096841F47061514A121FEA
:10053000116018E04F493C31884208D14D49091FEC
:10054000096841F470414B4A121F11600BE04949A0
:100550005031884207D14749091F096841F4702189
:10056000444A121F1160704710B50022026847F616
:10057000F0739A430C6A8B6823430C6923434C69DC
:1005800023438C692343CC6923434C6A23438C6AFD
:1005900023431A430260CB6843600B6883604B6857
:1005A000C36010BD0021016041608160C1600161D4
:1005B00041618161C161016241628162704721B123
:1005C000026842F00102026004E002684FF6FE7326
:1005D0001A40026070471AB103680B43036002E0DF
:1005E00003688B4303607047416070470146486869
:1005F00080B2704701460020002201F080531BB1F9
:100600001C4B083B1A6802E0194B083B1A6802EAC7
:1006100001030BB1012000E00020704700F0805181
:1006200019B11449091F086002E0114908394860EE
:10063000704701460020002201F080531BB10D4B92
:10064000083B1A6802E00A4B083B1A6802EA0103F9
:100650000BB1012000E00020704700F0805119B17B
:100660000449091F086002E00149083948607047E1
:100670000800024008040240002044490860091DA7
:100680000860091D0860091D086041483F49143190
:100690000860704700213D498279002A3AD00A4615
:1006A000126803689A430B461A600A1D12680368B1
:1006B0009A430B1D1A60027911440A6803681A43B1
:1006C0000A60324A0832126803689A432F4B083393
:1006D0001A601A1D126803689A432C4B0C331A6077
:1006E0004279102A0ED11A1F126803681A43274B49
:1006F00008331A601A1D126803681A43234B0C331F
:100700001A600DE02149427911440A6803681A43CE
:100710000A6005E0027911440A6803689A430A6096
:1007200070470021016001710C214171002181712C
:1007300070471649103109680143144A103211609C
:10074000704701460020114A143212680A400AB16B
:10075000012000E0002070470C4914310860704708
:10076000014600200022094B1B6803EA0102074BE7
:1007700014331B680B4013B10AB1012000E00020C4
:1007800070470249143108607047000000040140BE
:10079000FFFF0F0001460020FE4A106800F03800FD
:1007A000084310607047FB49096821F00801F94AC5
:1007B000116011460968014311607047F5490968E5
:1007C00021F01001F34A11601146096801431160DC
:1007D0007047F148EF494860F04848607047EE487C
:1007E000EC494860ED4848607047EA48006940F0CD
:1007F0008000E84908617047E648006940F08000E1
:10080000E449086170470420E249C96801F0010128
:1008100009B101200EE0DF49C96801F0040109B106
:10082000022007E0DB49C96801F0100109B103208B
:1008300000E00420704700B502460423FFF7E3FF01
:10084000034603E0FFF7DFFF0346521E012B01D1F1
:10085000002AF7D102B90523184600BD30B5044679
:1008600004254FF43020FFF7E6FF0546042D17D18D
:10087000C848006940F00200C64908610846446162
:10088000006940F0400008614FF43020FFF7D3FFCB
:100890000546C048006941F6FD710840BD49086140
:1008A000284630BD10B504244FF43020FFF7C3FFB5
:1008B0000446042C16D1B748006940F00400B5493D
:1008C00008610846006940F0400008614FF430209C
:1008D000FFF7B1FF0446AF48006941F6FB710840DD
:1008E000AC490861204610BD00B502460423FFF75D
:1008F0008AFF034603E0FFF786FF0346521E012BE3
:1009000001D1002AF7D102B90523184600BD10B560
:1009100004244FF43020FFF7E7FF0446042C16D1DF
:100920009C48006940F004009A4908610846006943
:1009300040F0400008614FF43020FFF7D5FF044637
:100940009448006941F6FB710840924908612046CD
:1009500010BD00208F49C96901F0020109B10120D1
:1009600000E00020704730B5A5250424FFF7F1FF13
:1009700000B100254FF43020FFF75DFF0446042C42
:100980003AD1854883498860844888600846006970
:1009900040F0200008610846006940F0400008610E
:1009A0004FF43020FFF747FF0446042C1BD1794851
:1009B000006941F6DF710840764908610846006920
:1009C00040F01000086176480580E002FFF733FF31
:1009D0000446052C10D06F48006941F6EF710840BD
:1009E0006C49086108E0052C06D06A48006941F6A8
:1009F000EF71084067490861204630BD78B506466A
:100A00000C46042500200090E802FFF714FF05467D
:100A1000042D24D15F48006940F001005D49086160
:100A20003480E802FFF707FF0546042D10D1B01C03
:100A30000090200C00990880E802FFF7FCFE0546B4
:100A40005448006941F6FE7108405249086106E0C9
:100A50005048006941F6FE7108404E490861284639
:100A600078BD70B504460D460426F002FFF7E3FE9C
:100A70000646042E11D14748006940F0010045495F
:100A800008612580F002FFF7D6FE0646414800695E
:100A900041F6FE7108403F490861304670BD70B5AF
:100AA00005460E460424E002FFF7C5FE0446042C6A
:100AB00017D1394837498860384888600846006946
:100AC00040F0100008612E80E002FFF7B4FE0446FB
:100AD000052C06D02F48006941F6EF7108402D49DA
:100AE0000861204670BD2DE9F04304464FF6FF76BD
:100AF0003746B046B1460425E443E6B2C4F30727BF
:100B0000C4F307484FEA1469E802FFF794FE05466C
:100B1000042D49D120481F49886020488860084634
:100B2000006940F010000861FF2E06D01C48083014
:100B30000680E802FFF77FFE0546042D08D1FF2F4F
:100B400006D017480A300780E802FFF774FE054612
:100B5000042D0AD1B8F1FF0F07D011480C30A0F8CE
:100B60000080E802FFF767FE0546042D0AD1B9F1BF
:100B7000FF0F07D00A480E30A0F80090E802FFF7F8
:100B80005AFE0546052D0FD00248006941F6EF7167
:100B9000084007E00020024023016745AB89EFCD04
:100BA00000F8FF1F664908612846BDE8F08330B5AC
:100BB000054604244FF43020FFF73DFE0446042C84
:100BC00041D160485E4988605F4888600846006996
:100BD00040F0200008610846006940F040000861CC
:100BE0004FF43020FFF727FE0446042C22D154484E
:100BF000006941F6DF710840514908610846006903
:100C000040F0100008611DB100205049088002E04A
:100C1000A5204E4908804FF43020FFF70CFE044613
:100C2000052C10D04648006941F6EF710840444950
:100C3000086108E0052C06D04148006941F6DF71E3
:100C400008403F490861204630BDF0B505460E46D4
:100C5000174604243B483A4988603B488860E002D4
:100C6000FFF7E9FD0446042C19D13548006940F02E
:100C700010003349086147F0F800304328433349F6
:100C8000891C0880E002FFF7D6FD0446052C06D03B
:100C90002B48006941F6EF71084029490861204658
:100CA000F0BD2748C069800870472548006A704732
:100CB00000202349096801F0200109B1012000E06A
:100CC0000020704729B11E4A126902431C4B1A6169
:100CD00004E01B4A12698243194B1A6170470146AE
:100CE0000020012908D1164AD26902F001020AB196
:100CF000012008E0002006E0114AD2680A400AB14B
:100D0000012000E0002070470D49C86070470420B2
:100D10000B49C96801F0010109B101200EE0084941
:100D2000C96801F0040109B1022007E00449C9685B
:100D300001F0100109B1032000E004207047000019
:100D40000020024023016745AB89EFCD00F8FF1F6B
:100D500010B50446CC48844208D10121042000F09B
:100D6000B3FB0021042000F0AFFB46E0C7488442FB
:100D700008D10121082000F0A7FB0021082000F085
:100D8000A3FB3AE0C248844208D10121102000F0C0
:100D90009BFB0021102000F097FB2EE0BD48844211
:100DA00008D10121202000F08FFB0021202000F03D
:100DB0008BFB22E0B848844208D10121402000F09A
:100DC00083FB0021402000F07FFB16E0B348844203
:100DD00008D10121802000F077FB0021802000F065
:100DE00073FB0AE0AE48844207D10121801500F070
:100DF0006BFB0021A01500F067FB10BD10B50121B1
:100E0000084600F061FB0021012000F05DFB10BDF1
:100E10002DE9F04102460025002600200023002491
:100E2000002791F803C00CF00F0591F803C00CF0F7
:100E3000100CBCF1000F03D091F802C04CEA05057C
:100E400091F800C0BCF1000F31D0146800202BE0F5
:100E50004FF0010C0CFA00F3B1F800C00CEA0306E5
:100E60009E4220D183004FF00F0C0CFA03F7BC43D5
:100E700005FA03FC4CEA040491F803C0BCF1280F06
:100E800006D14FF0010C0CFA00FCC2F814C00AE0C5
:100E900091F803C0BCF1480F05D14FF0010C0CFADA
:100EA00000FCC2F810C0401C0828D1D31460B1F86F
:100EB00000C0BCF1FF0F34DD546800202EE000F1CB
:100EC000080C4FF0010808FA0CF3B1F800C00CEA66
:100ED00003069E4221D183004FF00F0C0CFA03F75A
:100EE000BC4305FA03FC4CEA040491F803C0BCF1CE
:100EF000280F05D100F1080C08FA0CF8C2F814808C
:100F000091F803C0BCF1480F07D100F1080C4FF075
:100F1000010808FA0CF8C2F81080401C0828CED34B
:100F20005460BDE8F0814FF6FF71018002218170AD
:100F30000421C17070470246002093680B400BB13A
:100F4000012000E0002070470146886880B27047A9
:100F500002460020D3680B400BB1012000E00020C6
:100F600070470146C86880B27047016170474161AF
:100F700070470AB1016100E041617047C16070478C
:100F80004FF480320A4382618161826182698269A1
:100F9000704702460020434B18684FF68073184094
:100FA00040EA021008433F4B186070473E49C86151
:100FB0007047F0B50A46002300240021002500F008
:100FC0000046B6F1004F02D1364EF16901E0354ED0
:100FD0007168C0F3034583B200F44016B6F5401FB4
:100FE00008D121F070612F4E766826F070662D4F83
:100FF0007E6012E000F48016B6F5801F06D103264D
:1010000006FA05F4A14341F0706106E0460D360191
:1010100003FA06F6B14341F0706122B1460D360184
:1010200003FA06F6314300F00046B6F1004F02D154
:101030001C4EF16101E01B4E7160F0BD30B5002225
:101040008B071C0F0F2303FA04F2164B08338C1086
:1010500053F824309343134C08348D1044F8253052
:1010600023468C1053F824308C07240F00FA04F424
:1010700023430C4C08348D1044F8253030BD0A4908
:10108000DC3108607047000000080140000C01409E
:10109000001001400014014000180140001C0140F4
:1010A0000020014000000140000020420E4908607D
:1010B00070470D49486070470B49886070474AF691
:1010C000AA200949086070474CF6CC4006490860E0
:1010D000704701460020044AD2680A400AB1012044
:1010E00000E00020704700000030004010B50121F2
:1010F000080700F0F6F900214FF0805000F0F1F9F8
:1011000010BD2A49086270472849086170470146A6
:101110000020274A106820F0E00008431060704764
:101120002249A0310860704710B502460020204BCC
:10113000186820F00300104318601E4B1B6843F032
:1011400004031C4C2360012901D130BF00E020BF03
:10115000184B1B6823F00403164C236010BD144881
:10116000006840F00400124908600846006840F03A
:10117000020008600F48006840F004000D49086054
:1011800000BF00BF30BF704701460020084A5268C8
:101190000A400AB1012000E00020704704490968B4
:1011A00041EA8001024A11607047000000000E42CF
:1011B0000070004010ED00E0DF48006840F00100E2
:1011C000DD49086008464068DC490840DA49486063
:1011D00008460068DA490840D749086008460068B0
:1011E00020F4802008600846406820F4FE00486033
:1011F0004FF41F0088607047CF49096821F480319F
:10120000CD4A11601146096821F480211160B0F5C2
:10121000803F03D0B0F5802F0ED106E0C6490968A3
:1012200041F48031C44A116007E0C349096841F4C0
:10123000A021C14A116000E000BF00BF704710B597
:1012400001460022002300204A11012A02D1BA4C93
:10125000236806E0022A02D1B74C236A01E0B64CAB
:10126000636A01F01F02012494401C400CB101206C
:1012700000E0002010BD38B50020009000240025BB
:1012800000BF3120FFF7DBFF05460098401C0090AF
:101290000098B0F5A06F01D0002DF2D03120FFF7FB
:1012A000CEFF08B1012400E00024204638BD0146ED
:1012B0000020A14A106820F0F80040EAC100106048
:1012C0007047A04908607047024600209A4B586852
:1012D00020F47C1042EA01031843974B5860704792
:1012E00098490866704701460020934A506820F0EC
:1012F00003000843506070478F48406800F00C00BE
:101300007047014600208C4A506820F0F0000843E6
:101310005060704701460020874A506820F4E06022
:1013200008435060704701460020834A506820F40B
:10133000605040EAC1005060704729B17E4A527A3D
:1013400002437D4B5A7204E07B4A527A82437A4BC5
:101350005A7270477B49D8310860704701460020B7
:10136000754A506820F4404008435060704700219F
:10137000714A20321170704A82F82010012802D080
:1013800004280AD104E001216B4A2032117005E0E3
:101390000521694A2032117000E000BF00BF70478C
:1013A0006949086070476449096A0143624A1162E9
:1013B0007047654944390860704730B50021002204
:1013C000002400235C4D6D6805F00C0121B1042957
:1013D00005D0082923D105E05C4D056022E05B4D76
:1013E00005601FE0544D6D6805F47012524D6D6834
:1013F00005F48034022505EB92421CB9544D554347
:1014000005600BE04C4D6D6805F400351DB1504D85
:101410005543056002E04D4D5543056002E04B4DDC
:10142000056000BF00BF444D6D6805F0F00109097B
:10143000484D6B5C0568DD4045603F4D6D6805F4C7
:10144000E061090A434D6B5C4568DD4085603A4DBB
:101450006D6805F46051C90A3E4D6B5C4568DD401E
:10146000C560354D6D6805F44041890B3A4D6B5CA4
:10147000C568B5FBF3F5056130BD29B12E4A526947
:1014800002432D4B5A6104E02B4A526982432A4B96
:101490005A61704729B1284A92690243264B9A61E2
:1014A00004E0254A92698243234B9A61704729B12F
:1014B000214AD2690243204BDA6104E01E4AD26914
:1014C00082431D4BDA61704729B11B4AD26802433F
:1014D000194BDA6004E0184AD2688243164BDA608E
:1014E000704729B1144A12690243134B1A6104E090
:1014F000114A12698243104B1A61704712494039F0
:10150000086070470F49C86470470B49C87170473D
:101510000948406A40F080700749486270470146B8
:101520000020054A92680A400AB1012000E000202C
:101530007047014988727047001002400000FFF8B0
:10154000FFFFF6FE000042428004424200127A0091
:1015500000093D00140000202400002010B50446BE
:10156000BE48844208D101218014FFF7ADFF00215D
:10157000A014FFF7A9FF16E0B948844208D1012161
:101580000014FFF7AEFF00212014FFF7AAFF0AE0C6
:10159000B448844207D10121C013FFF7A2FF002104
:1015A000E013FFF79EFF10BD10B50022028802F481
:1015B00041520B884C8823438C882343CC88234397
:1015C0000C8923434C8923438C892343CC892343AF
:1015D0001A430280838B4FF2FF74234083830B8A6C
:1015E000038210BD2DE9F04F85B005460C464FF043
:1015F000000902274FF000084FF0010B0026B24609
:10160000A88B4FF240010840A88302202884B5F837
:101610001C90A068022801D100BF38E0A08810B952
:101620004FF0010B01E04FF0020B8D48854200D1D5
:1016300000E000BF6846FFF7C0FEDDF800A0E088CC
:10164000B0F5007F0AD14FEA1A2000EB800040007D
:10165000A168B0FBF1F0401D86B20BE04FEA4B10E1
:10166000BAFBF0F000EB80004000A168B0FBF1F0A5
:10167000401D86B20A20B6FBF0F606F00108A6EB84
:101680000800C0F34F074FF6FF7000EA0828022F4A
:1016900001DBFF2F02DD02274FF00008E08840EA5F
:1016A000080038432884A088A1890843618808433A
:1016B0002188084340F4006040EA0909A5F81C901D
:1016C00005B0BDE8F08F0021018041808180C1809C
:1016D000018141818181C1810721018270470021FF
:1016E000018041808180C18002218160002181814F
:1016F000704721B1028842F04002028004E0028873
:101700004FF6BF731A400280704721B1828B42F4BA
:101710008062828304E0828B4FF6FF331A4082831B
:10172000704730B5002400230C110125A540ABB251
:101730001AB185881D43858002E085889D43858098
:1017400030BD1AB183880B43838002E083888B43CA
:1017500083807047818170470146888970474FF6C2
:10176000FF62914204D0028842F48072028004E059
:1017700002884FF6FF631A400280704721B18288C9
:1017800042F00402828004E082884FF6FB731A4024
:101790008280704702884FF2FF731A4002800288ED
:1017A0000A4302807047018841F4805101807047EC
:1017B00021B1028842F40052028004E002884DF612
:1017C000FF731A400280704702460020012901D0B1
:1017D000108B00E0908A70470146088A7047B1F587
:1017E000804F04D1028842F48042028004E00288E3
:1017F0004BF6FF731A40028070470246002013899F
:101800000B400BB1012000E000207047CA43028169
:101810007047F0B50246002000240023002501F0A7
:101820000F070126BE40B4B20B1101269E40B3B291
:10183000968806EA03051689264016B10DB10120E7
:1018400000E00020F0BD10B5002201F00F040123DC
:10185000A3409AB2D343038110BD00000030014081
:1018600000380040003C004010B50446FE48844269
:1018700008D10121C014FFF727FE0021E014FFF773
:1018800023FEC4E0B4F1804F08D101210846FFF7E0
:1018900028FE00210120FFF724FEB8E0F34884422F
:1018A00008D101210220FFF71CFE00210220FFF7D2
:1018B00018FEACE0EE48844208D101210420FFF775
:1018C00010FE00210420FFF70CFEA0E0E94884424E
:1018D00008D101210820FFF704FE00210820FFF7AE
:1018E00000FE94E0E448844208D101211020FFF773
:1018F000F8FD00211020FFF7F4FD88E0DF48844266
:1019000008D101212020FFF7ECFD00212020FFF766
:10191000E8FD7CE0DA48844208D101214014FFF759
:10192000D3FD00216014FFF7CFFD70E0D54884425D
:1019300009D10121C804FFF7C7FD00214FF40020A1
:10194000FFF7C2FD63E0D048844209D101210805B8
:10195000FFF7BAFD00214FF48010FFF7B5FD56E008
:10196000CA48844209D101214805FFF7ADFD002195
:101970004FF40010FFF7A8FD49E0C548844208D1A4
:1019800001214020FFF7ADFD00214020FFF7A9FD18
:101990003DE0C048844208D101218020FFF7A1FD2D
:1019A00000218020FFF79DFD31E0BB48844208D133
:1019B00001218015FFF795FD0021A015FFF791FD8E
:1019C00025E0B648844209D101210804FFF77CFDD7
:1019D00000214FF48030FFF777FD18E0B0488442D3
:1019E00009D101214804FFF76FFD00214FF40030B9
:1019F000FFF76AFD0BE0AB48844208D1012188045F
:101A0000FFF762FD00214FF48020FFF75DFD10BD60
:101A100000220288944B98420ED0994B98420BD0EA
:101A2000B0F1804F08D0914B984205D0904B98422E
:101A300002D0904B984204D14FF68F731A404B88D6
:101A40001A438D4B984207D08C4B984204D04FF6E6
:101A5000FF431A40CB881A4302808B8883850B880A
:101A60000385814B98420BD0854B984208D08B4B15
:101A7000984205D08A4B984202D08A4B984201D1B5
:101A80000B7A038601238382704770B500240022FD
:101A90000023058C4FF6FE7635400584028C838842
:101AA000048B4FF68F752C40B51E2C400D882C43AF
:101AB000751E2A400D892A434D882A436A4DA84243
:101AC0000BD06F4DA84208D0744DA84205D0744D7C
:101AD000A84202D0734DA84213D14FF6F7752A40A1
:101AE0004D892A434FF6FB752A408D882A434FF6CD
:101AF000FF652B404FF6FF552B408D892B43CD8939
:101B00002B4383800483CD888586028470BD70B5A5
:101B1000002400220023058C4FF6EF763540058423
:101B2000028C8388048B48F6FF752C404FF6FF45E6
:101B30002C400D884FF6FF7606EA05252C434FF61C
:101B4000DF752A400D8906EA05152A434D8806EA05
:101B500005152A43444DA84202D0494DA8421DD143
:101B60004FF67F752A404D894FF6FF7606EA051538
:101B70002A434FF6BF752A408D8806EA05152A4389
:101B80004FF6FF352B404FF2FF752B408D8906EA4B
:101B900085052B43CD8906EA85052B438380048385
:101BA000CD880587028470BD70B500240022002313
:101BB000058C4FF6FF6635400584028C8388848B44
:101BC0004FF68F752C404FF6FC752C400D882C433A
:101BD0004FF6FF552A400D894FF6FF7606EA052598
:101BE0002A434D8806EA05252A431F4DA84202D004
:101BF000234DA8421DD14FF2FF752A404D894FF663
:101C0000FF7606EA05252A434FF6FF352A408D88E0
:101C100006EA05252A434EF6FF752B404DF6FF7563
:101C20002B408D8906EA05152B43CD8906EA05155B
:101C30002B4383808483CD888587028470BD70B5F3
:101C4000002200230024058C4EF6FF7635400584E3
:101C5000038C8488828B48F6FF752A404FF6FF4537
:101C60002A400D8820E00000002C014000040040C4
:101C700000080040000C004000100040001400402C
:101C800000340140004C014000500140005401402C
:101C900000180040001C00400020004000400140AF
:101CA00000440140004801404FF6FF7606EA052552
:101CB0002A434DF6FF752B400D8906EA05352B4367
:101CC0004D8806EA05352B43FA4DA84202D0FA4D5D
:101CD000A84208D14BF6FF752C408D894FF6FF7650
:101CE00006EA85152C4384808283CD88A0F8405075
:101CF000038470BD828B4FF2FF331A408283828B44
:101D00004FF6FF7303EA01231A4382837047F0B54D
:101D10000C461546002200210026078C4EF6FF7C5B
:101D200007EA0C070784828B018C4FF6FF7707EADE
:101D3000043640F6FF473A404FF6FF7707EA05279B
:101D40003A434FF6FF7707EA03373A43D94FB84291
:101D50000ED0D94FB8420BD0B0F1804F08D0D74F3A
:101D6000B84205D0D64FB84202D0D64FB84206D1BD
:101D70004DF6FF77394046F48057394305E047F682
:101D8000FF57394044F48057394382830184F0BDC2
:101D9000828B4FF6F3731A408283828B0A438283CD
:101DA0007047F0B50C461546002200210026078C2E
:101DB0004FF6FF6C07EA0C070784828B018C4FF605
:101DC000FF7707EA04264FF60C773A404FF6FF7785
:101DD00007EA03172F433A43B64FB8420ED0B64F27
:101DE000B8420BD0B0F1804F08D0B44FB84205D004
:101DF000B34FB84202D0B34FB84206D14FF6FF57A7
:101E0000394046F48077394305E04FF2FF573940B7
:101E100044F48077394382830184F0BD028B4FF212
:101E2000FF331A400283028B4FF6FF7303EA01234C
:101E30001A4302837047F0B50C4615460022002174
:101E40000026078C4FF6EF7C07EA0C070784028B0D
:101E5000018C4FF6FF7707EA041640F6FF473A4039
:101E60004FF6FF7707EA03373A434FF6FF7707EA63
:101E700005273A438F4FB8420ED08F4FB8420BD050
:101E8000B0F1804F08D08D4FB84205D08C4FB8428A
:101E900002D08C4FB84206D14FF6DF77394046F07A
:101EA0001007394305E04FF65F77394044F01007DB
:101EB000394302830184F0BD028B4FF6F3731A405D
:101EC0000283028B0A4302837047F0B50C46154625
:101ED00000220021068C4FF6FE773E400684028BDE
:101EE000018C4FF60C7632407E1C06EA03162E4318
:101EF0003243704EB0420ED06F4EB0420BD0B0F1B4
:101F0000804F08D06D4EB04205D06D4EB04202D029
:101F10006C4EB04206D14FF6FD76314044F00106DA
:101F2000314305E04FF6F576314044F00106314388
:101F300002830184F0BD70B505460C465D488542BC
:101F40000ED05D4885420BD0B5F1804F08D05B487C
:101F5000854205D05A48854202D05A48854200D170
:101F600000E000BF208850B92389A28861882846F4
:101F7000FFF7ABFFE1882846FFF79EFF25E02088AA
:101F800004280AD12389A28861882846FFF753FFD5
:101F9000E1882846FFF742FF17E0208808280AD189
:101FA0002389A28861882846FFF7FBFEE18828463E
:101FB000FFF7EEFE09E02389A28861882846FFF733
:101FC000A6FEE1882846FFF795FE70BD2DE9F04199
:101FD00005460C4600260127608808B9022600E065
:101FE0000026A088012801D1022700E001272088CF
:101FF000A0B92389A28861882846FFF766FFE18897
:102000002846FFF759FF23893A4631462846FFF70D
:1020100012FFE1882846FFF701FF13E02389A28819
:1020200061882846FFF707FFE1882846FFF7F6FE9C
:1020300023893A4631462846FFF747FFE18828467C
:10204000FFF73AFFBDE8F0810A884B881A438B8876
:102050001A43CB881A430B891A434B891A438B893D
:102060001A43A0F8442070474FF6FF718180002189
:102070000180C18041800172704700210180418050
:102080008180C180018141818181C18170470021AE
:1020900001804180012181800021C1800181704740
:1020A0000021018041808180C18001814181818145
:1020B00070470000002C0140003401400004004043
:1020C00000080040000C004021B1028842F00102EB
:1020D000028004E002884FF6FE731A4002807047C7
:1020E00031B1B0F8442042F40042A0F8442005E0A9
:1020F000B0F84420C2F30E02A0F8442070471AB191
:1021000083890B43838102E083898B4383817047FA
:102110008182704741EA0203A0F8483070471AB143
:1021200083890B43838102E083898B4383817047DA
:1021300001894FF6F8721140018170470A4600216B
:1021400001894FF68F73194011430181704730B5F3
:1021500004460D4629462046FFF7F0FF208940F04F
:102160000700208130BD2DE9F04104460D4616469A
:102170001F46602D06D13B46012231462046FFF71F
:102180005AFE05E03B46012231462046FFF79DFE00
:1021900029462046FFF7D2FF208940F00700208122
:1021A000BDE8F08130B50C4600210189C9B24FF677
:1021B000FF7505EA0325154325432943018130BDF9
:1021C0002DE9F04105460E46174698460024434641
:1021D0003A4631462846FFF7E5FF2C894FF6F8705E
:1021E000044044F007044FF68F70044044F070043C
:1021F0002C81BDE8F081F0B504460D4616461F4619
:102200003B46324629462046FFF7CCFF208940F462
:1022100080402081F0BD0185828270470A460021FE
:1022200001884FF68F731940114301807047F0B554
:102230000C4615461E460021002200230189028B10
:10224000038C4FF6F877394021434FF6FC473A406C
:1022500040F201173A434FF6DD773B404FF6FF77E8
:1022600007EA06172F433B43018102830384F0BD35
:102270000A460021018B4FF68F73194011430183E9
:1022800070470A460021018B48F6FF7319404FF64C
:10229000FF7303EA02231943018370470A460021B2
:1022A000818B4FF68F7319401143818370470A4623
:1022B0000021818B48F6FF7319404FF6FF7303EA44
:1022C000022319438183704721B1028842F08002C2
:1022D000028004E002884FF67F731A400280704744
:1022E00021B1828842F00402828004E082884FF6A5
:1022F000FB731A408280704721B1828842F0080245
:10230000828004E082884FF6F7731A40828070471B
:1023100021B1828842F00102828004E082884FF677
:10232000FE731A40828070470A460021018B4FF6E7
:10233000F77319401143018370470A460021018B4E
:102340004FF2FF7319404FF6FF7303EA022319435C
:10235000018370470A460021818B4FF6F7731940BD
:102360001143818370470A460021818B4FF2FF732E
:1023700019404FF6FF7303EA022319438183704724
:102380000A460021018B4FF6FB731940114301836C
:1023900070470A460021018B4FF6FF3319404FF674
:1023A000FF7303EA02231943018370470A460021A1
:1023B000818B4FF6FB7319401143818370470A46A6
:1023C0000021818B4FF6FF3319404FF6FF7303EA6C
:1023D00002231943818370470A460021018B4FF67F
:1023E0007F7319401143018370470A460021018B16
:1023F000C1F30E014FF6FF7303EA02231943018371
:1024000070470A460021818B4FF67F7319401143B4
:10241000818370470A460021818BC1F30E014FF67C
:10242000FF7303EA02231943818370470A460021A0
:10243000018C4FF6FD7319401143018470470A4621
:102440000021018C4FF6F773194011430184704746
:102450000A460021018C4FF6DF7319404FF6FF73D7
:1024600003EA02131943018470470A460021018CD4
:102470004FF67F7319404FF6FF7303EA02131943B7
:10248000018470470A460021018C4FF6FF53194022
:102490004FF6FF7303EA02231943018470470A468B
:1024A0000021018C4FF2FF7319404FF6FF7303EACE
:1024B00002231943018470470A460021018C4DF61E
:1024C000FF7319404FF6FF7303EA02331943018487
:1024D000704730B5002301248C40A3B2048C9C4388
:1024E0000484048C02FA01F5ADB22C43048430BD9F
:1024F00030B5002304248C40A3B2048C9C43048494
:10250000048C02FA01F5ADB22C43048430BD70B5E1
:102510000346002000241846183001258D40ACB237
:102520001D8CA5431D8409B1082909D100EB610068
:10253000056825F0700505600568154305600EE027
:102540000D1FC5F34E052844056825F4E0450560D8
:1025500005684FF6FF7606EA02263543056070BD32
:1025600021B1028842F00202028004E002884FF6A4
:10257000FD731A400280704721B1028842F00402C4
:10258000028004E002884FF6FB731A400280704715
:1025900021B1828842F08002828004E082884FF676
:1025A0007F731A408280704702884FF6F7731A4093
:1025B000028002880A430280704782884FF68F7338
:1025C0001A40828082880A438280704702894FF6CF
:1025D000F8731A40028102890A4302817047028916
:1025E0004FF67F731A40028102890A4302817047C5
:1025F0008184704781857047818670470187704765
:1026000081877047A0F84010704702884FF6FF435B
:102610001A40028002880A43028070470146888E71
:1026200070470146088F70470146888F7047014602
:10263000B1F8400070470146888C70470146088D0C
:10264000704702460020138A0B400BB1012000E0C6
:1026500000207047CA430282704730B5024600200E
:1026600000230024158A05EA0103958905EA01047F
:1026700013B10CB1012000E0002030BDCA4302823A
:102680007047000010B50446FB48844209D101217F
:102690008803FEF719FF00214FF48040FEF714FF76
:1026A00032E0F648844209D101214804FEF719FFBF
:1026B00000214FF40030FEF714FF25E0F04884427B
:1026C00009D101218804FEF70CFF00214FF480207E
:1026D000FEF707FF18E0EB48844209D10121C80446
:1026E000FEF7FFFE00214FF40020FEF7FAFE0BE09C
:1026F000E548844208D101210805FEF7F2FE0021D9
:102700004FF48010FEF7EDFE10BD2DE9F04786B0C6
:1027100005460E460024A24600BFA1460027B08908
:1027200000B100BF2F462C8A4CF6FF700440F088A1
:1027300004432C82AC894EF6F3100440B0883189F2
:102740000843718908430443AC81AC8A4FF6FF40CB
:102750000440B0890443AC8201A8FEF72EFEC648AF
:10276000874202D1DDF810A001E0DDF80CA0A889B5
:1027700000F4004040B10AEBCA0000EB0A103168D7
:102780004900B0FBF1F807E00AEBCA0000EB0A10C1
:1027900031688900B0FBF1F86420B8FBF0F0040167
:1027A0002009642101FB1089A88900F4004040B190
:1027B000322000EBC900B0FBF1F000F00700044349
:1027C00008E0322000EB09106421B0FBF1F000F0CA
:1027D0000F0004432C8106B0BDE8F0874FF416517A
:1027E000016000218180C18001810C214181002193
:1027F0008181704710B502460020108A4FF2FF0316
:1028000018400B884C8823438C882343CC8823436F
:102810001843108210BD0021018041808180C18059
:10282000704721B1828942F40052828104E082899A
:102830004DF6FF731A4082817047F0B503460024BD
:1028400000260025002040F66A17B94200D100BFDB
:102850001846C1F3421401F01F06012707FA06F5D6
:10286000012C01D10C3004E0022C01D1103000E029
:1028700014301AB107682F43076002E00768AF43BE
:102880000760F0BD1AB1838A0B43838202E0838A1A
:102890008B4383827047028A4FF6F0731A4002829C
:1028A000028A0A430282704782894FF2FF731A40FC
:1028B000828182890A438281704721B1828942F0F4
:1028C0000202828104E082894FF6FD731A40828100
:1028D0007047028A4FF6DF731A400282028A0A4367
:1028E0000282704721B1028A42F48042028204E0EF
:1028F000028A4BF6FF731A4002827047C1F3080246
:102900008280704701468888C0F30800704781893B
:1029100041F0010181817047028BD2B20283028BA8
:1029200042EA012202837047028B02F47F42028353
:10293000028B0A430283704721B1828A42F020024F
:10294000828204E0828A4FF6DF731A4082827047E7
:1029500021B1828A42F01002828204E0828A4FF61C
:10296000EF731A408282704721B1828A42F00802D6
:10297000828204E0828A4FF6F7731A40828270479F
:1029800021B1828942F40042828103E08289C2F34C
:102990000E028281704721B1828A42F400628282F3
:1029A00004E0828A4FF2FF731A4082827047828A63
:1029B0004FF6FB731A408282828A0A4382827047F2
:1029C00021B1828A42F00202828204E0828A4FF6BA
:1029D000FD731A408282704702460020B1F5007FE5
:1029E00000D100BF13880B400BB1012000E0002094
:1029F000704701F40072B2F5007F00D100BFCA43F6
:102A00000280704770B50246002400230025002094
:102A100040F66A16B14200D100BFC1F3421501F081
:102A20001F03012606FA03F3012D02D196893340D4
:102A300006E0022D02D1168A334001E0968A334027
:102A40000C12012606FA04F41688344013B10CB1B6
:102A5000012000E0002070BD10B50022002340F6E8
:102A60006A14A14200D100BF0A1201249440A3B20B
:102A7000DC43048010BD00000038014000440040E9
:102A800000480040004C00400050004010B5FEF7E8
:102A900093FB0120FEF715FC00BF2120FEF7CFFBC2
:102AA0000028FAD00020FEF72CFC0020FEF73BFCAB
:102AB0004FF48060FEF72EFC0220FDF76BFE102025
:102AC000FDF77CFE4FF460110020FEF7FDFB0120B6
:102AD000FEF706FC00BF3920FEF7B1FB0028FAD054
:102AE0000220FEF700FC00BFFEF706FC0828FBD121
:102AF00010BD10B545F25550FEF7D8FA0620FEF786
:102B0000D8FA4FF4C870FEF7D7FAFEF7D8FAFEF7F6
:102B1000DBFA10BDB6B000BF0020359000BF00BF8B
:102B200000BF00BF00BF0021349100BF339100BF40
:102B3000329100BF3191309100BF2F912E91202111
:102B400026A804F0D0FD00BF00211D911A911B9111
:102B50001C911791189119911691159114911821A2
:102B600020A804F0C0FD1821FD4804F0BCFD0020A1
:102B7000FC490870FFF78AFF02F030FF04F00CFAFE
:102B800004F092FC03F0F7F903F090FE04F0ACFCC3
:102B900004F017FD002003F0CDF9322004F02FFAE5
:102BA0000021AF2003F068F90DA8FEF706FCEEA1A6
:102BB00026A805F0F9FB26AB00221421312004F0F1
:102BC00061F90D98EB49B0FBF1F10A460C91EAA1CD
:102BD00026A805F0E9FB26AB08221421312004F0D9
:102BE00051F903F0BFF8E9A126A805F0DDFB26ABFB
:102BF00010221421312004F045F9322004F0FFF9AD
:102C000003F0ECF8E5A126A805F0CEFB26AB1822D0
:102C10001421312004F036F9322004F0F0F906A82E
:102C200004F03BFB182206A9CD4804F043FDDEA1C9
:102C300026A805F0B9FB26AB30221421312004F080
:102C400021F9322004F0DBF9DBA126A805F0ACFB6A
:102C500026AB30221421312004F014F9322004F084
:102C6000CEF9D9A126A805F09FFB26AB302214216E
:102C7000312004F007F9322004F0C1F9D6A126A8CA
:102C800005F092FB26AB38221421312004F0FAF82B
:102C9000002003F04FF9322004F0B1F9B048007C75
:102CA0000A2190FBF1F201FB1201AD480C91007C6E
:102CB0000A2190FBF1F10B910A46CDA126A80C9BAD
:102CC00005F072FB26AB03221421312004F0DAF860
:102CD000A348407C0A2190FBF1F201FB1201A048BD
:102CE0000C91407C0A2190FBF1F10B910A46C5A1A1
:102CF00026A80C9B05F058FB26AB1022142131208E
:102D000004F0C0F89648C07C012801D1C2A000E0C0
:102D1000C2A00246C2A10C9026A805F045FB26AB36
:102D20001D221421312004F0ADF88D49D1E90201B2
:102D3000BD4ABE4BCDE9000104F02DFD0022BC4B85
:102D4000CDE9020104F0CEFDCDE9040104F0D7FE87
:102D50006421B0FBF1F201FB12000A21B0FBF1F09B
:102D60000C907F48C1688068AF4AB04BCDE9000144
:102D700004F011FD0022AE4BCDE9020104F0B2FDDA
:102D8000CDE9040104F0BBFE4FF47A71B0FBF1F21F
:102D900001FB12006421B0FBF1F071490B90D1E905
:102DA0000201A14AA14BCDE9000104F0F4FC00228C
:102DB0009F4BCDE9020104F095FDCDE9040104F03B
:102DC0009EFE42F21071B0FBF1F201FB12004FF4D3
:102DD0007A71B0FBF1F062490A90D1E90201924A9E
:102DE000924BCDE9000104F0D6FC0022904BCDE9D6
:102DF000020104F077FDCDE9040104F080FE8D4965
:102E0000B0FBF1F201FB120042F21071B0FBF1F0E5
:102E100053490990D1E90201834A844BCDE900016D
:102E200004F0B9FC0022824BCDE9020104F05AFD06
:102E3000CDE9040104F063FE4E49B0FBF1F201FB61
:102E400012007C49B0FBF1F045490890D1E902013C
:102E5000754A764BCDE9000104F09DFC0022744BCD
:102E6000CDE9020104F03EFDCDE9040104F047FE86
:102E70007149B0FBF1F201FB12003E49B0FBF1F0E9
:102E800007903748C1688068674A684BCDE9000100
:102E900004F081FC0022664BCDE9020104F022FD22
:102EA000CDE9040104F02BFE6349B0FBF1F006907C
:102EB000DDE90A320C990998CDE9023204910190BA
:102EC000089800905DA126A8DDE9062305F06CFABC
:102ED00026AB2A221421312003F0D4FF2048807C25
:102EE000012805D15FA261A126A805F05DFA0EE0D8
:102EF0001B48807C022805D15EA25CA126A805F0B3
:102F000053FA04E05DA259A126A805F04DFA26ABBC
:102F100037221421312003F0B5FF11480078012831
:102F200001D158A000E059A002465AA10C9026A851
:102F300005F03AFA26AB3822C821312003F0A2FF6F
:102F400000211391002012900549D1E90401CDE937
:102F5000000103480FC804F01CF902F01DBD000079
:102F6000500000203000002044654275672E2E2E50
:102F70000000000040420F004672657175656E6387
:102F8000793A202564204D487A000000557361721B
:102F9000745F496E69742E2E2E000000494F5F4900
:102FA0006E69742E2E2E00004C6F61645F5379732E
:102FB000506172612E2020004C6F61645F53797301
:102FC000506172612E2E20004C6F61645F537973E3
:102FD000506172612E2E2E004F50454E5F4957446E
:102FE000472E2E2E46494E4953482E2E2E000000C5
:102FF0004347203A20253031642530316420644233
:10300000000000004154543A20253031642530310D
:103010006420644200000000414743004D474300E4
:103020004147433A20257300FCA9F1D24D62403F4D
:103030000088C340A0860100809698004346203A4D
:10304000202530316425303164253031642530311C
:10305000642E253031642530316425303164204DB3
:10306000487A00003138304D487A00004257203A03
:10307000202573003234304D487A00003530304D11
:10308000487A00004C4F43414C20000052454D4FC0
:1030900054450000257300001398002842F07884FE
:1030A000DDE9121088427DD0002002F043FF32207B
:1030B00003F0A5FFFE48C07CD0B9FD48007C0A2182
:1030C00090FBF1F201FB12000C90F948007C90FBA0
:1030D000F1F10B910A46AFF2E80126A80C9B05F02E
:1030E00063F926AB03221421312003F0CBFE09E063
:1030F000F0A126A805F058F926AB032214213120AF
:1031000003F0C0FEEA48407C0A2190FBF1F201FB8B
:1031100012000C90E648407C90FBF1F10B910A46BE
:10312000AFF2201126A80C9B05F03EF926AB102229
:103130001421312003F0A6FEDD48C07C012802D115
:10314000AFF22C1001E0AFF22C100246AFF23011BA
:103150000C9026A805F028F926AB1D221421312059
:1031600003F090FED248C1688068D54AD54BCDE9BE
:10317000000104F010FB0022D34BCDE9020104F062
:10318000B1FBCDE9040104F0BAFC6421B0FBF1F21B
:1031900001FB12000A21B0FBF1F00C90C448C16899
:1031A000806800E009E1C64AC64BCDE9000104F0A1
:1031B000F2FA0022C44BCDE9020104F093FBCDE901
:1031C000040104F09CFC4FF47A71B0FBF1F201FBB6
:1031D00012006421B0FBF1F00B90B548C168806823
:1031E000B74AB84BCDE9000104F0D5FA0022B64B3E
:1031F000CDE9020104F076FBCDE9040104F07FFC87
:1032000042F21071B0FBF1F201FB12004FF47A713F
:10321000B0FBF1F0A6490A90D1E90201A84AA94BF6
:10322000CDE9000104F0B7FA0022A74BCDE9020175
:1032300004F058FBCDE9040104F061FCA349B0FBA4
:10324000F1F201FB120042F21071B0FBF1F098496B
:103250000990D1E902019A4A9A4BCDE9000104F0A4
:103260009AFA0022984BCDE9020104F03BFBCDE92C
:10327000040104F044FC9649B0FBF1F201FB12009A
:103280009249B0FBF1F08A490890D1E902018C4AD9
:103290008C4BCDE9000104F07EFA00228A4BCDE987
:1032A000020104F01FFBCDE9040104F028FC894968
:1032B000B0FBF1F201FB12008549B0FBF1F0079081
:1032C0007B48C16880687E4A7E4BCDE9000104F0EE
:1032D00062FA00227C4BCDE9020104F003FBCDE948
:1032E000040104F00CFC7B49B0FBF1F00690DDE931
:1032F0000A320C990998CDE902320491019008989C
:103300000090AFF2C82126A8DDE9062305F04CF8AD
:1033100026AB2A221421312003F0B4FD6448807CBE
:10332000012807D1AFF2C422AFF2C02126A805F0D0
:103330003BF812E05E48807C022807D1AFF2CC2235
:10334000AFF2D82126A805F02FF806E0AFF2D4227C
:10335000AFF2E82126A805F027F826AB3722142182
:10336000312003F08FFD52480078012802D1AFF2DE
:10337000EC2001E0AFF2EC200246AFF2E8210C9025
:1033800026A805F011F826AB3722C821312003F01A
:1033900079FD4749D1E90401CDE9000144480FC84E
:1033A00003F0F7FE4249D1E90401CDE900014048AC
:1033B0000FC803F0F1FF13981290474800780028D7
:1033C00072DD46480068006817AA1AA90C9003F03D
:1033D0006AFE002869D042A11AA804F096F938BB09
:1033E00040A117A804F091F950B9012030490870A4
:1033F0000846007D01460C903CA002F00AFD3DE22B
:103400003EA117A804F081F950B90020284908709E
:103410000846007D01460C9039A002F0FAFC2DE22E
:103420002348007D01460C9038A002F0F2FC25E212
:103430003AA11AA804F069F9002838D138A117A8D0
:1034400004F063F970B91A48C1688068CDE90A01CF
:103450001748007D09900B46014632A00A9A02F0F7
:10346000D8FC0BE21248007800BB17A805F0E4FD79
:10347000CDE91E0100222F4BDDE91E0104F070FB97
:1034800066D800222C4BDDE91E0104F051FB5FD809
:10349000074ADDE91E01C2E902011046C1688068E1
:1034A000CDE90A01104649E0BFE3B1E359E060E02D
:1034B000500000204347203A2078782064420000E2
:1034C000FCA9F1D24D62403F0088C340A0860100B4
:1034D00040420F0080969800300000202C00002011
:1034E00052454D004F46460D000000003E25642F1A
:1034F00052454D5F4F46460A000000004F4E0D00FA
:103500003E25642F52454D5F4F4E0A003E25642FE5
:103510005041524120455252210A000043460000CA
:103520003F0D00003E25642F43465F2530372E3384
:10353000660A000000889A4000B89A40007D099011
:103540000B460146AFF224000A9A02F062FC95E1B4
:10355000FE48007D01460C90AFF2500002F059FC8D
:103560008CE1FA48007D01460C90F9A002F051FC74
:1035700084E1FBA11AA804F0C8F8002850D1AFF2EA
:10358000600117A804F0C1F8B0B9F048C07C50B988
:10359000EE48007C0C90ED48017D0B91F1A00C9A57
:1035A00002F037FC6AE1E948007D0C900146EDA08D
:1035B000359A02F02EFC61E1E448007840BBE34814
:1035C000C07CE0B917A804F0D9F81D901D983228E6
:1035D0000CD8DE491D9808740846017C0C91017DC9
:1035E0000B91E0A00C9A02F014FC47E1D748007D53
:1035F00001460C90AFF2EC0002F00BFC3EE1D34828
:10360000007D01460C90AFF2FC0002F002FC35E1B7
:10361000CE48007D01460C90CDA002F0FAFB2DE1D2
:10362000D4A11AA804F071F880BBAFF20C1117A84E
:1036300004F06BF850B9C548407C0C90C348017D3C
:103640000B91CDA00C9A02F0E4FB17E1BF48007883
:10365000E8B917A804F092F81D901D981E280CD800
:10366000BA491D9848740846417C0C91017D0B9124
:10367000C1A00C9A02F0CDFB00E1B448007D0146E8
:103680000C90AFF2781002F0C4FBF7E007E0AF480F
:10369000007D01460C90AEA002F0BBFBEEE0BAA1AB
:1036A0001AA804F032F800287FD1AFF28C1117A8C5
:1036B00004F02BF850BB0120A449887448B1084697
:1036C000007DAFF2606201460C90B0A002F0A1FB59
:1036D000D4E002209D49887448B10846007DAFF2CD
:1036E0006C6201460C90A9A002F093FBC6E0032097
:1036F0009649887400288AD00846007DAFF284621B
:1037000001460C90A1A002F084FBB7E08F4800783E
:10371000C0BBAFF2B06117A803F0F7FF60B10120A2
:103720008A4988740846007DAFF2C86201460C9051
:1037300096A002F06EFBA1E0AFF2C86117A803F0FB
:10374000E4FF60B10220814988740846007DAFF231
:10375000DC6201460C908DA002F05BFB8EE0AFF2C4
:10376000E46117A803F0D1FF70B103207749887492
:103770000846007DAFF2FC6201460C9083A002F087
:1037800048FB7BE009E010E07048007D01460C90AA
:10379000AFF2882002F03DFB70E06C48007D0146EE
:1037A0000C906BA002F035FB68E0AFF294711AA8A0
:1037B00003F0ABFF88BB6548007830BB76A117A843
:1037C00003F0A3FF50B901206049C8740846007D8A
:1037D00001460C9071A002F01CFB4FE072A117A8EB
:1037E00003F093FF60B900205849C8743220087470
:1037F0000846007D01460C906CA002F00AFB3DE0FB
:10380000AFF2F82002F005FB38E05048007D014699
:103810000C904FA002F0FDFA30E0FFE766A11AA875
:1038200003F073FF70B9AFF2083117A803F06DFF12
:1038300020B34648007D01460C90AFF2303002F0D4
:10384000E8FA1BE05DA11AA803F05FFF78B9AFF2B8
:10385000303117A803F059FF00B90FE03B48007D55
:1038600001460C90AFF25C3002F0D3FA06E0374824
:10387000007D01460C9053A002F0CBFA3349D1E908
:103880000401CDE9000131480FC803F082FC2F4844
:10389000C07CD0B92D48007C0A2190FBF1F201FBDD
:1038A00012000C902948007C90FBF1F10B910A4624
:1038B000AFF6C40126A80C9B04F076FD26AB0322CC
:1038C0001421312003F0DEFA0AE0AFF2184126A8F5
:1038D00004F06AFD26AB04221421312003F0D2FA51
:1038E0001A48407C0A2190FBF1F201FB12000C9077
:1038F0001648407C90FBF1F10B910A46AFF6FC01B3
:1039000026A80C9B04F050FD26AB10221421312078
:1039100003F0B8FA0D48C07C012802D1AFF60810B8
:1039200001E0AFF608100246AFF60C110C9026A885
:1039300004F03AFD26AB1D221421312003F0A2FA37
:103940000249D1E90201234A234B47E050000020FD
:103950003E25642F52454D20455252210A00000059
:10396000434700003E25642F43475F253032640AF9
:1039700000000000415454003E25642F4154545F20
:10398000253032640A000000425700003E25642FB3
:1039900042575F25730A0000310D00003E25642F59
:1039A0004147435F310A0000300D00003E25642F7F
:1039B0004147435F300A00004641000053544154E0
:1039C000555300003E25642F434D4420455252215B
:1039D0000A000000FCA9F1D24D62403FCDE9000190
:1039E00003F0D9FE0022FB4BCDE9020103F07AFF80
:1039F000CDE9040104F083F86421B0FBF1F201FB8E
:103A000012000A21B0FBF1F00C90F348C168806805
:103A1000F24AF34BCDE9000103F0BDFE0022ED4B6D
:103A2000CDE9020103F05EFFCDE9040104F067F87F
:103A30004FF47A71B0FBF1F201FB12006421B0FB8C
:103A4000F1F0E5490B90D1E90201E44AE44BCDE9FC
:103A5000000103F0A0FE0022DE4BCDE9020103F0DD
:103A600041FFCDE9040104F04AF842F21071B0FBC5
:103A7000F1F201FB12004FF47A71B0FBF1F0D6497C
:103A80000A90D1E90201D54AD54BCDE9000103F0F6
:103A900082FE0022CF4BCDE9020103F023FFCDE9E6
:103AA000040104F02CF8CF49B0FBF1F201FB120045
:103AB00042F21071B0FBF1F0C7490990D1E902015F
:103AC000C64AC74BCDE9000103F065FE0022C14B99
:103AD000CDE9020103F006FFCDE9040104F00FF87F
:103AE000C149B0FBF1F201FB1200BE49B0FBF1F09D
:103AF0000890B948C1688068B84AB94BCDE900015F
:103B000003F049FE0022B34BCDE9020103F0EAFEC7
:103B1000CDE9040103F0F3FFB449B0FBF1F201FB7E
:103B20001200B149B0FBF1F0AB490790D1E90201B5
:103B3000AA4AAB4BCDE9000103F02DFE0022A54BB4
:103B4000CDE9020103F0CEFECDE9040103F0D7FF79
:103B5000A649B0FBF1F00690DDE90A310C9A09980C
:103B6000CDE902310492019008980090AFF634310B
:103B700026A8DDE9062304F017FC26AB2A2214212F
:103B8000312003F07FF99448807C012807D1AFF6FB
:103B90002C32AFF6283126A804F006FC12E08E483D
:103BA000807C022807D1AFF63432AFF6403126A828
:103BB00004F0FAFB06E0AFF63C32AFF6503126A82F
:103BC00004F0F2FB26AB37221421312003F05AF91E
:103BD00081480078012802D1AFF6583101E0AFF6F4
:103BE00054310A460C91AFF6543126A804F0DCFBA0
:103BF00026AB3822C821312003F044F976484169C8
:103C00000069CDE9000174480FC803F0C5FB07E067
:103C10007148007D01460C90AFF2582002F0F9F88F
:103C200073480078401E724908706B48007801287C
:103C300041F023861698002841F0D4854FF4807116
:103C40006C48FDF778F9C8B94FF400716A48FDF780
:103C500072F998B94FF480616748FDF76CF968B95B
:103C60004FF400716348FDF766F938B94FF480717D
:103C70006148FDF760F9002801F0B1851598401CF6
:103C8000C1B215914FF480715A48FDF754F9C8B983
:103C90004FF400715848FDF74EF998B94FF4806120
:103CA0005548FDF748F968B94FF400715148FDF7E0
:103CB00042F938B94FF480714F48FDF73CF90028BC
:103CC00001F066861598C82841F362860020159099
:103CD0004FF480714748FDF72EF9002878D02F98CF
:103CE000062876D2DFE800F075033D8AD7FE3A4811
:103CF000C07CA8BB3398012802D0022814D109E067
:103D00003548007C282804DC3348007C0A303249DE
:103D100008740AE03048007C322804DA2E48007C1F
:103D2000401C2D49087400E000BF00BF2A48007CF9
:103D30000A2190FBF1F201FB12000C902648007C56
:103D400090FBF1F10B910A46AFF65C5126A80C9B53
:103D500004F02AFB26AB03221421312003F092F851
:103D6000F9E23298012802D0022814D109E01A4859
:103D7000407C142804DC1848407C0A3016494874FA
:103D80000AE01548407C1E2804DA1348407C401C99
:103D90001149487400E000BF00BF0F48407C0A2171
:103DA00090FBF1F201FB12000C900B48407C90FB61
:103DB000F1F10B910A46AFF6B45126A80C9B04F022
:103DC000F3FA26AB10221421312003F05BF8C2E293
:103DD000CDE2BFE20088C34050000020FCA9F1D230
:103DE0004D62403FA086010040420F00809698003F
:103DF0003000002000100140000801403198C8B395
:103E0000FE48C07C08B9012000E00020FB49C874CE
:103E10000846C07CE0B9322008740846007C0A21BC
:103E200090FBF1F201FB12000C90F448007C90FB37
:103E3000F1F10B910A46AFF6486126A80C9B04F0FD
:103E4000B3FA26AB03221421312003F01BF80AE059
:103E5000AFF6A01126A804F0A7FA26AB032214217E
:103E6000312003F00FF8E548C07C012803D1AFF6FC
:103E7000586002E00EE0AFF65C600246AFF66061AB
:103E80000C9026A804F090FA26AB1D2214213120B4
:103E900002F0F8FF5FE2309808287DD2DFE800F0FA
:103EA0007C0405315B88B3DD02E1D448C1688068D9
:103EB000D34AD44BCDE9060103F06DFC0022D24B6E
:103EC000CDE9080103F00EFDCDE90A0103F0F8FD8C
:103ED000CE4990FBF1F00A2190FBF1F201FB1200B8
:103EE000092800E0FFE10BDCC448C16880680022BB
:103EF000C74BCDE90A0103F04EFCC04AC2E90201FA
:103F0000D6E0BE48C1688068BD4ABE4BCDE9060117
:103F100003F041FC0022BC4BCDE9080103F0E2FCB8
:103F2000CDE90A0103F0CCFDBA4990FBF1F00A217A
:103F300090FBF1F201FB120009280BDCAF49D1E93B
:103F400002010022B44BCDE90A0103F024FCAB4A84
:103F5000C2E90201ACE0A948C1688068A84AA94B3F
:103F6000CDE9060103F017FC0022A74BCDE90801BB
:103F700003F0B8FCCDE90A0103F0A2FD42F2107192
:103F800090FBF1F00A2190FBF1F201FB12000928ED
:103F90000DDC9A48C16800E089E0806800229F4BF0
:103FA000CDE90A0103F0F7FB944AC2E902017FE080
:103FB0009248C1688068924A924BCDE9060103F0AD
:103FC000EAFB0022904BCDE9080103F08BFCCDE920
:103FD0000A0103F075FD4FF47A7190FBF1F00A21AC
:103FE00090FBF1F201FB120009280BDC8349D1E9B7
:103FF00002018B4A8B4BCDE90A0103F0CCFB7F4ACF
:10400000C2E9020154E07D49D1E902017C4A7D4BBD
:10401000CDE9060103F0BFFB00227B4BCDE908018F
:1040200003F060FCCDE90A0103F04AFD642190FB36
:10403000F1F00A2190FBF1F201FB120009280BDCE0
:104040006E49D1E90201784A784BCDE90A0103F0C3
:10405000A2FB6A4AC2E902012AE06848C168806896
:10406000674A684BCDE9060103F095FB0022664BD9
:10407000CDE9080103F036FCCDE90A0103F020FD8B
:10408000642190FBF1F00A2190FBF1F201FB120098
:1040900009280BDC5949D1E90201594A644BCDE9A1
:1040A0000A0103F078FB554AC2E9020100E000BFB3
:1040B00000BF5249D1E9020100225E4BCDE90A015D
:1040C00003F04EFD04D800205A494C4AC2E90201CF
:1040D0004A48C16880680022574BCDE90A0103F0C5
:1040E00027FD04D800215448444AC2E9021043483D
:1040F000C1688068424A434BCDE9000103F04BFBA5
:104100000022414BCDE9020103F0ECFBCDE90401B3
:1041100003F0D6FC642190FBF1F201FB12000A21AE
:1041200090FBF1F035490C90D1E90201344A354B4E
:10413000CDE9000103F02FFB0022334BCDE9020152
:1041400003F0D0FBCDE9040103F0BAFC4FF47A711F
:1041500090FBF1F201FB1200642190FBF1F00B9057
:104160002648C1688068264A264BCDE9000103F045
:1041700012FB0022244BCDE9020103F0B3FBCDE991
:10418000040103F09DFC42F2107190FBF1F201FB7F
:1041900012004FF47A7190FBF1F00A901748C16851
:1041A0008068174A174BCDE9000103F0F4FA0022AA
:1041B000154BCDE9020103F095FBCDE9040103F0B5
:1041C0007FFC144990FBF1F201FB120042F21071E6
:1041D00090FBF1F009490990D1E90201084A094B25
:1041E000CDE9000103F0D7FA0022074BCDE9020127
:1041F00003F078FBCDE9040120E00000500000202E
:10420000FCA9F1D24D62403F0088C34040420F00FC
:1042100000005940A0860100000024400000F03F4B
:104220009A9999999999B93F7B14AE47E17A843F5D
:104230004D62503F0094C1400046BE4003F040FC38
:10424000F94990FBF1F201FB1200F84990FBF1F003
:10425000F7490890D1E90201F64AF74BCDE9000190
:1042600003F099FA0022F54BCDE9020103F03AFB85
:10427000CDE9040103F024FCF14990FBF1F201FBCC
:104280001200E94990FBF1F00790E948C1688068A5
:10429000E84AE94BCDE9000103F07DFA0022E74B43
:1042A000CDE9020103F01EFBCDE9040103F008FC97
:1042B000E34990FBF1F00690DDE90A320C99099888
:1042C000CDE902320491019008980090DD4926A8BA
:1042D000DDE9062304F068F826AB2A2214213120F8
:1042E00002F0D0FD37E0349890B3D148807C0228AA
:1042F00003D10020CE49887404E0CD48807C401C66
:10430000CB498874CA48807C012807D1CD4A28321D
:1043100002F1080126A804F047F812E0C448807CA6
:10432000022807D1C74A3832A2F1080126A804F0B2
:104330003BF806E0C34A4032A2F1100126A804F07F
:1043400033F826AB37221421312002F09BFD02E026
:10435000FFE700BF00BF00BFB54841690069CDE974
:104360000001B3480FC802F014FF01F035BA4FF452
:104370000071B548FCF7DFFD002879D02F9806289A
:1043800077D2DFE800F076033D77C3F7A848C07C1A
:10439000A8BB3398012802D0022814D109E0A44810
:1043A000007C0A2804DBA248007C0A38A049087473
:1043B0000AE09F48007C002804DD9D48007C401EE8
:1043C0009B49087400E000BF00BF9948007C0A21A7
:1043D00090FBF1F201FB12000C909548007C90FBE1
:1043E000F1F10B910A4697494C3926A80C9B03F032
:1043F000DBFF26AB03221421312002F043FDDBE278
:104400003298012802D0022814D109E08848407C63
:104410000A2804DB8648407C0A38854948740AE04B
:104420008348407C002804DD8148407C401E804950
:10443000487400E000BF00BF7D48407C0A2190FB2B
:10444000F1F201FB12017A480C91407C0A2190FBA9
:10445000F1F10B910A467B49383926A80C9B03F0F1
:10446000A3FF26AB10221421312002F00BFDA3E2A2
:10447000ADE2A0E23198C0B36D48C07C08B901201C
:1044800000E000206A49C8740846C07CE0B93220C8
:1044900008740846007C0A2190FBF1F201FB12002F
:1044A0000C906348007C90FBF1F10B910A46654942
:1044B0004C3926A80C9B03F077FF26AB032214216E
:1044C000312002F0DFFC09E0604926A803F06CFF10
:1044D00026AB03221421312002F0D4FC5448C07CC6
:1044E000012803D15748243802E00EE0554820380F
:1044F000024654491C390C9026A803F055FF26AB00
:104500001D221421312002F0BDFC55E2309808280C
:104510007ED2DFE800F07D0405305BA5CFF91BE11A
:104520004348C1688068434A434BCDE9060103F024
:1045300032F90022464BCDE9080103F0D3F9CDE969
:104540000A0103F0BDFA394990FBF1F00A2190FB12
:10455000F1F201FB120000280BDB3549D1E9020121
:1045600000223C4BCDE90A0103F0B6F9304AC2E91A
:104570000201F1E0E9E12E49D1E902012D4A2E4B79
:10458000CDE9060103F007F90022314BCDE908011E
:1045900003F0A8F9CDE90A0103F092FA42F2107192
:1045A00090FBF1F00A2190FBF1F201FB12000028D0
:1045B0000BDB1F48C16880680022274BCDE90A0148
:1045C00003F08AF91A4AC2E90201C5E01848C16835
:1045D0008068184A184BCDE9060103F0DCF8002288
:1045E0001B4BCDE9080103F07DF9CDE90A0103F089
:1045F00067FA4FF47A7190FBF1F00A2190FBF1F227
:1046000001FB120000280DDB0948C168806800E04A
:10461000A1E00022114BCDE90A0103F05DF9044A43
:10462000C2E9020198E0000040420F00A0860100AC
:1046300050000020FCA9F1D24D62403F0088C340E9
:10464000809698003C30000800080140B43400080F
:1046500000408F4000005940000024400000F03F1F
:10466000F948C1688068F94AF94BCDE9060103F0C1
:1046700092F80022F74BCDE9080103F033F9CDE9B8
:104680000A0103F01DFA642190FBF1F00A2190FB6E
:10469000F1F201FB120000280BDBEB48C1688068D7
:1046A000ED4AEE4BCDE90A0103F016F9E64AC2E9FC
:1046B000020151E0E448C1688068E44AE44BCDE976
:1046C000060103F068F80022E24BCDE9080103F08F
:1046D00009F9CDE90A0103F0F3F90A2190FBF1F0A1
:1046E00090FBF1F201FB120000280BDBD648C168F9
:1046F0008068DB4ADB4BCDE90A0103F0EDF8D24AD2
:10470000C2E9020128E0FFE7CF48C1688068CF4ACC
:10471000CF4BCDE9060103F03EF80022CD4BCDE9A9
:10472000080103F0DFF8CDE90A0103F0C9F90A2115
:1047300090FBF1F201FB120000280BDBC248C168BC
:104740008068C24AC84BCDE90A0103F0C5F8BE4AE9
:10475000C2E9020100E000BF00BFBB48C168806839
:104760000022C24BCDE90A0103F0FAF904D8002176
:10477000BE48B54AC2E90210B348C1688068002249
:10478000BB4BCDE90A0103F0D3F904D80020B849A6
:10479000AD4AC2E90201AC48C1688068AB4AAC4B83
:1047A000CDE9000102F0F7FF0022B24BCDE9020192
:1047B00003F098F8CDE9040103F082F9642190FB3D
:1047C000F1F201FB12000A2190FBF1F00C909E48DF
:1047D000C16880689D4A9E4BCDE9000102F0DBFF75
:1047E0000022A44BCDE9020103F07CF8CDE90401DD
:1047F00003F066F94FF47A7190FBF1F201FB1200BD
:10480000642190FBF1F00B908F48C16880688F4A5B
:104810008F4BCDE9000102F0BEFF0022954BCDE9A0
:10482000020103F05FF8CDE9040103F049F942F217
:10483000107190FBF1F201FB12004FF47A7190FBC2
:10484000F1F00A908048C1688068804A804BCDE9C9
:10485000000102F0A0FF0022864BCDE9020103F027
:1048600041F8CDE9040103F02BF9834990FBF1F203
:1048700001FB120042F2107190FBF1F009907248B6
:10488000C1688068714A724BCDE9000102F083FF74
:104890000022784BCDE9020103F024F8CDE90401B0
:1048A00003F00EF9754990FBF1F201FB1200724919
:1048B00090FBF1F008906448C1688068634A644BDB
:1048C000CDE9000102F067FF00226A4BCDE9020149
:1048D00003F008F8CDE9040103F0F2F8684990FB11
:1048E000F1F201FB1200654990FBF1F05649079087
:1048F000D1E90201554A564BCDE9000102F04BFFC8
:1049000000225C4BCDE9020102F0ECFFCDE904018D
:1049100003F0D6F85A4990FBF1F10691DDE90A322D
:104920000C990998CDE90232049101900898009001
:10493000544926A8DDE9062303F036FD26AB2A22DA
:104940001421312002F09EFA36E0349888B33E48B4
:10495000807C18B902203C49887404E03A48807C85
:10496000401E394988743848807C012807D1454A5F
:10497000283202F1080126A803F016FD12E03248A1
:10498000807C022807D13F4A3832A2F1080126A8CC
:1049900003F00AFD06E03B4A4032A2F1100126A8CE
:1049A00003F002FD26AB37221421312002F06AFA0F
:1049B00002E0FFE700BF00BF00BF23484169006974
:1049C000CDE9000120480FC802F0E3FBCDE44FF42D
:1049D00080612D48FCF7AFFA00287DD02F9806287B
:1049E0007BD2DFE800F07A038FF9F7F63398401EA8
:1049F00041B233913398002812DC0B2003460F227A
:104A000011460090002001F0EAFD0B200346112220
:104A100011460090002001F0E2FD0320339070E089
:104A20003398012832D10B20034611221146009001
:104A3000002001F0D4FD0B2003460F221146009008
:104A4000FF2001F0CCFD5CE050000020FCA9F1D279
:104A50004D62403F00408F409A9999999999B93F8A
:104A60007B14AE47E17A843F4D62503F0094C140D1
:104A70000046BE400088C340A086010040420F00AF
:104A8000809698003C3000080008014033980228C6
:104A900010D10B2003460F2211460090002001F098
:104AA0009EFD0B200346112211460090FF2001F0CD
:104AB00096FD26E03398032813D10B2003460F22DE
:104AC00011460090002001F08AFD0B2003461122C0
:104AD00011460090002001E0CDE2CAE201F07FFD26
:104AE0000FE00B2003460F2211460090002001F03A
:104AF00076FD0B200346112211460090002001F0A4
:104B00006EFDB7E23298401E41B2329132980028D1
:104B100012DC182003460F2211460090002001F0FD
:104B20005EFD18200346112211460090002001F07E
:104B300056FD032032904BE03298012810D1182006
:104B40000346112211460090002001F048FD182074
:104B500003460F2211460090FF2001F040FD37E090
:104B60003298022810D1182003460F2211460090D7
:104B7000002001F034FD1820034611221146009058
:104B8000FF2001F02CFD23E03298032810D11820DB
:104B900003460F2211460090002001F020FD18204E
:104BA0000346112211460090002001F018FD0FE08D
:104BB000182003460F2211460090002001F00FFD3F
:104BC00018200346112211460090002001F007FD35
:104BD00050E234E21AE0FFE7319808B9012100E021
:104BE00000213191319840B12520034613220F2135
:104BF0000090FF2001F0F3FC07E02520034613227C
:104C00000F210090002001F0EAFC33E2309808B94F
:104C1000082030903098401E41B2309130980828DA
:104C200077D2DFE800F0043D77B0E9FDFCFB3220ED
:104C300003460F2211460090002001F0D0FC3220E4
:104C40000346112211460090002001F0C8FC3220DA
:104C50000346132211460090002001F0C0FC3220D0
:104C60000346152211460090002001F0B8FC3220C6
:104C70000346192211460090002001F0B0FC3220BA
:104C800003461B2211460090002001F0A8FC3220B0
:104C900003461D2211460090002001F0A0FCCCE14B
:104CA000322003460F2211460090FF2001F097FCAE
:104CB00032200346112211460090002001F08FFCA3
:104CC00032200346132211460090002001F087FC99
:104CD00032200346152211460090002001F07FFC8F
:104CE00032200346192211460090002001F077FC83
:104CF000322003461B2211460090002001F06FFC79
:104D0000322003461D2211460090002001F067FC6E
:104D100093E159E1322003460F2211460090002012
:104D200001F05DFC32200346112211460090FF2065
:104D300001F055FC3220034613221146009000205A
:104D400001F04DFC32200346152211460090002050
:104D500001F045FC32200346192211460090002044
:104D600001F03DFC322003461B221146009000203A
:104D700001F035FC322003461D2211460090002030
:104D800001F02DFC59E1322003460F22114600901C
:104D9000002001F024FC322003461122114600902D
:104DA000002001F01CFC3220034613221146009023
:104DB000FF2001F014FC322003461522114600901A
:104DC000002001F00CFC322003461922114600900D
:104DD000002001F004FC322003461B221146009003
:104DE000002001F0FCFB322003461D2211460090FA
:104DF000002001F0F4FB20E1322003460F2211468F
:104E00000090002001F0EBFB3220034611221146F6
:104E10000090002001F0E3FB322002E09BE061E023
:104E200027E00346132211460090002001F0D7FB33
:104E300032200346152211460090FF2001F0CFFBDF
:104E400032200346192211460090002001F0C7FBD2
:104E5000322003461B2211460090002001F0BFFBC8
:104E6000322003461D2211460090002001F0B7FBBE
:104E7000E3E0322003460F2211460090002001F0AB
:104E8000AEFB32200346112211460090002001F0B3
:104E9000A6FB32200346132211460090002001F0A9
:104EA0009EFB32200346152211460090002001F09F
:104EB00096FB32200346192211460090FF2001F094
:104EC0008EFB322003461B2211460090002001F089
:104ED00086FB322003461D2211460090002001F07F
:104EE0007EFBAAE0322003460F22114600900020EC
:104EF00001F075FB3220034611221146009000207C
:104F000001F06DFB32200346132211460090002071
:104F100001F065FB32200346152211460090002067
:104F200001F05DFB3220034619221146009000205B
:104F300001F055FB322003461B2211460090FF2052
:104F400001F04DFB322003461D2211460090002047
:104F500001F045FB71E0322003460F22114600901C
:104F6000002001F03CFB3220034611221146009044
:104F7000002001F034FB322003461322114600903A
:104F8000002001F02CFB3220034615221146009030
:104F9000002001F024FB3220034619221146009024
:104FA000002001F01CFB322003461B22114600901A
:104FB000002001F014FB322003461D221146009010
:104FC000FF2001F00CFB38E0322003460F2211468F
:104FD0000090002001F003FB32200346112211460D
:104FE0000090002001F0FBFA322003461322114604
:104FF0000090002001F0F3FA3220034615221146FA
:105000000090002001F0EBFA3220034619221146ED
:105010000090002001F0E3FA322003461B221146E3
:105020000090002001F0DBFA322003461D221146D9
:105030000090002001F0D3FA00BF00BF1AE03498BE
:1050400008B9012100E000213491349840B13F209B
:1050500003461A220F210090FF2001F0C0FA07E05A
:105060003F2003461A220F210090002001F0B7FADA
:1050700000E000BFB0E34FF40071FE48FBF75BFFB8
:10508000002872D02F98062870D2DFE800F06F0356
:1050900056ABC5FD3398401C41B23391339801287B
:1050A00010D10B200346112211460090002001F080
:1050B00096FA0B2003460F2211460090FF2001F0C4
:1050C0008EFA39E03398022810D10B2003460F22C4
:1050D00011460090002001F082FA0B2003461122B5
:1050E00011460090FF2001F07AFA25E0339803285A
:1050F00012DB0B2003460F2211460090002001F026
:105100006EFA0B200346112211460090002001F098
:1051100066FA002033900FE00B2003460F22114661
:105120000090002001F05BFA0B200346112211468B
:105130000090002001F053FAA8E23298401C41B2DE
:1051400032913298012812D11820034611221146BB
:105150000090002001F043FA182003460F22114668
:105160000090FF2001F03BFA3BE090E28DE23298A4
:10517000022810D1182003460F221146009000206B
:1051800001F02DFA18200346112211460090FF204D
:1051900001F025FA25E03298032812DB1820034697
:1051A0000F2211460090002001F019FA1820034642
:1051B000112211460090002001F011FA00203290D7
:1051C0000FE0182003460F2211460090002001F046
:1051D00006FA18200346112211460090002001F023
:1051E000FEF953E2319808B9012100E00021319124
:1051F000319840B12520034613220F210090FF2053
:1052000001F0EDF907E02520034613220F2100905D
:10521000002001F0E4F939E23098401C41B23091AD
:105220003098082801D1002030903098082879D291
:10523000DFE800F0043F79B2EFEDECEB32200346FB
:105240000F2211460090002001F0C9F932200346D8
:10525000112211460090002001F0C1F932200346CE
:10526000132211460090002001F0B9F932200346C4
:10527000152211460090002001F0B1F932200346BA
:1052800019221146009000E0E5E1002001F0A7F9A5
:10529000322003461B2211460090002001F09FF9A6
:1052A000322003461D2211460090002001F097F99C
:1052B000CFE1322003460F2211460090FF2001F07B
:1052C0008EF932200346112211460090002001F091
:1052D00086F932200346132211460090002001F087
:1052E0007EF932200346152211460090002001F07D
:1052F00076F932200346192211460090002001F071
:105300006EF9322003461B2211460090002001F066
:1053100066F9322003461D2211460090002001F05C
:105320005EF996E15CE1322003460F2211460090BF
:10533000002001F054F9322003461122114600905A
:10534000FF2001F04CF93220034613221146009051
:10535000002001F044F93220034615221146009046
:10536000002001F03CF9322003461922114600903A
:10537000002001F034F9322003461B221146009030
:10538000002001F02CF9322003461D221146009026
:10539000002001F024F95CE1322003460F2211467F
:1053A0000090002001F01BF9322003461122114623
:1053B0000090002001F013F9322003461322114619
:1053C0000090FF2001F00BF9322003461522114610
:1053D0000090002001F003F9322003461922114603
:1053E0000090002001F0FBF8322003461B221146FA
:1053F0000090002001F0F3F8322003461D221146F0
:105400000090002001F0EBF823E1B0E076E03CE012
:10541000FFE7322003460F2211460090002001F0E2
:10542000DEF832200346112211460090002001F0E0
:10543000D6F832200346132211460090002001F0D6
:10544000CEF832200346152211460090FF2001F0CD
:10545000C6F832200346192211460090002001F0C0
:10546000BEF8322003461B2211460090002001F0B6
:10547000B6F801E000100140322003461D2211461B
:105480000090002001F0ABF8E3E0322003460F2249
:1054900011460090002001F0A2F8322003461122AC
:1054A00011460090002001F09AF8322003461322A2
:1054B00011460090002001F092F832200346152298
:1054C00011460090002001F08AF83220034619228C
:1054D00011460090FF2001F082F8322003461B2283
:1054E00011460090002001F07AF8322003461D2278
:1054F00011460090002001F072F8AAE03220034625
:105500000F2211460090002001F069F83220034676
:10551000112211460090002001F061F8322003466C
:10552000132211460090002001F059F83220034662
:10553000152211460090002001F051F83220034658
:10554000192211460090002001F049F8322003464C
:105550001B2211460090FF2001F041F83220034643
:105560001D2211460090002001F039F871E0322030
:1055700003460F2211460090002001F030F832203F
:105580000346112211460090002001F028F8322035
:105590000346132211460090002001F020F832202B
:1055A0000346152211460090002001F018F8322021
:1055B0000346192211460090002001F010F8322015
:1055C00003461B2211460090002001F008F832200B
:1055D00003461D2211460090FF2001F000F838E03C
:1055E000322003460F2211460090002000F0F7FF02
:1055F00032200346112211460090002000F0EFFFF8
:1056000032200346132211460090002000F0E7FFED
:1056100032200346152211460090002000F0DFFFE3
:1056200032200346192211460090002000F0D7FFD7
:10563000322003461B2211460090002000F0CFFFCD
:10564000322003461D2211460090002000F0C7FFC3
:1056500000BF00BF1AE0349808B9012100E0002122
:105660003491349840B13F2003461A220F21009014
:10567000FF2000F0B4FF07E03F2003461A220F216D
:105680000090002000F0ABFF00E000BFA4E04FF46A
:105690008071C248FBF74FFCF0B31398E0BB2F9822
:1056A000401C41B22F910B2003460F22114600905F
:1056B000002000F094FF0B200346112211460090B9
:1056C000002000F08CFF182003460F2211460090A6
:1056D000002000F084FF182003461122114600909C
:1056E000002000F07CFF2520034613220F210090AC
:1056F000002000F074FF322003460F221146009074
:10570000002000F06CFF3220034611221146009069
:10571000002000F064FF00E05EE032200346132228
:1057200011460090002000F05AFF32200346152257
:1057300011460090002000F052FF3220034619224B
:1057400011460090002000F04AFF322003461B2241
:1057500011460090002000F042FF322003461D2237
:1057600011460090002000F03AFF3F2003461A2225
:105770000F210090002000F032FF2F98002826DD36
:10578000DDE92E10884222D02F9801280DDD2F98B8
:10579000401E00EB800101EBC0000A3880A30246E6
:1057A0000F210C90312001F06DFB2F9806280CDAA8
:1057B0002F9800EB800101EBC0000A3879A3024664
:1057C0000F210C90312001F05DFB2F982E902F9827
:1057D000062801D100202F9001201690D8E000204B
:1057E0001590D5E04FF480716F48FBF7A4FB80BBA8
:1057F0004FF400716948FBF79EFB50BB4FF480618A
:105800006648FBF798FB20BB4FF400716648FBF736
:1058100092FBF0B94FF480716048FBF78CFBC0B984
:105820004FF480716048FBF786FB70B94FF400714C
:105830005A48FBF780FB40B95C4841690069CDE9F3
:1058400000015A480FC801F0A7FD002116911491DC
:105850009EE0FFE74FF480715048FBF76CFB18B1F6
:105860001498401C149001E00020149050491498A2
:10587000884201D9012013908AE01698E8BB4FF4C2
:1058800080714948FBF757FBB8B94FF400714348A2
:10589000FBF751FB88B94FF480614048FBF74BFBA5
:1058A00058B94FF400714048FBF745FB28B94FF455
:1058B00080713A48FBF73FFBA8B31598401CC1B272
:1058C00015914FF480713848FBF735FBC8B94FF498
:1058D00000713248FBF72FFB98B94FF480612F48D5
:1058E000FBF729FB68B94FF400712F48FBF723FB46
:1058F00038B94FF48071294800E029E0FBF71BFB21
:1059000010B31598C82843DD00201590274800786B
:10591000012817D001202549087008460078012881
:1059200002D1244802E010E022480830024622A1B9
:105930000C9026A802F038FD26AB3822C821312071
:1059400001F0A0FA0120169022E0002015901FE03F
:105950004FF480711448FBF7EEFAC8B94FF40071A8
:105960000E48FBF7E8FA98B94FF480610B48FBF753
:10597000E2FA68B94FF400710B48FBF7DCFA38B96A
:105980004FF480710548FBF7D6FA08B9002016904D
:105990004AF6AA2009490860FDF77EBB00080140CD
:1059A000200000002D0000000010014050000020E9
:1059B00020A107008430000825730000003000405B
:1059C000704700BFFEE700BFFEE700BFFEE700BF75
:1059D000FEE77047704770477047000010B54FF4FE
:1059E000A060FAF7B1FC10BD10B54FF458718048B3
:1059F000FDF708F860B17E4800887E4908707C4851
:105A0000001D008808704FF458717948FDF724F89C
:105A100040F225517648FCF7F5FF28B37648007828
:105A20000A2819DA7248001D0088C1B2734802784A
:105A30000078401C714B18707148815400204FF061
:105A400080418884012211469007FCF758FB012110
:105A50008807FCF739FB03E06A480088654908704D
:105A60004FF6DF706249088010BD10B5012188072C
:105A7000FCF7F3FD38B361480078002811DD624976
:105A8000096808685E4901F04EFE00205B49087015
:105A900059480078401C584908704021584801F086
:105AA00022FE00204FF080418884002201218807D7
:105AB000FCF725FB00214FF08040FCF705FB01219E
:105AC0008807FCF7DBFD10BD10B54FF48030FAF706
:105AD00047FE48B10420FBF757FB0420FBF75EFBB1
