:020000040800F2
:10000000301100204501000851300008533000082D
:10001000573000085B3000085F3000080000000027
:100020000000000000000000000000006330000835
:1000300065300008000000006730000869300008E3
:100040005F010008593100085F0100085F010008E6
:100050005F0100085F0100085F0100085F01000800
:100060005F0100085F0100085F0100085F010008F0
:100070005F0100085F0100085F0100085F010008E0
:100080005F0100085F0100085F0100085F010008D0
:100090005F0100085F0100085F0100085F010008C0
:1000A0005F0100085F0100085F0100085F010008B0
:1000B000FB3000085F0100085F0100085F010008D5
:1000C0005F0100085F0100085F0100087B31000844
:1000D000FD310008793000085F0100085F01000869
:1000E0005F0100085F0100085F0100085F01000870
:1000F0005F0100085F0100085F0100085F01000860
:100100005F0100085F0100085F0100085F0100084F
:100110005F0100085F0100085F0100085F0100083F
:100120005F0100085F0100085F0100085F0100082F
:10013000DFF80CD005F086F800480047152B0008C2
:10014000301100200648804706480047FEE7FEE7DA
:10015000FEE7FEE7FEE7FEE7FEE7FEE7FEE7FEE777
:1001600047020008310100080CB500200190009002
:100170006C48006840F480306A49086000BF6948F4
:10018000006800F4003000900198401C0190009835
:1001900018B90198B0F5A06FF1D16248006800F479
:1001A000003010B10120009001E000200090009884
:1001B000012843D15C48006840F010005A490860AB
:1001C0000846006820F0030008600846006840F018
:1001D0000200086053484068524948600846406839
:1001E00048600846406840F48060486008464068BF
:1001F00020F47C1048600846406840F4E8104860ED
:100200000846006840F08070086000BF45480068FC
:1002100000F000700028F9D04248406820F0030048
:10022000404948600846406840F00200486000BF0E
:100230003C48406800F00C000828F9D10CBD10B50E
:10024000FFF792FF10BD10B53648006840F001007E
:1002500034490860084640683449084031494860DC
:1002600008460068324908402E4908600846006880
:1002700020F4802008600846406820F4FE004860B2
:100280004FF41F008860FFF7DAFF4FF00060294944
:10029000086010BD10B5002100200022214B5B68D2
:1002A00003F00C0121B1042906D0082928D107E068
:1002B000214B224C236027E01F4B204C236023E07E
:1002C000184B5B6803F47010164B5B6803F48032C4
:1002D000022303EB904022B9194B4343174C236090
:1002E0000DE0104B5B6803F4003323B1144B434320
:1002F000124C236003E0104B4343104C236003E097
:100300000D4B0E4C236000BF00BF064B5B68C3F370
:1003100003130C4CE15C094B1B68CB40074C23607A
:1003200010BD000000100240002002400000FFF855
:10033000FFFFF6FE08ED00E000127A00000000204A
:1003400000093D000400002031490143314A116099
:10035000704770B5002100230F22C47804B32D4CE0
:10036000246804F4E064C4F5E064210AC1F10403E4
:10037000CA40447804FA03F1847814402143090107
:10038000254C0678A155047804F01F050124AC40E3
:1003900005786D11AD0005F1E025C5F8004109E0D3
:1003A000047804F01F050124AC401C4D067876113A
:1003B00045F8264070BD1A4A0A400243154B1B1FE0
:1003C0001A60704739B1134A121D12680243114B6B
:1003D0001B1D1A6006E00F4A121D126882430D4B66
:1003E0001B1D1A607047042808D14FF0E0210969ED
:1003F00041F004014FF0E022116107E04FF0E021ED
:10040000096921F004014FF0E022116170470000FA
:100410000000FA050CED00E000E400E080E100E0FF
:1004200080FFFF1F01684FF6FE721140016000213E
:10043000016041608160C1608D49884208D18C496A
:100440000839496841F00F01894A083A51608AE049
:1004500087491431884208D185490839496841F0F3
:10046000F001834A083A51607DE081492831884291
:1004700008D17F490839496841F470617C4A083ADB
:10048000516070E07A493C31884208D17849083996
:10049000496841F47041764A083A516063E0744912
:1004A0005031884208D172490839496841F47021B5
:1004B0006F4A083A516056E06D496431884208D16C
:1004C0006B490839496841F47001694A083A51603A
:1004D00049E067497831884208D165490839496857
:1004E00041F07061624A083A51603CE061498842DB
:1004F00006D1011F096841F00F01021F116032E0AF
:100500005C491431884208D15A49091F096841F0F1
:10051000F001584A121F116025E0564928318842DF
:1005200008D15449091F096841F47061514A121FEA
:10053000116018E04F493C31884208D14D49091FEC
:10054000096841F470414B4A121F11600BE04949A0
:100550005031884207D14749091F096841F4702189
:10056000444A121F1160704710B50022026847F616
:10057000F0739A430C6A8B6823430C6923434C69DC
:1005800023438C692343CC6923434C6A23438C6AFD
:1005900023431A430260CB6843600B6883604B6857
:1005A000C36010BD0021016041608160C1600161D4
:1005B00041618161C161016241628162704721B123
:1005C000026842F00102026004E002684FF6FE7326
:1005D0001A40026070471AB103680B43036002E0DF
:1005E00003688B4303607047416070470146486869
:1005F00080B2704701460020002201F080531BB1F9
:100600001C4B083B1A6802E0194B083B1A6802EAC7
:1006100001030BB1012000E00020704700F0805181
:1006200019B11449091F086002E0114908394860EE
:10063000704701460020002201F080531BB10D4B92
:10064000083B1A6802E00A4B083B1A6802EA0103F9
:100650000BB1012000E00020704700F0805119B17B
:100660000449091F086002E00149083948607047E1
:100670000800024008040240002044490860091DA7
:100680000860091D0860091D086041483F49143190
:100690000860704700213D498279002A3AD00A4615
:1006A000126803689A430B461A600A1D12680368B1
:1006B0009A430B1D1A60027911440A6803681A43B1
:1006C0000A60324A0832126803689A432F4B083393
:1006D0001A601A1D126803689A432C4B0C331A6077
:1006E0004279102A0ED11A1F126803681A43274B49
:1006F00008331A601A1D126803681A43234B0C331F
:100700001A600DE02149427911440A6803681A43CE
:100710000A6005E0027911440A6803689A430A6096
:1007200070470021016001710C214171002181712C
:1007300070471649103109680143144A103211609C
:10074000704701460020114A143212680A400AB16B
:10075000012000E0002070470C4914310860704708
:10076000014600200022094B1B6803EA0102074BE7
:1007700014331B680B4013B10AB1012000E00020C4
:1007800070470249143108607047000000040140BE
:10079000FFFF0F0001460020FE4A106800F03800FD
:1007A000084310607047FB49096821F00801F94AC5
:1007B000116011460968014311607047F5490968E5
:1007C00021F01001F34A11601146096801431160DC
:1007D0007047F148EF494860F04848607047EE487C
:1007E000EC494860ED4848607047EA48006940F0CD
:1007F0008000E84908617047E648006940F08000E1
:10080000E449086170470420E249C96801F0010128
:1008100009B101200EE0DF49C96801F0040109B106
:10082000022007E0DB49C96801F0100109B103208B
:1008300000E00420704700B502460423FFF7E3FF01
:10084000034603E0FFF7DFFF0346521E012B01D1F1
:10085000002AF7D102B90523184600BD30B5044679
:1008600004254FF43020FFF7E6FF0546042D17D18D
:10087000C848006940F00200C64908610846446162
:10088000006940F0400008614FF43020FFF7D3FFCB
:100890000546C048006941F6FD710840BD49086140
:1008A000284630BD10B504244FF43020FFF7C3FFB5
:1008B0000446042C16D1B748006940F00400B5493D
:1008C00008610846006940F0400008614FF430209C
:1008D000FFF7B1FF0446AF48006941F6FB710840DD
:1008E000AC490861204610BD00B502460423FFF75D
:1008F0008AFF034603E0FFF786FF0346521E012BE3
:1009000001D1002AF7D102B90523184600BD10B560
:1009100004244FF43020FFF7E7FF0446042C16D1DF
:100920009C48006940F004009A4908610846006943
:1009300040F0400008614FF43020FFF7D5FF044637
:100940009448006941F6FB710840924908612046CD
:1009500010BD00208F49C96901F0020109B10120D1
:1009600000E00020704730B5A5250424FFF7F1FF13
:1009700000B100254FF43020FFF75DFF0446042C42
:100980003AD1854883498860844888600846006970
:1009900040F0200008610846006940F0400008610E
:1009A0004FF43020FFF747FF0446042C1BD1794851
:1009B000006941F6DF710840764908610846006920
:1009C00040F01000086176480580E002FFF733FF31
:1009D0000446052C10D06F48006941F6EF710840BD
:1009E0006C49086108E0052C06D06A48006941F6A8
:1009F000EF71084067490861204630BD78B506466A
:100A00000C46042500200090E802FFF714FF05467D
:100A1000042D24D15F48006940F001005D49086160
:100A20003480E802FFF707FF0546042D10D1B01C03
:100A30000090200C00990880E802FFF7FCFE0546B4
:100A40005448006941F6FE7108405249086106E0C9
:100A50005048006941F6FE7108404E490861284639
:100A600078BD70B504460D460426F002FFF7E3FE9C
:100A70000646042E11D14748006940F0010045495F
:100A800008612580F002FFF7D6FE0646414800695E
:100A900041F6FE7108403F490861304670BD70B5AF
:100AA00005460E460424E002FFF7C5FE0446042C6A
:100AB00017D1394837498860384888600846006946
:100AC00040F0100008612E80E002FFF7B4FE0446FB
:100AD000052C06D02F48006941F6EF7108402D49DA
:100AE0000861204670BD2DE9F04304464FF6FF76BD
:100AF0003746B046B1460425E443E6B2C4F30727BF
:100B0000C4F307484FEA1469E802FFF794FE05466C
:100B1000042D49D120481F49886020488860084634
:100B2000006940F010000861FF2E06D01C48083014
:100B30000680E802FFF77FFE0546042D08D1FF2F4F
:100B400006D017480A300780E802FFF774FE054612
:100B5000042D0AD1B8F1FF0F07D011480C30A0F8CE
:100B60000080E802FFF767FE0546042D0AD1B9F1BF
:100B7000FF0F07D00A480E30A0F80090E802FFF7F8
:100B80005AFE0546052D0FD00248006941F6EF7167
:100B9000084007E00020024023016745AB89EFCD04
:100BA00000F8FF1F664908612846BDE8F08330B5AC
:100BB000054604244FF43020FFF73DFE0446042C84
:100BC00041D160485E4988605F4888600846006996
:100BD00040F0200008610846006940F040000861CC
:100BE0004FF43020FFF727FE0446042C22D154484E
:100BF000006941F6DF710840514908610846006903
:100C000040F0100008611DB100205049088002E04A
:100C1000A5204E4908804FF43020FFF70CFE044613
:100C2000052C10D04648006941F6EF710840444950
:100C3000086108E0052C06D04148006941F6DF71E3
:100C400008403F490861204630BDF0B505460E46D4
:100C5000174604243B483A4988603B488860E002D4
:100C6000FFF7E9FD0446042C19D13548006940F02E
:100C700010003349086147F0F800304328433349F6
:100C8000891C0880E002FFF7D6FD0446052C06D03B
:100C90002B48006941F6EF71084029490861204658
:100CA000F0BD2748C069800870472548006A704732
:100CB00000202349096801F0200109B1012000E06A
:100CC0000020704729B11E4A126902431C4B1A6169
:100CD00004E01B4A12698243194B1A6170470146AE
:100CE0000020012908D1164AD26902F001020AB196
:100CF000012008E0002006E0114AD2680A400AB14B
:100D0000012000E0002070470D49C86070470420B2
:100D10000B49C96801F0010109B101200EE0084941
:100D2000C96801F0040109B1022007E00449C9685B
:100D300001F0100109B1032000E004207047000019
:100D40000020024023016745AB89EFCD00F8FF1F6B
:100D500010B50446CC48844208D10121042000F09B
:100D6000B3FB0021042000F0AFFB46E0C7488442FB
:100D700008D10121082000F0A7FB0021082000F085
:100D8000A3FB3AE0C248844208D10121102000F0C0
:100D90009BFB0021102000F097FB2EE0BD48844211
:100DA00008D10121202000F08FFB0021202000F03D
:100DB0008BFB22E0B848844208D10121402000F09A
:100DC00083FB0021402000F07FFB16E0B348844203
:100DD00008D10121802000F077FB0021802000F065
:100DE00073FB0AE0AE48844207D10121801500F070
:100DF0006BFB0021A01500F067FB10BD10B50121B1
:100E0000084600F061FB0021012000F05DFB10BDF1
:100E10002DE9F04102460025002600200023002491
:100E2000002791F803C00CF00F0591F803C00CF0F7
:100E3000100CBCF1000F03D091F802C04CEA05057C
:100E400091F800C0BCF1000F31D0146800202BE0F5
:100E50004FF0010C0CFA00F3B1F800C00CEA0306E5
:100E60009E4220D183004FF00F0C0CFA03F7BC43D5
:100E700005FA03FC4CEA040491F803C0BCF1280F06
:100E800006D14FF0010C0CFA00FCC2F814C00AE0C5
:100E900091F803C0BCF1480F05D14FF0010C0CFADA
:100EA00000FCC2F810C0401C0828D1D31460B1F86F
:100EB00000C0BCF1FF0F34DD546800202EE000F1CB
:100EC000080C4FF0010808FA0CF3B1F800C00CEA66
:100ED00003069E4221D183004FF00F0C0CFA03F75A
:100EE000BC4305FA03FC4CEA040491F803C0BCF1CE
:100EF000280F05D100F1080C08FA0CF8C2F814808C
:100F000091F803C0BCF1480F07D100F1080C4FF075
:100F1000010808FA0CF8C2F81080401C0828CED34B
:100F20005460BDE8F0814FF6FF71018002218170AD
:100F30000421C17070470246002093680B400BB13A
:100F4000012000E0002070470146886880B27047A9
:100F500002460020D3680B400BB1012000E00020C6
:100F600070470146C86880B27047016170474161AF
:100F700070470AB1016100E041617047C16070478C
:100F80004FF480320A4382618161826182698269A1
:100F9000704702460020434B18684FF68073184094
:100FA00040EA021008433F4B186070473E49C86151
:100FB0007047F0B50A46002300240021002500F008
:100FC0000046B6F1004F02D1364EF16901E0354ED0
:100FD0007168C0F3034583B200F44016B6F5401FB4
:100FE00008D121F070612F4E766826F070662D4F83
:100FF0007E6012E000F48016B6F5801F06D103264D
:1010000006FA05F4A14341F0706106E0460D360191
:1010100003FA06F6B14341F0706122B1460D360184
:1010200003FA06F6314300F00046B6F1004F02D154
:101030001C4EF16101E01B4E7160F0BD30B5002225
:101040008B071C0F0F2303FA04F2164B08338C1086
:1010500053F824309343134C08348D1044F8253052
:1010600023468C1053F824308C07240F00FA04F424
:1010700023430C4C08348D1044F8253030BD0A4908
:10108000DC3108607047000000080140000C01409E
:10109000001001400014014000180140001C0140F4
:1010A0000020014000000140000020420E4908607D
:1010B00070470D49486070470B49886070474AF691
:1010C000AA200949086070474CF6CC4006490860E0
:1010D000704701460020044AD2680A400AB1012044
:1010E00000E00020704700000030004010B50121F2
:1010F000080700F0F6F900214FF0805000F0F1F9F8
:1011000010BD2A49086270472849086170470146A6
:101110000020274A106820F0E00008431060704764
:101120002249A0310860704710B502460020204BCC
:10113000186820F00300104318601E4B1B6843F032
:1011400004031C4C2360012901D130BF00E020BF03
:10115000184B1B6823F00403164C236010BD144881
:10116000006840F00400124908600846006840F03A
:10117000020008600F48006840F004000D49086054
:1011800000BF00BF30BF704701460020084A5268C8
:101190000A400AB1012000E00020704704490968B4
:1011A00041EA8001024A11607047000000000E42CF
:1011B0000070004010ED00E0DF48006840F00100E2
:1011C000DD49086008464068DC490840DA49486063
:1011D00008460068DA490840D749086008460068B0
:1011E00020F4802008600846406820F4FE00486033
:1011F0004FF41F0088607047CF49096821F480319F
:10120000CD4A11601146096821F480211160B0F5C2
:10121000803F03D0B0F5802F0ED106E0C6490968A3
:1012200041F48031C44A116007E0C349096841F4C0
:10123000A021C14A116000E000BF00BF704710B597
:1012400001460022002300204A11012A02D1BA4C93
:10125000236806E0022A02D1B74C236A01E0B64CAB
:10126000636A01F01F02012494401C400CB101206C
:1012700000E0002010BD38B50020009000240025BB
:1012800000BF3120FFF7DBFF05460098401C0090AF
:101290000098B0F5A06F01D0002DF2D03120FFF7FB
:1012A000CEFF08B1012400E00024204638BD0146ED
:1012B0000020A14A106820F0F80040EAC100106048
:1012C0007047A04908607047024600209A4B586852
:1012D00020F47C1042EA01031843974B5860704792
:1012E00098490866704701460020934A506820F0EC
:1012F00003000843506070478F48406800F00C00BE
:101300007047014600208C4A506820F0F0000843E6
:101310005060704701460020874A506820F4E06022
:1013200008435060704701460020834A506820F40B
:10133000605040EAC1005060704729B17E4A527A3D
:1013400002437D4B5A7204E07B4A527A82437A4BC5
:101350005A7270477B49D8310860704701460020B7
:10136000754A506820F4404008435060704700219F
:10137000714A20321170704A82F82010012802D080
:1013800004280AD104E001216B4A2032117005E0E3
:101390000521694A2032117000E000BF00BF70478C
:1013A0006949086070476449096A0143624A1162E9
:1013B0007047654944390860704730B50021002204
:1013C000002400235C4D6D6805F00C0121B1042957
:1013D00005D0082923D105E05C4D056022E05B4D76
:1013E00005601FE0544D6D6805F47012524D6D6834
:1013F00005F48034022505EB92421CB9544D554347
:1014000005600BE04C4D6D6805F400351DB1504D85
:101410005543056002E04D4D5543056002E04B4DDC
:10142000056000BF00BF444D6D6805F0F00109097B
:10143000484D6B5C0568DD4045603F4D6D6805F4C7
:10144000E061090A434D6B5C4568DD4085603A4DBB
:101450006D6805F46051C90A3E4D6B5C4568DD401E
:10146000C560354D6D6805F44041890B3A4D6B5CA4
:10147000C568B5FBF3F5056130BD29B12E4A526947
:1014800002432D4B5A6104E02B4A526982432A4B96
:101490005A61704729B1284A92690243264B9A61E2
:1014A00004E0254A92698243234B9A61704729B12F
:1014B000214AD2690243204BDA6104E01E4AD26914
:1014C00082431D4BDA61704729B11B4AD26802433F
:1014D000194BDA6004E0184AD2688243164BDA608E
:1014E000704729B1144A12690243134B1A6104E090
:1014F000114A12698243104B1A61704712494039F0
:10150000086070470F49C86470470B49C87170473D
:101510000948406A40F080700749486270470146B8
:101520000020054A92680A400AB1012000E000202C
:101530007047014988727047001002400000FFF8B0
:10154000FFFFF6FE000042428004424200127A0091
:1015500000093D00140000202400002010B50446BE
:10156000BE48844208D101218014FFF7ADFF00215D
:10157000A014FFF7A9FF16E0B948844208D1012161
:101580000014FFF7AEFF00212014FFF7AAFF0AE0C6
:10159000B448844207D10121C013FFF7A2FF002104
:1015A000E013FFF79EFF10BD10B50022028802F481
:1015B00041520B884C8823438C882343CC88234397
:1015C0000C8923434C8923438C892343CC892343AF
:1015D0001A430280838B4FF2FF74234083830B8A6C
:1015E000038210BD2DE9F04F85B005460C464FF043
:1015F000000902274FF000084FF0010B0026B24609
:10160000A88B4FF240010840A88302202884B5F837
:101610001C90A068022801D100BF38E0A08810B952
:101620004FF0010B01E04FF0020B8D48854200D1D5
:1016300000E000BF6846FFF7C0FEDDF800A0E088CC
:10164000B0F5007F0AD14FEA1A2000EB800040007D
:10165000A168B0FBF1F0401D86B20BE04FEA4B10E1
:10166000BAFBF0F000EB80004000A168B0FBF1F0A5
:10167000401D86B20A20B6FBF0F606F00108A6EB84
:101680000800C0F34F074FF6FF7000EA0828022F4A
:1016900001DBFF2F02DD02274FF00008E08840EA5F
:1016A000080038432884A088A1890843618808433A
:1016B0002188084340F4006040EA0909A5F81C901D
:1016C00005B0BDE8F08F0021018041808180C1809C
:1016D000018141818181C1810721018270470021FF
:1016E000018041808180C18002218160002181814F
:1016F000704721B1028842F04002028004E0028873
:101700004FF6BF731A400280704721B1828B42F4BA
:101710008062828304E0828B4FF6FF331A4082831B
:10172000704730B5002400230C110125A540ABB251
:101730001AB185881D43858002E085889D43858098
:1017400030BD1AB183880B43838002E083888B43CA
:1017500083807047818170470146888970474FF6C2
:10176000FF62914204D0028842F48072028004E059
:1017700002884FF6FF631A400280704721B18288C9
:1017800042F00402828004E082884FF6FB731A4024
:101790008280704702884FF2FF731A4002800288ED
:1017A0000A4302807047018841F4805101807047EC
:1017B00021B1028842F40052028004E002884DF612
:1017C000FF731A400280704702460020012901D0B1
:1017D000108B00E0908A70470146088A7047B1F587
:1017E000804F04D1028842F48042028004E00288E3
:1017F0004BF6FF731A40028070470246002013899F
:101800000B400BB1012000E000207047CA43028169
:101810007047F0B50246002000240023002501F0A7
:101820000F070126BE40B4B20B1101269E40B3B291
:10183000968806EA03051689264016B10DB10120E7
:1018400000E00020F0BD10B5002201F00F040123DC
:10185000A3409AB2D343038110BD00000030014081
:1018600000380040003C004010B50446FE48844269
:1018700008D10121C014FFF727FE0021E014FFF773
:1018800023FEC4E0B4F1804F08D101210846FFF7E0
:1018900028FE00210120FFF724FEB8E0F34884422F
:1018A00008D101210220FFF71CFE00210220FFF7D2
:1018B00018FEACE0EE48844208D101210420FFF775
:1018C00010FE00210420FFF70CFEA0E0E94884424E
:1018D00008D101210820FFF704FE00210820FFF7AE
:1018E00000FE94E0E448844208D101211020FFF773
:1018F000F8FD00211020FFF7F4FD88E0DF48844266
:1019000008D101212020FFF7ECFD00212020FFF766
:10191000E8FD7CE0DA48844208D101214014FFF759
:10192000D3FD00216014FFF7CFFD70E0D54884425D
:1019300009D10121C804FFF7C7FD00214FF40020A1
:10194000FFF7C2FD63E0D048844209D101210805B8
:10195000FFF7BAFD00214FF48010FFF7B5FD56E008
:10196000CA48844209D101214805FFF7ADFD002195
:101970004FF40010FFF7A8FD49E0C548844208D1A4
:1019800001214020FFF7ADFD00214020FFF7A9FD18
:101990003DE0C048844208D101218020FFF7A1FD2D
:1019A00000218020FFF79DFD31E0BB48844208D133
:1019B00001218015FFF795FD0021A015FFF791FD8E
:1019C00025E0B648844209D101210804FFF77CFDD7
:1019D00000214FF48030FFF777FD18E0B0488442D3
:1019E00009D101214804FFF76FFD00214FF40030B9
:1019F000FFF76AFD0BE0AB48844208D1012188045F
:101A0000FFF762FD00214FF48020FFF75DFD10BD60
:101A100000220288944B98420ED0994B98420BD0EA
:101A2000B0F1804F08D0914B984205D0904B98422E
:101A300002D0904B984204D14FF68F731A404B88D6
:101A40001A438D4B984207D08C4B984204D04FF6E6
:101A5000FF431A40CB881A4302808B8883850B880A
:101A60000385814B98420BD0854B984208D08B4B15
:101A7000984205D08A4B984202D08A4B984201D1B5
:101A80000B7A038601238382704770B500240022FD
:101A90000023058C4FF6FE7635400584028C838842
:101AA000048B4FF68F752C40B51E2C400D882C43AF
:101AB000751E2A400D892A434D882A436A4DA84243
:101AC0000BD06F4DA84208D0744DA84205D0744D7C
:101AD000A84202D0734DA84213D14FF6F7752A40A1
:101AE0004D892A434FF6FB752A408D882A434FF6CD
:101AF000FF652B404FF6FF552B408D892B43CD8939
:101B00002B4383800483CD888586028470BD70B5A5
:101B1000002400220023058C4FF6EF763540058423
:101B2000028C8388048B48F6FF752C404FF6FF45E6
:101B30002C400D884FF6FF7606EA05252C434FF61C
:101B4000DF752A400D8906EA05152A434D8806EA05
:101B500005152A43444DA84202D0494DA8421DD143
:101B60004FF67F752A404D894FF6FF7606EA051538
:101B70002A434FF6BF752A408D8806EA05152A4389
:101B80004FF6FF352B404FF2FF752B408D8906EA4B
:101B900085052B43CD8906EA85052B438380048385
:101BA000CD880587028470BD70B500240022002313
:101BB000058C4FF6FF6635400584028C8388848B44
:101BC0004FF68F752C404FF6FC752C400D882C433A
:101BD0004FF6FF552A400D894FF6FF7606EA052598
:101BE0002A434D8806EA05252A431F4DA84202D004
:101BF000234DA8421DD14FF2FF752A404D894FF663
:101C0000FF7606EA05252A434FF6FF352A408D88E0
:101C100006EA05252A434EF6FF752B404DF6FF7563
:101C20002B408D8906EA05152B43CD8906EA05155B
:101C30002B4383808483CD888587028470BD70B5F3
:101C4000002200230024058C4EF6FF7635400584E3
:101C5000038C8488828B48F6FF752A404FF6FF4537
:101C60002A400D8820E00000002C014000040040C4
:101C700000080040000C004000100040001400402C
:101C800000340140004C014000500140005401402C
:101C900000180040001C00400020004000400140AF
:101CA00000440140004801404FF6FF7606EA052552
:101CB0002A434DF6FF752B400D8906EA05352B4367
:101CC0004D8806EA05352B43FA4DA84202D0FA4D5D
:101CD000A84208D14BF6FF752C408D894FF6FF7650
:101CE00006EA85152C4384808283CD88A0F8405075
:101CF000038470BD828B4FF2FF331A408283828B44
:101D00004FF6FF7303EA01231A4382837047F0B54D
:101D10000C461546002200210026078C4EF6FF7C5B
:101D200007EA0C070784828B018C4FF6FF7707EADE
:101D3000043640F6FF473A404FF6FF7707EA05279B
:101D40003A434FF6FF7707EA03373A43D94FB84291
:101D50000ED0D94FB8420BD0B0F1804F08D0D74F3A
:101D6000B84205D0D64FB84202D0D64FB84206D1BD
:101D70004DF6FF77394046F48057394305E047F682
:101D8000FF57394044F48057394382830184F0BDC2
:101D9000828B4FF6F3731A408283828B0A438283CD
:101DA0007047F0B50C461546002200210026078C2E
:101DB0004FF6FF6C07EA0C070784828B018C4FF605
:101DC000FF7707EA04264FF60C773A404FF6FF7785
:101DD00007EA03172F433A43B64FB8420ED0B64F27
:101DE000B8420BD0B0F1804F08D0B44FB84205D004
:101DF000B34FB84202D0B34FB84206D14FF6FF57A7
:101E0000394046F48077394305E04FF2FF573940B7
:101E100044F48077394382830184F0BD028B4FF212
:101E2000FF331A400283028B4FF6FF7303EA01234C
:101E30001A4302837047F0B50C4615460022002174
:101E40000026078C4FF6EF7C07EA0C070784028B0D
:101E5000018C4FF6FF7707EA041640F6FF473A4039
:101E60004FF6FF7707EA03373A434FF6FF7707EA63
:101E700005273A438F4FB8420ED08F4FB8420BD050
:101E8000B0F1804F08D08D4FB84205D08C4FB8428A
:101E900002D08C4FB84206D14FF6DF77394046F07A
:101EA0001007394305E04FF65F77394044F01007DB
:101EB000394302830184F0BD028B4FF6F3731A405D
:101EC0000283028B0A4302837047F0B50C46154625
:101ED00000220021068C4FF6FE773E400684028BDE
:101EE000018C4FF60C7632407E1C06EA03162E4318
:101EF0003243704EB0420ED06F4EB0420BD0B0F1B4
:101F0000804F08D06D4EB04205D06D4EB04202D029
:101F10006C4EB04206D14FF6FD76314044F00106DA
:101F2000314305E04FF6F576314044F00106314388
:101F300002830184F0BD70B505460C465D488542BC
:101F40000ED05D4885420BD0B5F1804F08D05B487C
:101F5000854205D05A48854202D05A48854200D170
:101F600000E000BF208850B92389A28861882846F4
:101F7000FFF7ABFFE1882846FFF79EFF25E02088AA
:101F800004280AD12389A28861882846FFF753FFD5
:101F9000E1882846FFF742FF17E0208808280AD189
:101FA0002389A28861882846FFF7FBFEE18828463E
:101FB000FFF7EEFE09E02389A28861882846FFF733
:101FC000A6FEE1882846FFF795FE70BD2DE9F04199
:101FD00005460C4600260127608808B9022600E065
:101FE0000026A088012801D1022700E001272088CF
:101FF000A0B92389A28861882846FFF766FFE18897
:102000002846FFF759FF23893A4631462846FFF70D
:1020100012FFE1882846FFF701FF13E02389A28819
:1020200061882846FFF707FFE1882846FFF7F6FE9C
:1020300023893A4631462846FFF747FFE18828467C
:10204000FFF73AFFBDE8F0810A884B881A438B8876
:102050001A43CB881A430B891A434B891A438B893D
:102060001A43A0F8442070474FF6FF718180002189
:102070000180C18041800172704700210180418050
:102080008180C180018141818181C18170470021AE
:1020900001804180012181800021C1800181704740
:1020A0000021018041808180C18001814181818145
:1020B00070470000002C0140003401400004004043
:1020C00000080040000C004021B1028842F00102EB
:1020D000028004E002884FF6FE731A4002807047C7
:1020E00031B1B0F8442042F40042A0F8442005E0A9
:1020F000B0F84420C2F30E02A0F8442070471AB191
:1021000083890B43838102E083898B4383817047FA
:102110008182704741EA0203A0F8483070471AB143
:1021200083890B43838102E083898B4383817047DA
:1021300001894FF6F8721140018170470A4600216B
:1021400001894FF68F73194011430181704730B5F3
:1021500004460D4629462046FFF7F0FF208940F04F
:102160000700208130BD2DE9F04104460D4616469A
:102170001F46602D06D13B46012231462046FFF71F
:102180005AFE05E03B46012231462046FFF79DFE00
:1021900029462046FFF7D2FF208940F00700208122
:1021A000BDE8F08130B50C4600210189C9B24FF677
:1021B000FF7505EA0325154325432943018130BDF9
:1021C0002DE9F04105460E46174698460024434641
:1021D0003A4631462846FFF7E5FF2C894FF6F8705E
:1021E000044044F007044FF68F70044044F070043C
:1021F0002C81BDE8F081F0B504460D4616461F4619
:102200003B46324629462046FFF7CCFF208940F462
:1022100080402081F0BD0185828270470A460021FE
:1022200001884FF68F731940114301807047F0B554
:102230000C4615461E460021002200230189028B10
:10224000038C4FF6F877394021434FF6FC473A406C
:1022500040F201173A434FF6DD773B404FF6FF77E8
:1022600007EA06172F433B43018102830384F0BD35
:102270000A460021018B4FF68F73194011430183E9
:1022800070470A460021018B48F6FF7319404FF64C
:10229000FF7303EA02231943018370470A460021B2
:1022A000818B4FF68F7319401143818370470A4623
:1022B0000021818B48F6FF7319404FF6FF7303EA44
:1022C000022319438183704721B1028842F08002C2
:1022D000028004E002884FF67F731A400280704744
:1022E00021B1828842F00402828004E082884FF6A5
:1022F000FB731A408280704721B1828842F0080245
:10230000828004E082884FF6F7731A40828070471B
:1023100021B1828842F00102828004E082884FF677
:10232000FE731A40828070470A460021018B4FF6E7
:10233000F77319401143018370470A460021018B4E
:102340004FF2FF7319404FF6FF7303EA022319435C
:10235000018370470A460021818B4FF6F7731940BD
:102360001143818370470A460021818B4FF2FF732E
:1023700019404FF6FF7303EA022319438183704724
:102380000A460021018B4FF6FB731940114301836C
:1023900070470A460021018B4FF6FF3319404FF674
:1023A000FF7303EA02231943018370470A460021A1
:1023B000818B4FF6FB7319401143818370470A46A6
:1023C0000021818B4FF6FF3319404FF6FF7303EA6C
:1023D00002231943818370470A460021018B4FF67F
:1023E0007F7319401143018370470A460021018B16
:1023F000C1F30E014FF6FF7303EA02231943018371
:1024000070470A460021818B4FF67F7319401143B4
:10241000818370470A460021818BC1F30E014FF67C
:10242000FF7303EA02231943818370470A460021A0
:10243000018C4FF6FD7319401143018470470A4621
:102440000021018C4FF6F773194011430184704746
:102450000A460021018C4FF6DF7319404FF6FF73D7
:1024600003EA02131943018470470A460021018CD4
:102470004FF67F7319404FF6FF7303EA02131943B7
:10248000018470470A460021018C4FF6FF53194022
:102490004FF6FF7303EA02231943018470470A468B
:1024A0000021018C4FF2FF7319404FF6FF7303EACE
:1024B00002231943018470470A460021018C4DF61E
:1024C000FF7319404FF6FF7303EA02331943018487
:1024D000704730B5002301248C40A3B2048C9C4388
:1024E0000484048C02FA01F5ADB22C43048430BD9F
:1024F00030B5002304248C40A3B2048C9C43048494
:10250000048C02FA01F5ADB22C43048430BD70B5E1
:102510000346002000241846183001258D40ACB237
:102520001D8CA5431D8409B1082909D100EB610068
:10253000056825F0700505600568154305600EE027
:102540000D1FC5F34E052844056825F4E0450560D8
:1025500005684FF6FF7606EA02263543056070BD32
:1025600021B1028842F00202028004E002884FF6A4
:10257000FD731A400280704721B1028842F00402C4
:10258000028004E002884FF6FB731A400280704715
:1025900021B1828842F08002828004E082884FF676
:1025A0007F731A408280704702884FF6F7731A4093
:1025B000028002880A430280704782884FF68F7338
:1025C0001A40828082880A438280704702894FF6CF
:1025D000F8731A40028102890A4302817047028916
:1025E0004FF67F731A40028102890A4302817047C5
:1025F0008184704781857047818670470187704765
:1026000081877047A0F84010704702884FF6FF435B
:102610001A40028002880A43028070470146888E71
:1026200070470146088F70470146888F7047014602
:10263000B1F8400070470146888C70470146088D0C
:10264000704702460020138A0B400BB1012000E0C6
:1026500000207047CA430282704730B5024600200E
:1026600000230024158A05EA0103958905EA01047F
:1026700013B10CB1012000E0002030BDCA4302823A
:102680007047000010B50446FB48844209D101217F
:102690008803FEF719FF00214FF48040FEF714FF76
:1026A00032E0F648844209D101214804FEF719FFBF
:1026B00000214FF40030FEF714FF25E0F04884427B
:1026C00009D101218804FEF70CFF00214FF480207E
:1026D000FEF707FF18E0EB48844209D10121C80446
:1026E000FEF7FFFE00214FF40020FEF7FAFE0BE09C
:1026F000E548844208D101210805FEF7F2FE0021D9
:102700004FF48010FEF7EDFE10BD2DE9F04786B0C6
:1027100005460E460024A24600BFA1460027B08908
:1027200000B100BF2F462C8A4CF6FF700440F088A1
:1027300004432C82AC894EF6F3100440B0883189F2
:102740000843718908430443AC81AC8A4FF6FF40CB
:102750000440B0890443AC8201A8FEF72EFEC648AF
:10276000874202D1DDF810A001E0DDF80CA0A889B5
:1027700000F4004040B10AEBCA0000EB0A103168D7
:102780004900B0FBF1F807E00AEBCA0000EB0A10C1
:1027900031688900B0FBF1F86420B8FBF0F0040167
:1027A0002009642101FB1089A88900F4004040B190
:1027B000322000EBC900B0FBF1F000F00700044349
:1027C00008E0322000EB09106421B0FBF1F000F0CA
:1027D0000F0004432C8106B0BDE8F0874FF416517A
:1027E000016000218180C18001810C214181002193
:1027F0008181704710B502460020108A4FF2FF0316
:1028000018400B884C8823438C882343CC8823436F
:102810001843108210BD0021018041808180C18059
:10282000704721B1828942F40052828104E082899A
:102830004DF6FF731A4082817047F0B503460024BD
:1028400000260025002040F66A17B94200D100BFDB
:102850001846C1F3421401F01F06012707FA06F5D6
:10286000012C01D10C3004E0022C01D1103000E029
:1028700014301AB107682F43076002E00768AF43BE
:102880000760F0BD1AB1838A0B43838202E0838A1A
:102890008B4383827047028A4FF6F0731A4002829C
:1028A000028A0A430282704782894FF2FF731A40FC
:1028B000828182890A438281704721B1828942F0F4
:1028C0000202828104E082894FF6FD731A40828100
:1028D0007047028A4FF6DF731A400282028A0A4367
:1028E0000282704721B1028A42F48042028204E0EF
:1028F000028A4BF6FF731A4002827047C1F3080246
:102900008280704701468888C0F30800704781893B
:1029100041F0010181817047028BD2B20283028BA8
:1029200042EA012202837047028B02F47F42028353
:10293000028B0A430283704721B1828A42F020024F
:10294000828204E0828A4FF6DF731A4082827047E7
:1029500021B1828A42F01002828204E0828A4FF61C
:10296000EF731A408282704721B1828A42F00802D6
:10297000828204E0828A4FF6F7731A40828270479F
:1029800021B1828942F40042828103E08289C2F34C
:102990000E028281704721B1828A42F400628282F3
:1029A00004E0828A4FF2FF731A4082827047828A63
:1029B0004FF6FB731A408282828A0A4382827047F2
:1029C00021B1828A42F00202828204E0828A4FF6BA
:1029D000FD731A408282704702460020B1F5007FE5
:1029E00000D100BF13880B400BB1012000E0002094
:1029F000704701F40072B2F5007F00D100BFCA43F6
:102A00000280704770B50246002400230025002094
:102A100040F66A16B14200D100BFC1F3421501F081
:102A20001F03012606FA03F3012D02D196893340D4
:102A300006E0022D02D1168A334001E0968A334027
:102A40000C12012606FA04F41688344013B10CB1B6
:102A5000012000E0002070BD10B50022002340F6E8
:102A60006A14A14200D100BF0A1201249440A3B20B
:102A7000DC43048010BD00000038014000440040E9
:102A800000480040004C00400050004010B5FEF7E8
:102A900093FB0120FEF715FC00BF2120FEF7CFFBC2
:102AA0000028FAD00020FEF72CFC0020FEF73BFCAB
:102AB0004FF48060FEF72EFC0220FDF76BFE102025
:102AC000FDF77CFE4FF460110020FEF7FDFB0120B6
:102AD000FEF706FC00BF3920FEF7B1FB0028FAD054
:102AE0000220FEF700FC00BFFEF706FC0828FBD121
:102AF00010BD10B545F25550FEF7D8FA0620FEF786
:102B0000D8FA4FF4C870FEF7D7FAFEF7D8FAFEF7F6
:102B1000DBFA10BDA4B000BF00BF00BF00BF00BF04
:102B200000BF00BF00BF00BF00BF00BF00BF00BFAD
:102B300000BF00BF00BF20211CA802F0A2F800BF08
:102B400000BF0020139014901590109011901290D7
:102B500000BF00BF00BF182116A802F092F818218C
:102B6000EE4802F08EF80020ED490870FFF78EFF66
:102B700000F07CFA01F058FD01F064FF00F043FD25
:102B800001F0DCF901F07EFF01F0E9FF002000F028
:102B900019FD322001F07BFD0021AF2000F0B4FCD4
:102BA0000BA8FEF70AFCDFA11CA802F05DFB1CAB22
:102BB00000221421312001F0ADFC0B98DC49B0FB60
:102BC000F1F42246DBA11CA802F04EFB1CAB08224C
:102BD0001421312001F09EFC00F00CFCDAA11CA8AD
:102BE00002F042FB1CAB10221421312001F092FCB8
:102BF000322001F04CFD00F039FCD7A11CA802F0F6
:102C000033FB1CAB18221421312001F083FC32204D
:102C100001F03DFD04A801F00FFE182204A9BF48F1
:102C200002F016F8CFA11CA802F01EFB1CAB30224C
:102C30001421312001F06EFC322001F028FDCDA1DD
:102C40001CA802F011FB1CAB30221421312001F032
:102C500061FC322001F01BFDCAA11CA802F004FB9C
:102C60001CAB30221421312001F054FC322001F041
:102C70000EFDC8A11CA802F0F7FA1CAB38221421E3
:102C8000312001F047FC002000F09CFC322001F0D4
:102C9000FEFCA248007C0A2190FBF1F201FB120429
:102CA0009E48007C90FBF1F523462A46BFA11CA854
:102CB00002F0DAFA1CAB04221421312001F02AFCC4
:102CC0009648407C0A2190FBF1F201FB12049348E4
:102CD000407C90FBF1F523462A46B9A11CA802F0DE
:102CE000C3FA1CAB12221421312001F013FC8B48D3
:102CF000807C012805D1B7A2B8A11CA802F0B4FAC3
:102D00000EE08648807C022805D1B6A2B3A11CA89B
:102D100002F0AAFA04E0B5A2B0A11CA802F0A4FA3D
:102D20001CAB20221421312001F0F4FB7B48C07C35
:102D3000012801D1AFA000E0AFA00246AFA11CA8BE
:102D400002F092FA1CAB20221421312001F0E2FBA8
:102D50007248AC4AAC4BD0E90261304601F0A5FFA5
:102D600080460022A94B02F047F8044602F032F9EF
:102D70006421B0FBF1F201FB12000A21B0FBF1FA71
:102D80006648A04AA04BD0E90261304601F08DFFB1
:102D9000804600229D4B02F02FF8044602F01AF9FB
:102DA0004FF47A71B0FBF1F201FB12006421B0FB29
:102DB000F1FB5A48934A944BD0E90261304601F046
:102DC00074FF80460022914B02F016F8044602F090
:102DD00001F942F21071B0FBF1F201FB12004FF465
:102DE0007A71B0FBF1F04D490A90D1E90261854A50
:102DF000854B304601F059FF80460022834B01F09D
:102E0000FBFF044602F0E6F88149B0FBF1F201FB5A
:102E1000120042F21071B0FBF1F040490990D1E983
:102E20000261784A784B304601F03FFF04460022A9
:102E3000764B01F0E1FF804602F0CCF83C49B0FB54
:102E4000F1F201FB12007249B0FBF1F00890334837
:102E50006C4A6D4BD0E90261304601F026FF804696
:102E600000226A4B01F0C8FF044602F0B3F869493A
:102E7000B0FBF1F201FB12002D49B0FBF1F0274944
:102E80000790D1E902615F4A5F4B304601F00DFFC8
:102E9000044600225D4B01F0AFFF804602F09AF835
:102EA0005C49B0FBF1F00690DDE90901CDE903BA18
:102EB000CDE901010898009057A11CA8DDE906237F
:102EC00002F0D2F91CAB2E221421312001F022FB9A
:102ED00012480078012801D159A000E05AA002460A
:102EE0003FA11CA802F0C0F91CAB3822C821312038
:102EF00001F010FB00BF00BF0EE0012001F0E1FB7C
:102F00000649D1E90401CDE9000104480FC801F0E8
:102F100016FC012001F0D5FBEFE70000480000207F
:102F20003000002044654275672E2E2E0000000000
:102F300040420F004672657175656E63793A2025CF
:102F400064204D487A00000055736172745F496EC9
:102F500069742E2E2E000000494F5F496E69742E51
:102F60002E2E00004C6F61645F5379735061726163
:102F70002E2020004C6F61645F5379735061726141
:102F80002E2E20004C6F61645F5379735061726123
:102F90002E2E2E004F50454E5F495744472E2E2E61
:102FA00046494E4953482E2E2E0000004347203AF2
:102FB0002025303164253031642064420000000057
:102FC0004154543A20253031642530316420644224
:102FD000000000003138304D485A000042573A2076
:102FE000257300003235304D485A00003530304DE1
:102FF000485A0000414743004D4743004147433A88
:1030000020257300FCA9F1D24D62403F0088C340E7
:10301000A0860100809698004346203A2025303152
:10302000642530316425303164253031642E2530FB
:1030300031642530316425303164204D487A0000F8
:103040004C4F43414C20000052454D4F5445000029
:10305000704700BFFEE700BFFEE700BFFEE700BF0E
:10306000FEE77047704770477047000010B54FF497
:10307000A060FDF769F910BD10B54FF45871804894
:10308000FFF7C0FC60B17E4800887E4908707C482C
:10309000001D008808704FF458717948FFF7DCFC78
:1030A00040F225517648FFF7ADFC28B3764800780A
:1030B0000A2819DA7248001D0088C1B273480278E4
:1030C0000078401C714B18707148815400204FF0FB
:1030D00080418884012211469007FFF710F80121F2
:1030E0008807FEF7F1FF03E06A4800886549087029
:1030F0004FF6DF706249088010BD10B501218807C6
:10310000FFF7ABFA38B361480078002811DD624957
:10311000096808685E4901F0BFFD00205B4908703E
:1031200059480078401C584908704021584801F01F
:10313000A8FD00204FF080418884002201218807EB
:10314000FEF7DDFF00214FF08040FEF7BDFF0121BB
:103150008807FFF793FA10BD10B54FF48030FDF7E4
:10316000FFFA48B10420FEF70FF80420FEF716F826
:103170004FF48030FDF705FB10BD10B50024602131
:103180004648FEF746FB002837D0454800780A2815
:1031900023DA4448007800BB40488089C1B24048E7
:1031A00002780078401C3E4B18703F488154184606
:1031B00000780A281AD13C484079A52803D101207B
:1031C0003849087012E00020364908703449087008
:1031D000354800210160818008E0002031490870F5
:1031E0002F490870304800210160818001202F495B
:1031F000087060212948FEF726FB10BD10B5002499
:1032000060212B48FEF705FB002837D029480078BD
:103210000A2823DA2848007800BB20488089C1B2F8
:10322000244802780078401C224B187023488154AF
:10323000184600780A281AD120484079A52803D1D9
:1032400001201D49087012E000201B49087019492F
:1032500008701A4800210160818008E000201649AA
:103260000870144908701548002101608180012010
:103270001349087060210E48FEF7E5FA10BD000002
:1032800000380140280000203000002029000020E4
:1032900060000020044400402C0000200030014069
:1032A00037000020380000203100002041000020BD
:1032B00000380040390000203A0000203B00002088
:1032C0004200002008B501212820FEF7E3F828205D
:1032D000ADF8000010208DF8030003208DF80200E7
:1032E00069468448FDF794FD8020ADF800006946EA
:1032F0008148FDF78DFD08BD10B586B0044601215B
:103300008803FEF7C7F801210920FEF7C3F8012161
:103310000420FDF74EFE4020ADF8140018208DF873
:10332000170003208DF8160005A97248FDF770FDFF
:103330008020ADF8140004208DF8170005A96D4811
:10334000FDF766FD01940020ADF810000C20ADF8EB
:103350000E000020ADF80C00ADF80A00ADF8080032
:1033600001A96648FFF7D1F925208DF8000001205A
:103370008DF8010000208DF8020001208DF8030077
:103380006846FCF7E6FF012240F225515B48FFF753
:1033900054FA01215948FFF744FA06B010BD00B5B0
:1033A0008BB001210846FEF768F85448001D0090D4
:1033B00053480190002002900C20039000200490BC
:1033C0008020059000200690079020200890C001E2
:1033D000099000200A9069464A48FDF7C5F8012186
:1033E0004848FDF7ECF8012202214648FDF7F3F8C2
:1033F0000BB000BD1FB501210846FEF758F80020AC
:103400004FF0804188846320ADF8080042F27F507D
:10341000ADF804000020ADF80A00ADF8060001A9DF
:103420004FF08040FEF7F4FA00204FF0804188848E
:103430001C208DF8000003208DF8010000208DF87D
:10344000020001208DF803006846FCF782FF01218D
:103450008807FFF713F9002201218807FEF74FFEC6
:1034600000214FF08040FEF72FFE1FBD10B5FFF783
:1034700029FF4FF4E130FFF73FFF80211E48FDF7A1
:1034800074FD08211B48FDF772FD642001F0EAF885
:1034900008211848FDF769FD20211648FDF765FD54
:1034A00010BD0FB430B5A1B0002425A80090812133
:1034B00001A8009B249A01F0EBFEC5B20EE0204665
:1034C000621CD4B201AA115C0C48FFF717FA00BFC6
:1034D00040210A48FFF780FA0028F9D0802C03DA4F
:1034E000AC4201DA002DEADC0020009021B030BCB3
:1034F0005DF814FB000C014000140140003801404D
:10350000A00000204400024070B504460E4626B1DB
:103510000821FE48FDF729FD03E00821FB48FDF7DF
:1035200026FD0421F948FDF722FD002519E04FF49E
:103530008041F748FDF71BFD04F0800020B14021D9
:10354000F248FDF712FD03E04021F048FDF70FFDC2
:103550004FF48041EE48FDF708FD6006040E681C3C
:10356000C5B2082DE3DB0421E848FDF7FEFC082185
:10357000E648FDF7FAFC70BD10B500215C20FFF7AE
:10358000C3FF10BD70B505460C4600217520FFF73E
:10359000BBFF01212846FFF7B7FF01212046FFF7B7
:1035A000B3FF70BD70B505460C4600211520FFF72E
:1035B000ABFF01212846FFF7A7FF01212046FFF7B7
:1035C000A3FF70BD70B5064677210020FFF7EAFF24
:1035D0007F210020FFF7D6FFFFF7CEFF00240FE08A
:1035E000002509E001213046FFF78EFF012130461A
:1035F000FFF78AFF681CC5B2782DF3DB601CC4B2EC
:10360000802CEDDB70BD08B501215020FDF742FF95
:103610004C20ADF8000010208DF8030003208DF839
:1036200002006946B948FDF7F3FB4FF4C040ADF81E
:1036300000006946B648FDF7EBFB4FF48041B44803
:10364000FDF793FC4FF40051B148FDF790FC4C217D
:10365000AE48FDF78AFC4FF40051AD48FDF787FCFA
:10366000322001F014F8322001F011F84FF400512B
:10367000A748FDF77AFC0021AE20FFF745FF0021A7
:10368000FD20FFF741FF01211220FFF73DFF002140
:10369000B320FFF739FF01219120FFF735FF00210B
:1036A000CA20FFF731FF01213F20FFF72DFF002146
:1036B000A220FFF729FF01210020FFF725FF0021AD
:1036C000A120FFF721FF01210020FFF71DFF0021AE
:1036D000A020FFF719FF01211420FFF715FF01219A
:1036E0001120FFF711FF0021B520FFF70DFF012189
:1036F0000020FFF709FF0021AB20FFF705FF0121A4
:103700000846FFF701FF0021B420FFF7FDFE01216D
:10371000A020FFF7F9FE0121F820FFF7F5FE0021B8
:10372000C120FFF7F1FE0121EF20FFF7EDFE0021A0
:10373000C720FFF7E9FE0121FF20FFF7E5FE00218A
:10374000B820FFF7E1FE01210C20FFF7DDFE01218B
:103750001820FFF7D9FE01212420FFF7D5FE012113
:103760003020FFF7D1FE01213C20FFF7CDFE0121E3
:103770004820FFF7C9FE01215420FFF7C5FE0121B3
:103780006020FFF7C1FE01216C20FFF7BDFE012183
:103790007820FFF7B9FE01218420FFF7B5FE012153
:1037A0009020FFF7B1FE01219C20FFF7ADFE012123
:1037B000A820FFF7A9FE0121B420FFF7A5FE0021F4
:1037C0000846FFF7A1FE0021B120FFF79DFE012171
:1037D000E220FFF799FE0021D120FFF795FE01219D
:1037E000A220FFF791FE01212020FFF78DFE00218E
:1037F000BB20FFF789FE01211F20FFF785FE002176
:10380000B620FFF781FE01210820FFF77DFE002191
:10381000BE20FFF779FE01210720FFF775FE00218A
:10382000A620FFF771FE0021A920FFF76DFE002002
:10383000FFF7C8FE0021AF20FFF766FE08BD10B5F8
:1038400000215D20FFF760FE10BD10B50446002189
:10385000A020FFF759FE01212046FFF755FE012168
:103860001120FFF751FE10BD70B504460D461646F7
:1038700044F0A8000021FFF747FE3CB9012128468B
:10388000FFF742FE01213046FFF73EFE70BD10B546
:1038900004460021A220FFF737FE01212046FFF752
:1038A00033FE10BD10B504460021A120FFF72CFE09
:1038B00001212046FFF728FE10BD10B50446002167
:1038C000C720FFF721FE01212046FFF71DFE10BD96
:1038D00010B50021B820FFF717FE01210C20FFF7DB
:1038E00013FE01211820FFF70FFE01212420FFF70E
:1038F0000BFE01213020FFF707FE01213C20FFF7DE
:1039000003FE01214820FFF7FFFD03E000180140FE
:103910000010014001215420FFF7F6FD0121602035
:10392000FFF7F2FD01216C20FFF7EEFD0121782069
:10393000FFF7EAFD01218420FFF7E6FD0121902039
:10394000FFF7E2FD01219C20FFF7DEFD0121A82009
:10395000FFF7DAFD0121B420FFF7D6FD002108466C
:10396000FFF7D2FD10BD10B50021B920FFF7CCFD47
:1039700010BD2DE9F04180460E4617463F2200213A
:103980000846FFF771FFB8F1000F03D0B8F1010F3F
:1039900029D113E000240EE0611CC8B2FFF777FFC5
:1039A000002504E0C82000F05DFE681CC5B2BD42E1
:1039B000F8DBA019C4B2402CEEDB14E000240FE0C9
:1039C000C4F13F01C8B2FFF762FF002504E0C82040
:1039D00000F048FE681CC5B2BD42F8DBA019C4B2B5
:1039E000402CEDDB00BF00BF002211460120FFF795
:1039F0003BFFBDE8F0812DE9FF4F81B00C46DDE9CA
:103A00000E890398C11700EB9171C1F3870A0498DE
:103A1000C11700EB9171C1F3870B2046E11704EB4E
:103A200091718910A4EB8101C9B20091009838B955
:103A30002046E11704EB91718910491ECFB205E0D1
:103A40002046E11704EB9171C1F387070BF11C02CB
:103A5000D1B20AF11C02D0B2FFF7A4FD08EB0400BA
:103A6000401EC1B24046FFF78DFDFFF785FD0026E1
:103A70000FE0002509E001210198FFF745FD012134
:103A80000198FFF741FD681CC5B2A542F3DB701C2D
:103A9000C6B2ABEB0A00401CB042EADC0BF11C02E0
:103AA000D1B2ABEB07021C32D0B2FFF77BFDA9EB22
:103AB0000402D1B208EB0402D0B2FFF763FDFFF7B6
:103AC0005BFD002644E000253DE08DBB009830B151
:103AD00001280DD0022816D0032828D11CE001218E
:103AE0000198FFF711FD01210198FFF70DFD1EE080
:103AF00001210020FFF708FD019901F00F000121CD
:103B0000FFF702FD13E001210020FFF7FDFC01217A
:103B10000198FFF7F9FC0AE0019901F00F0001217B
:103B2000FFF7F2FC01210198FFF7EEFC00BF08E06F
:103B3000FFE701210198FFF7E7FC01210198FFF75A
:103B4000E3FC681CC5B2781C8542BEDB701CC6B2A3
:103B5000A9EB0800401CB042B5DC0BF11C02D1B24D
:103B60000AF11C02D0B2FFF71DFDA9EB0401491CAC
:103B7000C8B24946FFF706FDFFF7FEFC00260FE03E
:103B8000002509E001210198FFF7BEFC0121019801
:103B9000FFF7BAFC681CC5B2A542F3DB701CC6B2C5
:103BA000ABEB0A00401CB042EADC0AEB07021C3215
:103BB000D1B20AF11C02D0B2FFF7F4FCA9EB040267
:103BC000D1B208EB0402D0B2FFF7DCFCFFF7D4FC63
:103BD000002644E000253DE0BD4231D1009830B1DF
:103BE00001280DD0022816D0032828D11CE001217D
:103BF0000198FFF789FC01210198FFF785FC1EE081
:103C0000019901F0F0000121FFF77EFC0121002065
:103C1000FFF77AFC13E001210198FFF775FC012101
:103C20000020FFF771FC0AE001210198FFF76CFC0E
:103C3000019901F0F0000121FFF766FC00BF07E0E9
:103C400001210198FFF760FC01210198FFF75CFC5E
:103C5000681CC5B2781C8542BEDB701CC6B2A9EBDD
:103C60000800401CB042B5DC05B0BDE8F08F2DE97E
:103C7000F04782460C4615461E46089F05F11C0279
:103C8000D1B204F11C02D0B2FFF78CFC39463046A9
:103C9000FFF778FCFFF770FC4FF0000816E04FF0DC
:103CA00000090BE001215046FFF72EFC0121504690
:103CB000FFF72AFC09F1010000F0FF09281B401C56
:103CC0004845EFDC08F1010000F0FF08B81B401C7C
:103CD0004045E4DCBDE8F0872DE9F05F80460D4605
:103CE00016461F46DDF82890444606F11C02D1B264
:103CF00005F11C02D0B2FFF755FC49463846FFF7E4
:103D000041FCFFF739FC4FF0000A18E04FF0000BC0
:103D10000DE020780121FFF7F7FB641C20780121DA
:103D2000FFF7F2FB641C0BF1010000F0FF0B701BAE
:103D3000401C5845EDDC0AF1010000F0FF0AA9EB38
:103D40000700401C5045E1DCBDE8F09F2DE9FC4137
:103D50000646354600244CE005F0C008B8F1000FD7
:103D600009D0B8F1400F0AD0B8F1800F0BD0B8F1EC
:103D7000C00F10D10BE0002001A908550CE00F2066
:103D800001A9085508E0F02001A9085504E0FF202A
:103D900001A9085500E000BF00BFA806050E05F008
:103DA000C00737B1402F08D0802F0AD0C02F10D1C4
:103DB0000BE000200DF804000CE00F200DF80400CB
:103DC00008E0F0200DF8040004E0FF200DF80400E6
:103DD00000E000BF00BFA806050E01A9085D012193
:103DE000FFF792FB1DF804000121FFF78DFB601C1B
:103DF000C4B2022CB0DBBDE8FC8108B53F20002333
:103E0000032219460090FF20FFF731FF3F200023D7
:103E1000072204210090EE20FFF729FF3F20002316
:103E20000B2208210090DD20FFF721FF3F20002317
:103E30000F220C210090CC20FFF719FF3F20002318
:103E4000132210210090BB20FFF711FF3F20002319
:103E5000172214210090AA20FFF709FF3F2000231A
:103E60001B22182100909920FFF701FF3F2000231B
:103E70001F221C2100908820FFF7F9FE3F2000231D
:103E80002322202100907720FFF7F1FE3F2000231E
:103E90002722242100906620FFF7E9FE3F2000231F
:103EA0002B22282100905520FFF7E1FE3F20002320
:103EB0002F222C2100904420FFF7D9FE3F20002321
:103EC0003322302100901046FFF7D1FE3F2000231F
:103ED0003722342100902220FFF7C9FE3F20002323
:103EE0003B22382100901120FFF7C1FE3F20002324
:103EF00002463C2100901846FFF7B9FE08BD0000BD
:103F000008B51020ADF8000028208DF8030003202C
:103F10008DF802006946F748FCF77AFF08BD08B53E
:103F20001020ADF8000014208DF8030003208DF858
:103F300002006946EF48FCF76BFF08BD08B5012198
:103F40004020FDF7A7FA3020ADF8000010208DF8D2
:103F5000030003208DF802006946E648FCF758FF8D
:103F60001021E448FDF703F808BD70B504460025AC
:103F700019E004F0800020B14021DE48FCF7F5FF95
:103F800003E04021DB48FCF7F2FF6006040E4FF42B
:103F90008041D948FCF7EBFF4FF48041D648FCF74D
:103FA000E4FF681CC5B2082DE3DB70BD70B50024CA
:103FB0004FF48041D048FCF7D8FFFFF7A1FF002560
:103FC0001AE01021CB48FCF7D0FF4FF48041CA48DB
:103FD000FCF7CDFF6006040E1021C648FCF7ABFFCE
:103FE00010B1601CC4B200E0E4B24FF48041C2489A
:103FF000FCF7BBFF681CC5B2082DE2DB204670BD94
:104000002DE9F04780460D4616461F46DDF8209004
:104010002021B848FCF7ABFF4FF48041B648FCF7CD
:10402000A6FF0320FFF7A1FF4046FFF79EFF2846AB
:10403000FFF79BFF3046FFF798FF002404E0FFF7EF
:10404000B5FF3855601CC4B24C45F8DB2021A948A7
:10405000FCF78BFFBDE8F0872DE9F05F81468A46CB
:1040600090464FEA9A0BB9F1310F09D0B9F1320FEE
:104070000AD0B9F1330F0BD0B9F1340F10D10BE0E6
:1040800003240B2518260BE003240F25202607E028
:1040900005241725482603E007241F25802600BF96
:1040A00000BF0BF11C022244D1B20BF11C02D0B2B2
:1040B000FFF778FA08EB0502D1B208F0FF00FFF72E
:1040C00061FAFFF759FA002705E08C49C85DFFF750
:1040D0003DFE781CC7B2B742F7DBBDE8F09F2DE983
:1040E000FF4F83B00F461D4600240026002001909C
:1040F000804681460398312806D032280BD03328D9
:1041000010D034281CD114E0002001904FF0180882
:104110004FF00C0914E07A4801904FF020084FF05E
:1041200010090DE0774801904FF048084FF018094A
:1041300006E0754801904FF080084FF0200900BF5D
:1041400000BF61E0C9F58070B84203D205984844C9
:1041500005900027285DA12829DB285DA92826DCF9
:10416000601C285CA12822DB285DA1385E2100FBB1
:1041700001F6601C285CA1380644019806FB08067D
:10418000C6F3074AC6F3072BF0B202905B4BCDF89B
:10419000008059465046029AFFF732FF3946059A89
:1041A0000398FFF759FF4F44A01CC4B22CE0285DD0
:1041B000B02829DB285DF72826DC601C285CA128B4
:1041C00022DB285DB0385E2100FB01F6601C285C14
:1041D00000F2AD200644019806FB0806C6F3074A24
:1041E000C6F3072BF0B20290444BCDF8008059463D
:1041F0005046029AFFF704FF3946059A0398FFF7E5
:104200002BFF4F44A01CC4B2285D00289ADC07B0E5
:10421000BDE8F08F2DE9F05F81468A4690464FEA6F
:104220009A0BA9F13100052818D2DFE800F0030746
:104230000B0F130001240B250C260FE001240F2582
:1042400010260BE001240F25102607E00324172574
:10425000302603E003241F25402600BF00BF0BF1DA
:104260001C022244D1B20BF11C02D0B2FFF79AF922
:1042700008EB0502D1B208F0FF00FFF783F9FFF762
:104280007BF9002705E01D49C85DFFF75FFD781C3D
:10429000C7B2B742F7DBBDE8F09F2DE9FF4F85B00D
:1042A0000F469A464FF000080024A3460026A14678
:1042B00005983138052837D2DFE800F003090F15DB
:1042C0003000DFF848B00C264FF008092CE0DFF88A
:1042D00040B010264FF0080926E0DFF838B010266D
:1042E0004FF0080920E0DFF830B030264FF00C091D
:1042F0001AE000000018014000100140AC0000204E
:10430000D0C902009081060000DF0E000CBE1D0027
:1043100090D71D0080281F0030FF1D00DFF8ECB291
:1043200040264FF0100900BF00BF81E0C9F5807042
:10433000B84203D207984844079000271AF80800AB
:1043400040F0800040F42A454AF6A120854222DB55
:104350004AF6FE2085421EDCA5F52A44A13C04FB5A
:1043600006B4C4F307400490C4F307200390E0B2FE
:104370000290A74B0096DDE902210498FFF740FE6A
:104380003946079A0598FFF745FF08F1010000F04C
:10439000FF084F444CE04AF6A130854222DB4AF642
:1043A000C03085421EDCA5F52B44423C04FB06B41C
:1043B000C4F307400490C4F307200390E0B20290D6
:1043C000934B0096DDE902210498FFF719FE394668
:1043D000079A0598FFF71EFF08F1010000F0FF089B
:1043E0004F4425E04AF6A140854221DB4AF6DF40F2
:1043F00085421DDCA5F52C44A13C04FB06B4C4F3A6
:1044000007400490C4F307200390E0B20290804B71
:104410000096DDE902210498FFF7F2FD3946079A7C
:104420000598FFF7F7FE08F1010000F0FF084F4480
:104430001AF8080000283FF779AF09B0BDE8F08FFF
:104440002DE9F74F8246914601984FEA900BAAF169
:104450003100062828D2DFE800F003090F151B21E0
:104460000126072708254FF000081DE00126072731
:1044700008254FF0010817E001260B270C254FF007
:10448000010811E001260F2710254FF001080BE06D
:104490000326172730254FF0010805E003261F27C4
:1044A00040254FF0010800BF00BF0BF11C02324451
:1044B000D1B20BF11C02D0B2FFF774F809EB07027E
:1044C000D1B209F0FF00FFF75DF8FFF755F8B8F13A
:1044D000000F13D1002405E04D49085DFFF736FCBD
:1044E000601CC4B2681EA042F6DC01210020FFF768
:1044F0000BF801210020FFF707F809E0002405E090
:104500004349085DFFF722FC601CC4B2AC42F7DBF4
:10451000BDE8FE8F2DE9F04F87B080460F469146EB
:104520001C4600250026002004900390834602903C
:10453000A8F13100062835D2DFE800F0030A11198E
:10454000212A34480490082003908346029029E0F1
:1045500031480490082003908346029022E02F48BF
:1045600004900C2003904FF0080B02901AE02C48A6
:104570000490102003904FF0080B029012E029489D
:104580000490302003904FF00C0B1820029009E0AB
:104590001E4840380490402003904FF0100B20201C
:1045A000029000BF00BF2AE0CBF58070B84202D273
:1045B000029881440027605D202820DB605D7E2812
:1045C0001DDC605DA0F12006DDE9031006FB01069D
:1045D000C6F3074AC6F307200690F0B20590039889
:1045E0000B4B00905046DDE90521FFF709FD4A46D7
:1045F00039464046FFF724FF681CC5B25F44605D42
:104600000028D1DC07B0BDE8F08F0000905A1E00F2
:10461000AC00002080DF1D0080E21D0000BE1D00F8
:1046200080D71D0000FF1D000EB501210420FCF7FE
:104630003EFF4FF6FF70ADF804002F20ADF80000EC
:104640000020ADF80600ADF8020069462448FDF7E9
:10465000DFF9002022492431088000212048FDF79D
:1046600033FD0EBD10B5044600201D4924310880DD
:1046700001211B48FDF728FD00BF194824300088A0
:10468000A042FAD900211648FDF71EFD10BD10B555
:104690000446002012492431088001211048FDF70A
:1046A00013FD00BF0E482430008804EB4401C1EB29
:1046B000C411B0EBC10FF5DD00210948FDF704FD81
:1046C00010BD70B50446002500BF03E03220FFF79F
:1046D000DEFF6D1C04EB8400B5EB800FF6DD70BDD2
:1046E000000800400EB501210807FCF7E0FE4FF47A
:1046F0008030FCF746F84FF48030019000208DF8B0
:10470000080008208DF8090001208DF80A0001A892
:10471000FBF7C0FF01208DF8000002208DF801009A
:1047200001208DF802008DF803006846FBF711FEAA
:10473000E020FCF7ECFC0120FCF7E6FC0EBD0FB41A
:104740002DE9F04F87B0002005900690039004906B
:1047500002900190834682465A208DF81400002270
:10476000A64BDDE91261304600F046FB044600220C
:10477000A34B00F09AFA804600F02CFC8346CBF362
:1047800047308DF81500CBF347108DF816004FEA2F
:10479000CB009DF8501040EAE100C0B28DF8170040
:1047A0009DF851009DF8501040EA4110C0B28DF8BC
:1047B00018009DF8520080019DF8531040EA411006
:1047C000C0B28DF81900A5208DF81A0000BF08E0CE
:1047D00005A911F80A0000F0A9F90AF1010000F09A
:1047E000FF0ABAF1070FF3DB5B208DF81400B52048
:1047F0008DF81A003220FFF74AFF3220FFF747FFFB
:104800009DF8140000F092F94FF0010A0BE005A9A1
:1048100011F80A0000F08AF9AAF1010103AA505424
:10482000881C00F0FF0ABAF1070FF0DB012007B087
:10483000BDE8F00F5DF814FBF0B587B00546002425
:104840001821684600F01DFA6E4800F0F5F804469D
:1048500024046C48801C00F0EFF80443204600F06C
:10486000ACFB06460022654B00F038FBCDE90201A7
:104870006448001D00F0E0F80446E0B28DF8110035
:10488000200A8DF810005F48801D00F0D5F804461E
:10489000E0B28DF813005B48083000F0CDF8044614
:1048A000E0B28DF8120057481C3000F0C5F80446FD
:1048B000E0B28DF8140001208DF800009DF8100082
:1048C000322831DD9DF8110032282DDD00224E4BBB
:1048D000DDE90261304600F097FB25D200224B4B08
:1048E000DDE90261304600F0A7FB1DD29DF8120001
:1048F000032819DD9DF81300012815DD00208DF82F
:10490000130032208DF8100000208DF811000120D6
:104910008DF8000000213C48CDE9021001208DF8FF
:10492000120000208DF8140018226946284600F075
:104930008FF907B0F0BD0FB42DE9FE4F4FF47F4063
:10494000029002984FEA902A4FF0006000EB8A2014
:10495000019000200090FBF73CFF0198FBF77EFFE1
:104960000022264BDDE90E61304600F045FA804614
:104970000022234B00F099F9044600F02BFB4FEA8C
:10498000104B59461F4800F043F800221B4BDDE94D
:104990000E61304600F030FA04460022184B00F059
:1049A00084F9804600F016FB1FFA80FB5946154833
:1049B000801C00F02DF89DF841009DF8402040EA51
:1049C00002211048001D00F023F89DF843100D4807
:1049D000801D00F01DF89DF842100A48083000F0D4
:1049E00017F89DF8441007481C3000F011F8FBF749
:1049F000FCFEBDE8FE0F5DF814FB000000408F4098
:104A00000000E03F00FF00080046BE400094C140A7
:104A100070B504460D46B4F1006F02D308488442D5
:104A200000D370BDFBF7D5FE29462046FCF719F8E8
:104A3000FBF7DBFE00BFF4E7014608887047000083
:104A40000000010808B501211420FCF723FD4FF4F4
:104A5000E060ADF8000028208DF8030069460748A3
:104A6000FCF7D6F94FF44070ADF8000028208DF81F
:104A7000030069460248FCF7CBF908BD0008014075
:104A80000010014000B587B001210520FCF702FDB0
:104A900001210803FCF7FEFC2020ADF804000320F0
:104AA0008DF8060018208DF8070001A96448FCF76E
:104AB000AFF94020ADF8040004208DF8070001A9EB
:104AC0005F48FCF7A5F98020ADF8040003208DF8BD
:104AD000060018208DF8070001A95948FCF798F93D
:104AE0000020ADF808004FF48270ADF80A000020F5
:104AF000ADF80C000220ADF80E000120ADF810005A
:104B00004002ADF812001820ADF814000020ADF8F6
:104B100016000720ADF8180002A94A48FCF744FD2A
:104B200001214848FCF7E5FD07B000BD10B504467B
:104B300000BF02214348FCF760FE0028F9D021465F
:104B40004048FCF707FE00BF01213E48FCF755FE38
:104B50000028F9D03B48FCF7FFFDC0B210BD00B5FE
:104B600087B001210920FCF795FC01218803FCF79F
:104B70009EFC4FF40050ADF8040003208DF80600B1
:104B800018208DF8070001A92F48FCF741F94FF4D0
:104B90008040ADF8040004208DF8070001A92A48E0
:104BA000FCF736F94FF40040ADF8040003208DF80F
:104BB000060018208DF8070001A92348FCF728F902
:104BC0000020ADF808004FF48270ADF80A00002014
:104BD000ADF80C000220ADF80E000120ADF8100079
:104BE0004002ADF812001820ADF814000020ADF816
:104BF00016000720ADF8180002A91448FCF7D4FCF1
:104C000001211248FCF775FD07B000BD10B5044640
:104C100000BF02210D48FCF7F0FD0028F9D0214625
:104C20000A48FCF797FD00BF01210848FCF7E5FDA5
:104C30000028F9D00548FCF78FFDC0B210BD000078
:104C40000008014000300140000C014000380040E5
:104C500040EA01039B0703D009E008C9121F08C0FE
:104C6000042AFAD203E011F8013B00F8013B521E7E
:104C7000F9D27047D2B201E000F8012B491EFBD2F5
:104C800070470022F6E710B513460A460446194657
:104C9000FFF7F0FF204610BD034611F8012B00F886
:104CA000012B002AF9D1184670472DE9FE4F8046A6
:104CB00081EA0300C00F0C46009021F0004123F070
:104CC0000045B8EB0200A94105D240462146904676
:104CD0001C460B46024623F00040104347D0270DE8
:104CE000C7F30A00C3F30A510290401A019040280A
:104CF0006BDAC3F3130040F4801B0098924620B196
:104D00000023D2EB030A63EB0B0B01985946C0F169
:104D10004002504600F0EFF906460D46504659460F
:104D2000019A00F007FA10EB08006141002487EABD
:104D3000115284EAE7731A4340D0009A62B3019A91
:104D4000012A4FEA075215DC001B61EB02014FF00C
:104D5000004202EA0752CDE90042001C41F58011F1
:104D600032462B4600F007FA03B0BDE8F08F40460C
:104D70002146F9E7001B61EB0201001C41F580139D
:104D800000185B412018A2F5001747EB030140EA29
:104D9000D570B6196D4111E06D084FEA360645EA47
:104DA000C0754FEA0752001B61EB0201001C41F580
:104DB000801149084FEA30000019514132462B4614
:104DC00003B0BDE8F04F00F0C7B9009801224000E1
:104DD0000023D0EB020263EBE073009821464FEA18
:104DE000E074B8EB000061EB0401E9E783F00043F5
:104DF0005BE781F0004158E72DE9FE4F81EA0304AB
:104E000004F0004421F0004100944FF0000B23F027
:104E1000004350EA01045ED052EA03045BD0C3F3BE
:104E20000A54C1F30A552C44A4F2F3340194A0FBB4
:104E30000254C1F3130141F48011C3F3130343F48B
:104E4000801301FB024400FB034E840A970A44EAE4
:104E5000815447EA8357A4FB076802958D0A05FB36
:104E600007854FEA932C04FB0C542705029D4FEA5B
:104E7000065847EA1637B5EB08056EEB070C870EA8
:104E8000920E47EA811742EA8312A7FB0201B6EBB2
:104E90000B0164EB00042B0D43EA0C335E1844EB6A
:104EA0001C50DA465146E7FB0201C5F313044FEAF2
:104EB0000B3343EA14534FEA0432019C43EA0603DE
:104EC000A4F10C040294009CCDE900B400F053F965
:104ED00003B0BDE8F08F00200146F9E72DE9F04D61
:104EE00081EA030404F0004B21F0004514464FF022
:104EF000000A23F0004150EA050220D054EA0102E2
:104F00001DD0C5F30A570246C5F31303C1F31300BE
:104F1000C1F30A5640F4801543F48013A7EB06084A
:104F2000101BD64608F2FD3873EB050002D308F1DA
:104F3000010801E092185B41B8F1000F03DA00208C
:104F40000146BDE8F08D00204FF4801106468446EE
:104F50000EE0171B73EB050705D3121B63EB05036C
:104F600006434CEA010C49084FEA300092185B41B5
:104F700050EA0107EDD152EA030012D082EA0400A0
:104F800083EA0501084305D0101BAB4106D201227C
:104F9000002306E000224FF0004302E06FF0010220
:104FA00053101AEB06004CEB085110EB0A0041EBD2
:104FB0000B01BDE8F04D00F0CFB80EB540F2334123
:104FC00002910021CDE900110A460B4600F0D3F80A
:104FD00003B000BDC1F30A5210B5C1F3130140F292
:104FE000FF3341F480119A4201DA002010BD40F2F3
:104FF00033439A42A2F2334203DC524200F08AF871
:1050000010BD904010BD000030B5041E71F10004C9
:1050100004DB4FF00044404264EB0101141E73F1C5
:10502000000405DB1C464FF00043524263EB0403CF
:105030008B4208BF824230BD30B5041E71F10004BE
:1050400004DB4FF00044404264EB0101141E73F195
:10505000000405DB1C464FF00043524263EB04039F
:10506000994208BF904230BD30B50B460146002042
:105070002022012409E021FA02F59D4205D303FA1A
:1050800002F5491B04FA02F52844151EA2F101029B
:10509000F1DC30BD2DE9F05F0546002092469B46CD
:1050A00088460646814640241BE02846414647463E
:1050B000224600F02FF853465A46C01A914110D3A9
:1050C00011461846224600F016F82D1A67EB010823
:1050D0004F4622460120002100F00DF817EB000991
:1050E0004E41201EA4F10104DFDC484631462A4629
:1050F0004346BDE8F09F202A04DB203A00FA02F183
:10510000002070479140C2F1200320FA03F31943B5
:1051100090407047202A04DB203A21FA02F0002157
:10512000704721FA02F3D040C2F1200291400843B7
:1051300019467047202A06DBCB17203A41FA02F0C5
:1051400043EAE07306E041FA02F3D040C2F12002E4
:10515000914008431946704710B5141E73F10004BE
:1051600008DA401C41F1000192185B411A4301D159
:1051700020F0010010BD2DE9F04D92469B4611B183
:10518000B1FA81F202E0B0FA80F220329046FFF7E5
:10519000B2FF04460F4640EA0A0041EA0B015346BB
:1051A0005A46084313D0114653EA010019D0C8F1FA
:1051B00040025046FFF7AEFF05460E4650465946A0
:1051C0004246FFF798FF084305D0012004E020463F
:1051D0003946BDE8F08D0020054346EAE0762C43D1
:1051E00037430A986305E40AA0EB08000022FD0A91
:1051F00044EA47540A3002D500200146E9E7010598
:1052000010196941DDE9084500196941BDE8F04D13
:10521000A2E7C1F30A52C1F3130140F2FF3341F494
:1052200080119A4202DA00200146704740F233436F
:105230009A42A2F2334202DC5242FFF76BBFFFF701
:105240005ABF0000064C074D06E0E06840F001033D
:1052500094E8070098471034AC42F6D3FAF76CFF95
:10526000C85E0008E85E00080FB4084B10B504A93A
:1052700002AA039800F0E0F8044602A9002000F01A
:105280001EFE204610BC5DF814FB0000BF5E000847
:105290007CB5491E1C461546CDE90001044B6A4603
:1052A0002146284600F040FA009A002111707CBD8A
:1052B000A95E000802E008C8121F08C1002AFAD13E
:1052C00070477047002001E001C1121F002AFBD186
:1052D000704700002DE9FF5FDDE90220010DDDF8D8
:1052E00038B0024318D044F61050A1F2FF314143C8
:1052F0000D140F98012820D0A5EB0B00401C5FEA8D
:10530000000A4FF00004474EDFF81C91A0465046BB
:1053100016D5CAF1000728E00F98012443A20128FE
:1053200008D0002100980F9BC0E90021C0E902438A
:10533000BDE8FF9F6FEA0B01F4E7CBF10000DEE769
:10534000074612E0F80707D0224633464046494652
:10535000FFF752FD804689462246334610461946DD
:10536000FFF74AFD04460E467F10002FEAD1DDE923
:105370000201BAF1000F42464B4602DAFFF73CFD4C
:1053800001E0FFF7ABFD04460E460022284BFFF775
:1053900053FE03D84FF0FF30014607E00022254BB3
:1053A00020463146FFF781FCFFF733FF102409E068
:1053B000002C0ADB0A220023FFF76CFE019B30322F
:1053C0001A55641E50EA0102F2D1641C019AC4F11C
:1053D000110314440F9A012A03D0012208430DD16E
:1053E0000AE0084304D000204FF0110B0F9080E733
:1053F000A3EB0B056D1E0DE05B4504DD4FF00002D5
:1054000005F1010504E003DA4FF00002A5F1010502
:10541000002AECD000980F99C0E90231C0E900459C
:1054200086E70000000024400000F03F300000004C
:105430000000F0430000E03F2DE9FF4F8BB08846AD
:105440000546002606E025280BD0DDE90D12904721
:105450006D1C761C28780028F5D10FB03046BDE8C9
:10546000F08F0024A146A2460122AE4900E0044389
:1054700015F8013F203B02FA03F00842F7D12878E3
:105480002A2810D06FF02F022878A0F130010929C6
:1054900015D809EB890102EB410144F0020400EB4D
:1054A00001096D1CF0E758F8041B5FEA010903D5F8
:1054B00044F40054C9F1000944F002046D1C28783A
:1054C0002E2817D115F8010F44F004042A280ED015
:1054D0006FF02F022878A0F1300109290AD80AEBD1
:1054E0008A0102EB410100EB010A6D1CF2E758F85A
:1054F00004AB6D1C28786C280FD006DC4C2817D024
:1055000068280DD06A2814D104E0742810D07A28B5
:105510000FD10DE044F400140AE044F4801401E0DB
:1055200044F440146978814202D104F580146D1C62
:105530006D1C2878692865D006DC00288DD063288A
:1055400027D0642806D15DE06E2808D073282AD0C1
:10555000752877D0DDE90D129047761CE0E0C4F3A2
:105560000250022809D003280DD0D8F800100428D2
:105570000DD00E6008F10408D2E0D8F80010F21740
:10558000C1E90062F6E7D8F800100E80F2E70E706D
:10559000F0E718F8041B8DF8001000208DF80100CA
:1055A000EB46012003E058F804BB4FF0FF306107E1
:1055B0004FF0000701D40AE07F1C57450DDA8742FF
:1055C000FADB1BF807100029F6D106E07F1C8742A2
:1055D000FCDB1BF807100029F8D1DDE90D23A9EB4E
:1055E00007008146214600F031FC3044C61904E032
:1055F000DDE90D121BF8010B90477F1EF8D2214602
:10560000484688E058F8040BC4F302514FF00A0BE7
:10561000032900D100B2042900D140B2002802DAE7
:1056200040422D2102E0210505D52B218DF82410C3
:10563000012104E006E0E10710D02021F6E708AFE1
:10564000089113E058F8040BC4F302514FF00A0B11
:10565000032900D180B2042900D1C0B20021EEE7B5
:105660005946FFF701FD303107F8011D0028F7D139
:10567000ADEB070000F1200B600702D524F4803465
:1056800001E04FF0010ADA4502DDAAEB0B0000E071
:105690000020824600EB0B0108980144A9EB0100B1
:1056A0000A90E00306D4DDE90D2321460A9800F0B4
:1056B000CDFB06444FF0000908E009A911F80900E4
:1056C000DDE90D12904709F10109761C0899894519
:1056D000F3DBE0030CD5DDE90D2321460A9800F049
:1056E000B5FB064404E0DDE90D1230209047761C3E
:1056F000BAF10001AAF1010AF5DC05E0DDE90D12BD
:1057000017F8010B9047761CBBF10001ABF1010BC0
:10571000F4DC0A982146DDE90D2300F073FB064412
:105720006D1C97E6092801002DE9FF4F95B09B46B7
:105730008946064600250FE2252877D10024274612
:10574000F84A0121059400E0044316F8013F203B8C
:1057500001FA03F01042F7D130782A2811D06FF007
:105760002F033078A0F13002092A16D8059A44F0A8
:10577000020402EB820203EB42021044761C059005
:10578000EFE759F8042B0592002A03DA504244F45B
:105790000054059044F00204761C30782E2816D16F
:1057A00016F8010F44F004042A280DD06FF02F02E0
:1057B0003078A0F13003092B09D807EB870302EBFF
:1057C0004303C718761CF3E759F8047B761C30783E
:1057D0006C280FD006DC4C2817D068280DD06A281A
:1057E00014D104E0742810D07A280FD10DE044F4CD
:1057F00000140AE044F4801401E044F44014727888
:10580000824202D104F58014761C761C307866281A
:105810000BD013DC582877D009DC002875D0452838
:10582000F6D04628F4D047281AD19DE118E0632825
:1058300035D0642879D0652812D195E1702873D0CD
:1058400008DC6728F1D069286FD06E280DD06F284A
:1058500006D1B5E073282CD0752875D0782874D07F
:105860005A46179990476D1C75E1C4F302500228FF
:1058700009D003280DD0D9F8001004280DD00D60F0
:1058800009F1040967E1D9F80010EA17C1E90052EB
:10589000F6E7D9F800100D80F2E70D70F0E719F87F
:1058A000041B8DF8001000208DF80100EA4601204D
:1058B00003E059F804AB4FF0FF3061074FF00001EF
:1058C00002D40DE008F101018846B9420FDA8045A3
:1058D000F8DB1AF808100029F4D108E008F10101FA
:1058E00088468142FADB1AF808100029F6D105989B
:1058F0005B46A0EB080721463846179A00F0BDFA30
:10590000284400EB080507E04DE029E10DE01AF816
:10591000010B5A4617999047B8F10108F7D25B4638
:1059200021463846179A13E142E00A220092C4F356
:1059300002524FF0000A022A08D059F804CB032A79
:105940004FEAEC710AD00DE029E02AE009F10701E5
:1059500021F00702F2E802C1914609E00FFA8CFC3F
:105960004FEAEC71042A03D14FFA8CFC4FEAEC7138
:10597000002907DA0A460021DCF1000C61EB020184
:105980002D2202E0220504D52B228DF804200122CD
:1059900003E0E20701D02022F7E7904659E00A2110
:1059A00002E010220DE010214FF0000A00910BE000
:1059B00010224FF0000A44F004040827009203E08C
:1059C00008224FF0000A0092C4F30252022A05D0C6
:1059D00059F804CB0021032A08D009E009F1070196
:1059E00021F00702F2E802C1914605E01FFA8CFCA3
:1059F000042A01D10CF0FF0C4FF00008220728D533
:105A0000702806D0009B83F0100353EA0A0305D0E8
:105A10000EE040228DF80420012208E05CEA010239
:105A200006D030228DF804208DF805000222904621
:105A3000009B83F0080353EA0A030AD15CEA0102DF
:105A400001D1620705D530228DF804204FF00108FE
:105A50007F1E582804D034A003900EA802900DE0B9
:105A600036A0F9E753466046009AFFF713FB8446D9
:105A70000398825C0298401E029002705CEA01006A
:105A8000F0D1029806A9081A00F1200A600702D591
:105A900024F4803400E00127574502DDA7EB0A001B
:105AA00000E0002000EB0A01009005984144401AF4
:105AB0000590E00306D45B462146179A059800F04E
:105AC000DCF90544002706E001A85A46C05D179995
:105AD00090476D1C7F1C4745F6DBE0030CD55B4609
