:020000040800F2
:100000004004002001010008811E0008831E000832
:10001000871E00088B1E00088F1E000800000000CD
:10002000000000000000000000000000931E000817
:10003000951E000800000000971E0008991E000889
:100040001B0100081B0100081B0100081B01000820
:100050001B0100081B0100081B0100081B01000810
:100060001B0100081B0100081B0100081B01000800
:100070001B0100081B0100081B0100081B010008F0
:100080001B0100081B0100081B0100081B010008E0
:100090001B0100081B0100081B0100081B010008D0
:1000A0001B0100081B0100081B0100081B010008C0
:1000B0001B0100081B0100081B0100081B010008B0
:1000C0001B0100081B0100081B0100085320000849
:1000D0001B0100081B0100081B0100081B01000890
:1000E0001B0100081B0100081B010008DFF80CD0F1
:1000F00002F048FB00480047871C0008400400202D
:100100000648804706480047FEE7FEE7FEE7FEE7B1
:10011000FEE7FEE7FEE7FEE7FEE7FEE72501000853
:10012000ED0000087848006840F00100764908605A
:100130000846406848600846406840F4201048601F
:100140000846406848600846006840F080700860D3
:1001500000BF6D48006800F000700028F9D06A48C0
:10016000406820F00300684948600846406840F055
:100170000200486000BF6448406800F00C00082896
:10018000F9D1614840686049486008464068486065
:100190000846406840F480604860704710B5002110
:1001A00000200022584B5B6803F00C0121B10429A8
:1001B00006D0082928D107E0544B554C236027E08E
:1001C000524B534C236023E04F4B5B6803F4701099
:1001D0004D4B5B6803F48032022303EB904022B95D
:1001E0004C4B43434A4C23600DE0474B5B6803F4A0
:1001F000003323B1474B4343454C236003E0434B5B
:100200004343434C236003E0404B414C236000BF19
:1002100000BF3D4B5B68C3F303133F4CE15C3C4BB9
:100220001B68CB403A4C236010BD0CB500200190F8
:1002300000903548006840F480303349086000BFC2
:100240003148006800F4003000900198401C019093
:10025000009818B90198B0F5A06FF1D12A4800684C
:1002600000F4003010B10120009001E00020009067
:100270000098012843D12948006840F01000274920
:1002800008600846006820F003000860084600681F
:1002900040F0020008601C4840681B49486008465E
:1002A000406848600846406840F4806048600846FE
:1002B000406820F47C1048600846406840F4E8102C
:1002C00048600846006840F08070086000BF0E4833
:1002D000006800F000700028F9D00B48406820F05A
:1002E0000300094948600846406840F00200486041
:1002F00000BF0548406800F00C000828F9D10CBD8B
:1003000010B5FFF792FF10BD0010024000127A00F6
:100310000000002000093D000400002000200240F1
:1003200031490143314A1160704770B50021002303
:100330000F22C47804B32D4C246804F4E064C4F59F
:10034000E064210AC1F10403CA40447804FA03F1CD
:100350008478144021430901254C0678A15504787E
:1003600004F01F050124AC4005786D11AD0005F1C6
:10037000E025C5F8004109E0047804F01F050124D8
:10038000AC401C4D0678761145F8264070BD1A4ADF
:100390000A400243154B1B1F1A60704739B1134ABC
:1003A000121D12680243114B1B1D1A6006E00F4A12
:1003B000121D126882430D4B1B1D1A6070470428E2
:1003C00008D14FF0E021096941F004014FF0E0222B
:1003D000116107E04FF0E021096921F004014FF0BD
:1003E000E0221161704700000000FA050CED00E00A
:1003F00000E400E080E100E080FFFF1F10B504464C
:10040000CC48844208D10121042000F04DFB00219A
:10041000042000F049FB46E0C748844208D101218E
:10042000082000F041FB0021082000F03DFB3AE0ED
:10043000C248844208D10121102000F035FB002180
:10044000102000F031FB2EE0BD48844208D101218C
:10045000202000F029FB0021202000F025FB22E0D5
:10046000B848844208D10121402000F01DFB002142
:10047000402000F019FB16E0B348844208D1012166
:10048000802000F011FB0021802000F00DFB0AE02D
:10049000AE48844207D10121801500F005FB002100
:1004A000A01500F001FB10BD10B50121084600F0B9
:1004B000FBFA0021012000F0F7FA10BD2DE9F04110
:1004C000024600250026002000230024002791F882
:1004D00003C00CF00F0591F803C00CF0100CBCF138
:1004E000000F03D091F802C04CEA050591F800C056
:1004F000BCF1000F31D0146800202BE04FF0010C4C
:100500000CFA00F3B1F800C00CEA03069E4220D1B9
:1005100083004FF00F0C0CFA03F7BC4305FA03FC01
:100520004CEA040491F803C0BCF1280F06D14FF047
:10053000010C0CFA00FCC2F814C00AE091F803C0E8
:10054000BCF1480F05D14FF0010C0CFA00FCC2F8C9
:1005500010C0401C0828D1D31460B1F800C0BCF111
:10056000FF0F34DD546800202EE000F1080C4FF03E
:10057000010808FA0CF3B1F800C00CEA03069E4229
:1005800021D183004FF00F0C0CFA03F7BC4305FA9E
:1005900003FC4CEA040491F803C0BCF1280F05D118
:1005A00000F1080C08FA0CF8C2F8148091F803C0A6
:1005B000BCF1480F07D100F1080C4FF0010808FA10
:1005C0000CF8C2F81080401C0828CED35460BDE857
:1005D000F0814FF6FF710180022181700421C1700A
:1005E00070470246002093680B400BB1012000E0E9
:1005F000002070470146886880B27047024600209C
:10060000D3680B400BB1012000E000207047014689
:10061000C86880B2704701617047416170470AB194
:10062000016100E041617047C16070474FF4803262
:100630000A438261816182618269826970470246F0
:100640000020434B18684FF68073184040EA0210B0
:1006500008433F4B186070473E49C8617047F0B58A
:100660000A46002300240021002500F00046B6F1D0
:10067000004F02D1364EF16901E0354E7168C0F38A
:10068000034583B200F44016B6F5401F08D121F0AF
:1006900070612F4E766826F070662D4F7E6012E0F6
:1006A00000F48016B6F5801F06D1032606FA05F47D
:1006B000A14341F0706106E0460D360103FA06F6EB
:1006C000B14341F0706122B1460D360103FA06F6DE
:1006D000314300F00046B6F1004F02D11C4EF161EB
:1006E00001E01B4E7160F0BD30B500228B071C0F7E
:1006F0000F2303FA04F2164B08338C1053F82430FE
:100700009343134C08348D1044F8253023468C1045
:1007100053F824308C07240F00FA04F423430C4CC4
:1007200008348D1044F8253030BD0A49DC310860AA
:100730007047000000080140000C0140001001401B
:100740000014014000180140001C0140002001403D
:1007500000000140000020420E49086070470D492A
:10076000486070470B49886070474AF6AA200949DB
:10077000086070474CF6CC40064908607047014657
:100780000020044AD2680A400AB1012000E000209B
:100790007047000000300040DF48006840F0010072
:1007A000DD49086008464068DC490840DA4948608D
:1007B00008460068DA490840D749086008460068DA
:1007C00020F4802008600846406820F4FE0048605D
:1007D0004FF41F0088607047CF49096821F48031C9
:1007E000CD4A11601146096821F480211160B0F5ED
:1007F000803F03D0B0F5802F0ED106E0C6490968CE
:1008000041F48031C44A116007E0C349096841F4EA
:10081000A021C14A116000E000BF00BF704710B5C1
:1008200001460022002300204A11012A02D1BA4CBD
:10083000236806E0022A02D1B74C236A01E0B64CD5
:10084000636A01F01F02012494401C400CB1012096
:1008500000E0002010BD38B50020009000240025E5
:1008600000BF3120FFF7DBFF05460098401C0090D9
:100870000098B0F5A06F01D0002DF2D03120FFF725
:10088000CEFF08B1012400E00024204638BD014617
:100890000020A14A106820F0F80040EAC100106072
:1008A0007047A04908607047024600209A4B58687C
:1008B00020F47C1042EA01031843974B58607047BC
:1008C00098490866704701460020934A506820F016
:1008D00003000843506070478F48406800F00C00E8
:1008E0007047014600208C4A506820F0F000084311
:1008F0005060704701460020874A506820F4E0604D
:1009000008435060704701460020834A506820F435
:10091000605040EAC1005060704729B17E4A527A67
:1009200002437D4B5A7204E07B4A527A82437A4BEF
:100930005A7270477B49D8310860704701460020E1
:10094000754A506820F440400843506070470021C9
:10095000714A20321170704A82F82010012802D0AA
:1009600004280AD104E001216B4A2032117005E00D
:100970000521694A2032117000E000BF00BF7047B6
:100980006949086070476449096A0143624A116213
:100990007047654944390860704730B5002100222E
:1009A000002400235C4D6D6805F00C0121B1042981
:1009B00005D0082923D105E05C4D056022E05B4DA0
:1009C00005601FE0544D6D6805F47012524D6D685E
:1009D00005F48034022505EB92421CB9544D554371
:1009E00005600BE04C4D6D6805F400351DB1504DB0
:1009F0005543056002E04D4D5543056002E04B4D07
:100A0000056000BF00BF444D6D6805F0F0010909A5
:100A1000484D6B5C0568DD4045603F4D6D6805F4F1
:100A2000E061090A434D6B5C4568DD4085603A4DE5
:100A30006D6805F46051C90A3E4D6B5C4568DD4048
:100A4000C560354D6D6805F44041890B3A4D6B5CCE
:100A5000C568B5FBF3F5056130BD29B12E4A526971
:100A600002432D4B5A6104E02B4A526982432A4BC0
:100A70005A61704729B1284A92690243264B9A610C
:100A800004E0254A92698243234B9A61704729B159
:100A9000214AD2690243204BDA6104E01E4AD2693E
:100AA00082431D4BDA61704729B11B4AD268024369
:100AB000194BDA6004E0184AD2688243164BDA60B8
:100AC000704729B1144A12690243134B1A6104E0BA
:100AD000114A12698243104B1A617047124940391A
:100AE000086070470F49C86470470B49C871704768
:100AF0000948406A40F080700749486270470146E3
:100B00000020054A92680A400AB1012000E0002056
:100B10007047014988727047001002400000FFF8DA
:100B2000FFFFF6FE000042428004424200127A00BB
:100B300000093D00140000202400002010B50446E8
:100B4000BE48844208D101218014FFF7ADFF002187
:100B5000A014FFF7A9FF16E0B948844208D101218B
:100B60000014FFF7AEFF00212014FFF7AAFF0AE0F0
:100B7000B448844207D10121C013FFF7A2FF00212E
:100B8000E013FFF79EFF10BD10B50022028802F4AB
:100B900041520B884C8823438C882343CC882343C1
:100BA0000C8923434C8923438C892343CC892343D9
:100BB0001A430280838B4FF2FF74234083830B8A96
:100BC000038210BD2DE9F04F85B005460C464FF06D
:100BD000000902274FF000084FF0010B0026B24633
:100BE000A88B4FF240010840A88302202884B5F862
:100BF0001C90A068022801D100BF38E0A08810B97D
:100C00004FF0010B01E04FF0020B8D48854200D1FF
:100C100000E000BF6846FFF7C0FEDDF800A0E088F6
:100C2000B0F5007F0AD14FEA1A2000EB80004000A7
:100C3000A168B0FBF1F0401D86B20BE04FEA4B100B
:100C4000BAFBF0F000EB80004000A168B0FBF1F0CF
:100C5000401D86B20A20B6FBF0F606F00108A6EBAE
:100C60000800C0F34F074FF6FF7000EA0828022F74
:100C700001DBFF2F02DD02274FF00008E08840EA89
:100C8000080038432884A088A18908436188084364
:100C90002188084340F4006040EA0909A5F81C9047
:100CA00005B0BDE8F08F0021018041808180C180C6
:100CB000018141818181C181072101827047002129
:100CC000018041808180C180022181600021818179
:100CD000704721B1028842F04002028004E002889D
:100CE0004FF6BF731A400280704721B1828B42F4E5
:100CF0008062828304E0828B4FF6FF331A40828346
:100D0000704730B5002400230C110125A540ABB27B
:100D10001AB185881D43858002E085889D438580C2
:100D200030BD1AB183880B43838002E083888B43F4
:100D300083807047818170470146888970474FF6EC
:100D4000FF62914204D0028842F48072028004E083
:100D500002884FF6FF631A400280704721B18288F3
:100D600042F00402828004E082884FF6FB731A404E
:100D70008280704702884FF2FF731A400280028817
:100D80000A4302807047018841F480510180704716
:100D900021B1028842F40052028004E002884DF63C
:100DA000FF731A400280704702460020012901D0DB
:100DB000108B00E0908A70470146088A7047B1F5B1
:100DC000804F04D1028842F48042028004E002880D
:100DD0004BF6FF731A4002807047024600201389C9
:100DE0000B400BB1012000E000207047CA43028194
:100DF0007047F0B50246002000240023002501F0D2
:100E00000F070126BE40B4B20B1101269E40B3B2BB
:100E1000968806EA03051689264016B10DB1012011
:100E200000E00020F0BD10B5002201F00F04012306
:100E3000A3409AB2D343038110BD000000300140AB
:100E400000380040003C004010B50446FE48844293
:100E500008D10121C014FFF727FE0021E014FFF79D
:100E600023FEC4E0B4F1804F08D101210846FFF70A
:100E700028FE00210120FFF724FEB8E0F348844259
:100E800008D101210220FFF71CFE00210220FFF7FC
:100E900018FEACE0EE48844208D101210420FFF79F
:100EA00010FE00210420FFF70CFEA0E0E948844278
:100EB00008D101210820FFF704FE00210820FFF7D8
:100EC00000FE94E0E448844208D101211020FFF79D
:100ED000F8FD00211020FFF7F4FD88E0DF48844290
:100EE00008D101212020FFF7ECFD00212020FFF791
:100EF000E8FD7CE0DA48844208D101214014FFF784
:100F0000D3FD00216014FFF7CFFD70E0D548844287
:100F100009D10121C804FFF7C7FD00214FF40020CB
:100F2000FFF7C2FD63E0D048844209D101210805E2
:100F3000FFF7BAFD00214FF48010FFF7B5FD56E032
:100F4000CA48844209D101214805FFF7ADFD0021BF
:100F50004FF40010FFF7A8FD49E0C548844208D1CE
:100F600001214020FFF7ADFD00214020FFF7A9FD42
:100F70003DE0C048844208D101218020FFF7A1FD57
:100F800000218020FFF79DFD31E0BB48844208D15D
:100F900001218015FFF795FD0021A015FFF791FDB8
:100FA00025E0B648844209D101210804FFF77CFD01
:100FB00000214FF48030FFF777FD18E0B0488442FD
:100FC00009D101214804FFF76FFD00214FF40030E3
:100FD000FFF76AFD0BE0AB48844208D10121880489
:100FE000FFF762FD00214FF48020FFF75DFD10BD8B
:100FF00000220288944B98420ED0994B98420BD015
:10100000B0F1804F08D0914B984205D0904B984258
:1010100002D0904B984204D14FF68F731A404B8800
:101020001A438D4B984207D08C4B984204D04FF610
:10103000FF431A40CB881A4302808B8883850B8834
:101040000385814B98420BD0854B984208D08B4B3F
:10105000984205D08A4B984202D08A4B984201D1DF
:101060000B7A038601238382704770B50024002227
:101070000023058C4FF6FE7635400584028C83886C
:10108000048B4FF68F752C40B51E2C400D882C43D9
:10109000751E2A400D892A434D882A436A4DA8426D
:1010A0000BD06F4DA84208D0744DA84205D0744DA6
:1010B000A84202D0734DA84213D14FF6F7752A40CB
:1010C0004D892A434FF6FB752A408D882A434FF6F7
:1010D000FF652B404FF6FF552B408D892B43CD8963
:1010E0002B4383800483CD888586028470BD70B5D0
:1010F000002400220023058C4FF6EF76354005844E
:10110000028C8388048B48F6FF752C404FF6FF4510
:101110002C400D884FF6FF7606EA05252C434FF646
:10112000DF752A400D8906EA05152A434D8806EA2F
:1011300005152A43444DA84202D0494DA8421DD16D
:101140004FF67F752A404D894FF6FF7606EA051562
:101150002A434FF6BF752A408D8806EA05152A43B3
:101160004FF6FF352B404FF2FF752B408D8906EA75
:1011700085052B43CD8906EA85052B4383800483AF
:10118000CD880587028470BD70B50024002200233D
:10119000058C4FF6FF6635400584028C8388848B6E
:1011A0004FF68F752C404FF6FC752C400D882C4364
:1011B0004FF6FF552A400D894FF6FF7606EA0525C2
:1011C0002A434D8806EA05252A431F4DA84202D02E
:1011D000234DA8421DD14FF2FF752A404D894FF68D
:1011E000FF7606EA05252A434FF6FF352A408D880B
:1011F00006EA05252A434EF6FF752B404DF6FF758E
:101200002B408D8906EA05152B43CD8906EA051585
:101210002B4383808483CD888587028470BD70B51D
:10122000002200230024058C4EF6FF76354005840D
:10123000038C8488828B48F6FF752A404FF6FF4561
:101240002A400D8820E00000002C014000040040EE
:1012500000080040000C0040001000400014004056
:1012600000340140004C0140005001400054014056
:1012700000180040001C00400020004000400140D9
:1012800000440140004801404FF6FF7606EA05257C
:101290002A434DF6FF752B400D8906EA05352B4391
:1012A0004D8806EA05352B43FA4DA84202D0FA4D87
:1012B000A84208D14BF6FF752C408D894FF6FF767A
:1012C00006EA85152C4384808283CD88A0F840509F
:1012D000038470BD828B4FF2FF331A408283828B6E
:1012E0004FF6FF7303EA01231A4382837047F0B578
:1012F0000C461546002200210026078C4EF6FF7C86
:1013000007EA0C070784828B018C4FF6FF7707EA08
:10131000043640F6FF473A404FF6FF7707EA0527C5
:101320003A434FF6FF7707EA03373A43D94FB842BB
:101330000ED0D94FB8420BD0B0F1804F08D0D74F64
:10134000B84205D0D64FB84202D0D64FB84206D1E7
:101350004DF6FF77394046F48057394305E047F6AC
:10136000FF57394044F48057394382830184F0BDEC
:10137000828B4FF6F3731A408283828B0A438283F7
:101380007047F0B50C461546002200210026078C58
:101390004FF6FF6C07EA0C070784828B018C4FF62F
:1013A000FF7707EA04264FF60C773A404FF6FF77AF
:1013B00007EA03172F433A43B64FB8420ED0B64F51
:1013C000B8420BD0B0F1804F08D0B44FB84205D02E
:1013D000B34FB84202D0B34FB84206D14FF6FF57D1
:1013E000394046F48077394305E04FF2FF573940E2
:1013F00044F48077394382830184F0BD028B4FF23D
:10140000FF331A400283028B4FF6FF7303EA012376
:101410001A4302837047F0B50C461546002200219E
:101420000026078C4FF6EF7C07EA0C070784028B37
:10143000018C4FF6FF7707EA041640F6FF473A4063
:101440004FF6FF7707EA03373A434FF6FF7707EA8D
:1014500005273A438F4FB8420ED08F4FB8420BD07A
:10146000B0F1804F08D08D4FB84205D08C4FB842B4
:1014700002D08C4FB84206D14FF6DF77394046F0A4
:101480001007394305E04FF65F77394044F0100705
:10149000394302830184F0BD028B4FF6F3731A4087
:1014A0000283028B0A4302837047F0B50C4615464F
:1014B00000220021068C4FF6FE773E400684028B08
:1014C000018C4FF60C7632407E1C06EA03162E4342
:1014D0003243704EB0420ED06F4EB0420BD0B0F1DE
:1014E000804F08D06D4EB04205D06D4EB04202D054
:1014F0006C4EB04206D14FF6FD76314044F0010605
:10150000314305E04FF6F576314044F001063143B2
:1015100002830184F0BD70B505460C465D488542E6
:101520000ED05D4885420BD0B5F1804F08D05B48A6
:10153000854205D05A48854202D05A48854200D19A
:1015400000E000BF208850B92389A288618828461E
:10155000FFF7ABFFE1882846FFF79EFF25E02088D4
:1015600004280AD12389A28861882846FFF753FFFF
:10157000E1882846FFF742FF17E0208808280AD1B3
:101580002389A28861882846FFF7FBFEE188284668
:10159000FFF7EEFE09E02389A28861882846FFF75D
:1015A000A6FEE1882846FFF795FE70BD2DE9F041C3
:1015B00005460C4600260127608808B9022600E08F
:1015C0000026A088012801D1022700E001272088F9
:1015D000A0B92389A28861882846FFF766FFE188C1
:1015E0002846FFF759FF23893A4631462846FFF738
:1015F00012FFE1882846FFF701FF13E02389A28844
:1016000061882846FFF707FFE1882846FFF7F6FEC6
:1016100023893A4631462846FFF747FFE1882846A6
:10162000FFF73AFFBDE8F0810A884B881A438B88A0
:101630001A43CB881A430B891A434B891A438B8967
:101640001A43A0F8442070474FF6FF7181800021B3
:101650000180C1804180017270470021018041807A
:101660008180C180018141818181C18170470021D8
:1016700001804180012181800021C180018170476A
:101680000021018041808180C1800181418181816F
:1016900070470000002C014000340140000400406D
:1016A00000080040000C004021B1028842F0010215
:1016B000028004E002884FF6FE731A4002807047F1
:1016C00031B1B0F8442042F40042A0F8442005E0D3
:1016D000B0F84420C2F30E02A0F8442070471AB1BB
:1016E00083890B43838102E083898B438381704725
:1016F0008182704741EA0203A0F8483070471AB16E
:1017000083890B43838102E083898B438381704704
:1017100001894FF6F8721140018170470A46002195
:1017200001894FF68F73194011430181704730B51D
:1017300004460D4629462046FFF7F0FF208940F079
:101740000700208130BD2DE9F04104460D461646C4
:101750001F46602D06D13B46012231462046FFF749
:101760005AFE05E03B46012231462046FFF79DFE2A
:1017700029462046FFF7D2FF208940F0070020814C
:10178000BDE8F08130B50C4600210189C9B24FF6A1
:10179000FF7505EA0325154325432943018130BD23
:1017A0002DE9F04105460E4617469846002443466B
:1017B0003A4631462846FFF7E5FF2C894FF6F87088
:1017C000044044F007044FF68F70044044F0700466
:1017D0002C81BDE8F081F0B504460D4616461F4643
:1017E0003B46324629462046FFF7CCFF208940F48D
:1017F00080402081F0BD0185828270470A46002129
:1018000001884FF68F731940114301807047F0B57E
:101810000C4615461E460021002200230189028B3A
:10182000038C4FF6F877394021434FF6FC473A4096
:1018300040F201173A434FF6DD773B404FF6FF7712
:1018400007EA06172F433B43018102830384F0BD5F
:101850000A460021018B4FF68F7319401143018313
:1018600070470A460021018B48F6FF7319404FF676
:10187000FF7303EA02231943018370470A460021DC
:10188000818B4FF68F7319401143818370470A464D
:101890000021818B48F6FF7319404FF6FF7303EA6E
:1018A000022319438183704721B1028842F08002EC
:1018B000028004E002884FF67F731A40028070476E
:1018C00021B1828842F00402828004E082884FF6CF
:1018D000FB731A408280704721B1828842F008026F
:1018E000828004E082884FF6F7731A408280704746
:1018F00021B1828842F00102828004E082884FF6A2
:10190000FE731A40828070470A460021018B4FF611
:10191000F77319401143018370470A460021018B78
:101920004FF2FF7319404FF6FF7303EA0223194386
:10193000018370470A460021818B4FF6F7731940E7
:101940001143818370470A460021818B4FF2FF7358
:1019500019404FF6FF7303EA02231943818370474E
:101960000A460021018B4FF6FB7319401143018396
:1019700070470A460021018B4FF6FF3319404FF69E
:10198000FF7303EA02231943018370470A460021CB
:10199000818B4FF6FB7319401143818370470A46D0
:1019A0000021818B4FF6FF3319404FF6FF7303EA96
:1019B00002231943818370470A460021018B4FF6A9
:1019C0007F7319401143018370470A460021018B40
:1019D000C1F30E014FF6FF7303EA0223194301839B
:1019E00070470A460021818B4FF67F7319401143DF
:1019F000818370470A460021818BC1F30E014FF6A7
:101A0000FF7303EA02231943818370470A460021CA
:101A1000018C4FF6FD7319401143018470470A464B
:101A20000021018C4FF6F773194011430184704770
:101A30000A460021018C4FF6DF7319404FF6FF7301
:101A400003EA02131943018470470A460021018CFE
:101A50004FF67F7319404FF6FF7303EA02131943E1
:101A6000018470470A460021018C4FF6FF5319404C
:101A70004FF6FF7303EA02231943018470470A46B5
:101A80000021018C4FF2FF7319404FF6FF7303EAF8
:101A900002231943018470470A460021018C4DF648
:101AA000FF7319404FF6FF7303EA023319430184B1
:101AB000704730B5002301248C40A3B2048C9C43B2
:101AC0000484048C02FA01F5ADB22C43048430BDC9
:101AD00030B5002304248C40A3B2048C9C430484BE
:101AE000048C02FA01F5ADB22C43048430BD70B50C
:101AF0000346002000241846183001258D40ACB262
:101B00001D8CA5431D8409B1082909D100EB610092
:101B1000056825F0700505600568154305600EE051
:101B20000D1FC5F34E052844056825F4E045056002
:101B300005684FF6FF7606EA02263543056070BD5C
:101B400021B1028842F00202028004E002884FF6CE
:101B5000FD731A400280704721B1028842F00402EE
:101B6000028004E002884FF6FB731A40028070473F
:101B700021B1828842F08002828004E082884FF6A0
:101B80007F731A408280704702884FF6F7731A40BD
:101B9000028002880A430280704782884FF68F7362
:101BA0001A40828082880A438280704702894FF6F9
:101BB000F8731A40028102890A4302817047028940
:101BC0004FF67F731A40028102890A4302817047EF
:101BD000818470478185704781867047018770478F
:101BE00081877047A0F84010704702884FF6FF4386
:101BF0001A40028002880A43028070470146888E9C
:101C000070470146088F70470146888F704701462C
:101C1000B1F8400070470146888C70470146088D36
:101C2000704702460020138A0B400BB1012000E0F0
:101C300000207047CA430282704730B50246002038
:101C400000230024158A05EA0103958905EA0104A9
:101C500013B10CB1012000E0002030BDCA43028264
:101C60007047000010B545F25550FEF775FD06208F
:101C7000FEF775FD4FF4C870FEF774FDFEF775FDB5
:101C8000FEF778FD10BD8EB0002400210891099167
:101C900073497448CDE9061001A8FEF77EFE4FF4A3
:101CA000A060FEF73DFB00200C900D900A900B9079
:101CB00000F0F4F800F0ADFA00F010FB00F04CFB7F
:101CC00000F04AF9FFF7CEFFC8E067480078002827
:101CD0007ED0664800785A286FD164488079A5285C
:101CE0006BD16248407800046049897840EA01205D
:101CF0005E49C9780843C0100C905C48C078400722
:101D0000800E5A49097940EA61108DF8340057482D
:101D1000007900F01F008DF835005448407980119B
:101D20008DF8360051484079C0F340108DF83700E7
:101D30000A990C98884200D124B90C9800F054FB01
:101D40000C980A909DF834009DF82C10884200D120
:101D500054B99DF83410C1F13201C8B200F05DFCF5
:101D60009DF834008DF82C009DF835009DF82D105D
:101D7000884200D13CB99DF8350000F0FFFB9DF88A
:101D800035008DF82D009DF836009DF82E10884204
:101D900000D13CB99DF8360000F0A2FC9DF8360059
:101DA0008DF82E009DF837009DF82F10884200D145
:101DB0001CB99DF837008DF82F000A98C0F3473002
:101DC0002B4908700A98C0F3471048700A9800E041
:101DD00027E0C0009DF82C1040EAE10024498870FB
:101DE0009DF82D009DF82C1040EA41102049C87044
:101DF0009DF82E0080019DF82F1040EA41101C49EB
:101E00000871B520487100200C900D9017480021F2
:101E100001608180817100201349087015490870A4
:101E200001241548008849F64041884212DC1248D6
:101E30000088884209D100200B4908700D490870BC
:101E40000A4800210160818081710B480088401C94
:101E5000094908804AF6AA200849086035E70000C9
:101E6000448B6CE7FBA9F33F3000002028000020E2
:101E7000310000202F0000203800002000300040FA
:101E8000704700BFFEE700BFFEE700BFFEE700BFF0
:101E9000FEE7704770477047704700000EB501219C
:101EA0000420FEF7F4FD4FF6FF70ADF804002F207C
:101EB000ADF800000020ADF80600ADF8020069465C
:101EC0002448FFF795F8002022492431088000219A
:101ED0002048FFF7E9FB0EBD10B5044600201D4960
:101EE0002431088001211B48FFF7DEFB00BF1948A1
:101EF00024300088A042FAD900211648FFF7D4FB0D
:101F000010BD10B50446002012492431088001217B
:101F10001048FFF7C9FB00BF0E482430008804EBCF
:101F20004401C1EBC411B0EBC10FF5DD002109483C
:101F3000FFF7BAFB10BD70B50446002500BF03E0F3
:101F40003220FFF7DEFF6D1C04EB8400B5EB800F41
:101F5000F6DD70BD0008004000B587B00121052006
:101F6000FEF788FD01210803FEF784FD2020ADF86F
:101F7000040003208DF8060018208DF8070001A941
:101F80005848FEF79BFA4020ADF8040003208DF876
:101F9000060018208DF8070001A95248FEF78EFAB6
:101FA0008020ADF8040004208DF8070001A94D48F9
:101FB000FEF784FA0020ADF80800ADF80A00ADF88D
:101FC0000C000220ADF80E000120ADF81000400218
:101FD000ADF812001820ADF814000020ADF816007E
:101FE0000720ADF8180002A93F48FEF7CDFD2320D9
:101FF0008DF8000000208DF801008DF8020001200E
:102000008DF803006846FEF790F9012260213648FA
:10201000FEF777FE60213448FEF705FF7121324854
:10202000FEF701FF01213048FEF753FE07B000BD67
:10203000002104E04A1CD1B2142900DD05E02A4A3F
:10204000128902F00202002AF4D000BF264A9081D1
:10205000704770B50024002560212348FEF7C9FEB3
:1020600000283DD021480078072835DA204800783C
:1020700090BB00201F4908801B488089C1B21B48C3
:1020800002780078401C194B18701B488154007866
:102090005B280ED118460078072807DA1846007822
:1020A000401E1649085C1049888102E000200E4954
:1020B00088810E48007807280ED10F488079A5281E
:1020C00003D00D488079B52806D101200849087051
:1020D00049F641400749088060210348FEF7A3FE06
:1020E00070BD000000080140003001402F000020BA
:1020F000300000203800002028000020310000209F
:1021000070B504460E46002544EA066044000A20E5
:10211000FFF7E2FE4FF400616C48FEF77EFA0A20FA
:10212000FFF7DAFE4FF400616848FEF774FA022107
:102130006648FEF772FA4FF480616448FEF76DFA64
:102140000420FFF7C9FE00BF27E00220FFF7C4FE0E
:102150004FF480615D48FEF760FA0220FFF7BCFE95
:10216000C5F11F0024FA00F000F0010020B10221A7
:102170005648FEF750FA03E002215448FEF74DFAA4
:102180000220FFF7A9FE4FF480615048FEF743FAA2
:102190000220FFF7A1FE681CC5B2202DD5DB4FF44D
:1021A00080614A48FEF739FA4FF400614748FEF76C
:1021B00034FA0220FFF790FE70BD08B50121082017
:1021C000FEF758FC40F60340ADF8000010208DF8F3
:1021D000030003208DF8020069463C48FEF76EF9C3
:1021E0004FF400613948FEF718FA4FF400613748A0
:1021F000FEF711FA4FF400613448FEF70EFA4FF47F
:1022000080613248FEF709FA02213048FEF705FAEC
:1022100008BD10B5FFF7D1FF01210220FFF770FFC5
:1022200002210846FFF76CFF05219020FFF768FFA9
:10223000052144F69830FFF763FF052147F68B50E0
:10224000FFF75EFF05210020FFF75AFF0621204817
:10225000FFF756FF072140F6CD00FFF751FF082199
:102260001C48FFF74DFF09211B48FFF749FF0A21D2
:1022700042F20600FFF744FF0F218920FFF740FFDD
:1022800003213220FFF73CFF04210020FFF738FF35
:1022900010BD70B5044600BF00BF4CF25030B4FB17
:1022A000F0F000F132064CF25030B4FBF0F100FBDC
:1022B000114040F24F1100FB01F503213046FFF7BA
:1022C0001FFF04212846FFF71BFF70BD000C0140D3
:1022D0004A0B2000FFBEC100FD7E1F0008B5012192
:1022E0001A48FEF7BCF901210C20FEF7C3FB4FF49E
:1022F0000040ADF8000010208DF8030003208DF899
:10230000020069461248FEF7D9F8F820ADF800003F
:1023100069461048FEF7D2F84FF400410C48FEF72A
:102320007AF908210B48FEF778F910210948FEF7E1
:1023300072F920210748FEF770F940210548FEF7A1
:102340006AF980210348FEF766F908BD00023000F3
:1023500000080140000C014008B501211C20FEF7D7
:1023600089FB01210846FEF785FB0121FA48FEF7AB
:1023700076F94FF4E060ADF8000010208DF803000E
:1023800001208DF802006946F448FEF797F84FF4F3
:102390007040ADF800006946F148FEF78FF84FF441
:1023A0006040ADF8000010208DF8030001208DF88A
:1023B00002006946EB48FEF781F84FF44070ADF833
:1023C00000006946E648FEF779F841F60C00ADF8E2
:1023D000000010208DF8030001208DF802006946EE
:1023E000DE48FEF76BF808BD10B50446DE4804442D
:1023F000DE4884421DD84FF40041D848FEF70BF95F
:102400000821D748FEF709F91021D548FEF703F94E
:102410002021D348FEF701F94021D148FEF7FBF80F
:102420008021CF48FEF7F9F8D049081BFFF731FFAC
:10243000A3E0CF4884421DD84FF40041C748FEF7BF
:10244000EAF80821C648FEF7E8F81021C448FEF76C
:10245000E2F82021C248FEF7E0F84021C048FEF72C
:10246000DAF88021BE48FEF7D8F8C149081BFFF70B
:1024700010FF82E0BF4884421DD84FF40041B748A6
:10248000FEF7C9F80821B648FEF7C7F81021B4488E
:10249000FEF7C1F82021B248FEF7BFF84021B0484E
:1024A000FEF7B9F88021AE48FEF7B7F8B149081B2E
:1024B000FFF7EFFE61E0B04884421DD84FF40041C1
:1024C000A648FEF7A8F80821A548FEF7A6F81021AF
:1024D000A348FEF7A0F82021A148FEF79EF840216E
:1024E0009F48FEF798F880219D48FEF796F8A2498C
:1024F000081BFFF7CEFE40E0A04884421DD84FF4F1
:1025000000419648FEF787F808219548FEF785F8C0
:1025100010219348FEF77FF820219148FEF77DF8BF
:1025200040218F48FEF777F880218D48FEF775F837
:102530009249081BFFF7ADFE1FE0914884421CD86A
:102540004FF400418548FEF766F808218448FEF7FD
:1025500064F810218248FEF75EF820218048FEF7DB
:102560005CF840217E48FEF756F880217C48FEF753
:1025700054F88349081BFFF78CFE10BD10B50446C4
:1025800004F0010080F0010028B14FF400417548CB
:10259000FEF741F804E04FF400417248FEF73DF8C1
:1025A000012020EA540028B14FF480416D48FEF725
:1025B00032F804E04FF480416A48FEF72EF801201B
:1025C00020EA940028B14FF400516648FEF723F842
:1025D00004E04FF400516348FEF71FF8012020EAA1
:1025E000D40028B14FF400715D48FEF714F804E000
:1025F0004FF400715A48FEF710F8012020EA141039
:1026000028B14FF480715648FEF705F804E04FF406
:1026100080715348FEF701F810BD10B504464FF421
:1026200080514F48FDF7F9FF04F0010080F00100F0
:1026300028B14FF400514A48FDF7EDFF04E04FF494
:1026400000514748FDF7E9FF012020EA540028B176
:102650004FF480414248FDF7DEFF04E04FF4804133
:102660003F48FDF7DAFF012020EA940028B14FF43B
:1026700000413B48FDF7CFFF04E04FF400413848EC
:10268000FDF7CBFF012020EAD40028B14FF4807180
:102690003248FDF7C0FF04E04FF480712F48FDF78A
:1026A000BCFF012020EA141028B14FF400712B4820
:1026B000FDF7B1FF04E04FF400712848FDF7ADFFCE
:1026C000012020EA541028B14FF480612348FDF71F
:1026D000A2FF04E04FF480612048FDF79EFF10BD8B
:1026E00010B5044694B904211C48FDF796FF082153
:1026F0001A48FDF792FF4FF480511848FDF78DFFFF
:102700004FF400611548FDF788FF24E0012C10D13B
:1027100004211248FDF77FFF08211048FDF77DFFD7
:1027200021030E48FDF777FFE1020C48FDF775FF26
:1027300011E0022C0FD104210848FDF76EFF08219B
:102740000648FDF768FFE1020448FDF766FFA102B5
:102750000248FDF760FF10BD000230000008014094
:10276000000C0140001001407041760000127A0018
:10277000401F7D00802C8000C03983000047860008
:1027800040548900064C074D06E0E06840F0010324
:1027900094E8070098471034AC42F6D3FDF7AAFC42
:1027A000C8270008E827000802E008C8121F08C16F
:1027B000002AFAD170477047002001E001C1121FC2
:1027C000002AFBD170470000E82700080000002025
:1027D0003C000000A8270008242800083C00002036
:1027E00004040000B827000800A24A04000000000A
:1027F00000000000010203040607080900000000B1
:102800000102030401020304060708090204060882
:1028100000000000000000000000000000000000B8
:04282000419C0000D7
:04000005080000ED02
:00000001FF
